{
	"AgendaEventos.sol": {
		"AgendaEventos": {
			"abi": [
				{
					"anonymous": false,
					"inputs": [
						{
							"indexed": true,
							"internalType": "address",
							"name": "creador",
							"type": "address"
						},
						{
							"indexed": false,
							"internalType": "uint256",
							"name": "id",
							"type": "uint256"
						},
						{
							"indexed": false,
							"internalType": "string",
							"name": "nombre",
							"type": "string"
						}
					],
					"name": "EventoCreado",
					"type": "event"
				},
				{
					"anonymous": false,
					"inputs": [
						{
							"indexed": true,
							"internalType": "address",
							"name": "creador",
							"type": "address"
						},
						{
							"indexed": false,
							"internalType": "uint256",
							"name": "id",
							"type": "uint256"
						}
					],
					"name": "EventoEliminado",
					"type": "event"
				},
				{
					"anonymous": false,
					"inputs": [
						{
							"indexed": true,
							"internalType": "address",
							"name": "creador",
							"type": "address"
						},
						{
							"indexed": false,
							"internalType": "uint256",
							"name": "id",
							"type": "uint256"
						},
						{
							"indexed": false,
							"internalType": "string",
							"name": "nombre",
							"type": "string"
						}
					],
					"name": "EventoModificado",
					"type": "event"
				},
				{
					"inputs": [
						{
							"internalType": "string",
							"name": "nombre",
							"type": "string"
						},
						{
							"internalType": "string",
							"name": "descripcion",
							"type": "string"
						},
						{
							"internalType": "uint256",
							"name": "fecha",
							"type": "uint256"
						}
					],
					"name": "createEvent",
					"outputs": [],
					"stateMutability": "nonpayable",
					"type": "function"
				},
				{
					"inputs": [
						{
							"internalType": "uint256",
							"name": "id",
							"type": "uint256"
						}
					],
					"name": "deleteEvent",
					"outputs": [],
					"stateMutability": "nonpayable",
					"type": "function"
				},
				{
					"inputs": [
						{
							"internalType": "uint256",
							"name": "id",
							"type": "uint256"
						}
					],
					"name": "getEvent",
					"outputs": [
						{
							"internalType": "string",
							"name": "",
							"type": "string"
						},
						{
							"internalType": "string",
							"name": "",
							"type": "string"
						},
						{
							"internalType": "uint256",
							"name": "",
							"type": "uint256"
						}
					],
					"stateMutability": "view",
					"type": "function"
				},
				{
					"inputs": [
						{
							"internalType": "uint256",
							"name": "id",
							"type": "uint256"
						},
						{
							"internalType": "string",
							"name": "nombre",
							"type": "string"
						},
						{
							"internalType": "string",
							"name": "descripcion",
							"type": "string"
						},
						{
							"internalType": "uint256",
							"name": "fecha",
							"type": "uint256"
						}
					],
					"name": "updateEvent",
					"outputs": [],
					"stateMutability": "nonpayable",
					"type": "function"
				}
			],
			"devdoc": {
				"kind": "dev",
				"methods": {},
				"version": 1
			},
			"evm": {
				"assembly": "    /* \"AgendaEventos.sol\":60:2443  contract AgendaEventos {... */\n  mstore(0x40, 0x80)\n  callvalue\n  dup1\n  iszero\n  tag_1\n  jumpi\n  0x00\n  dup1\n  revert\ntag_1:\n  pop\n  dataSize(sub_0)\n  dup1\n  dataOffset(sub_0)\n  0x00\n  codecopy\n  0x00\n  return\nstop\n\nsub_0: assembly {\n        /* \"AgendaEventos.sol\":60:2443  contract AgendaEventos {... */\n      mstore(0x40, 0x80)\n      callvalue\n      dup1\n      iszero\n      tag_1\n      jumpi\n      0x00\n      dup1\n      revert\n    tag_1:\n      pop\n      jumpi(tag_2, lt(calldatasize, 0x04))\n      shr(0xe0, calldataload(0x00))\n      dup1\n      0x5555fe17\n      eq\n      tag_3\n      jumpi\n      dup1\n      0x6d1884e0\n      eq\n      tag_4\n      jumpi\n      dup1\n      0x97116bca\n      eq\n      tag_5\n      jumpi\n      dup1\n      0xf8749a58\n      eq\n      tag_6\n      jumpi\n    tag_2:\n      0x00\n      dup1\n      revert\n        /* \"AgendaEventos.sol\":695:1157  function createEvent(string memory nombre, string memory descripcion, uint fecha) public {... */\n    tag_3:\n      tag_7\n      0x04\n      dup1\n      calldatasize\n      sub\n      dup2\n      add\n      swap1\n      tag_8\n      swap2\n      swap1\n      tag_9\n      jump\t// in\n    tag_8:\n      tag_10\n      jump\t// in\n    tag_7:\n      stop\n        /* \"AgendaEventos.sol\":1219:1529  function getEvent(uint id) public view returns (string memory, string memory, uint) {... */\n    tag_4:\n      tag_11\n      0x04\n      dup1\n      calldatasize\n      sub\n      dup2\n      add\n      swap1\n      tag_12\n      swap2\n      swap1\n      tag_13\n      jump\t// in\n    tag_12:\n      tag_14\n      jump\t// in\n    tag_11:\n      mload(0x40)\n      tag_15\n      swap4\n      swap3\n      swap2\n      swap1\n      tag_16\n      jump\t// in\n    tag_15:\n      mload(0x40)\n      dup1\n      swap2\n      sub\n      swap1\n      return\n        /* \"AgendaEventos.sol\":1593:1991  function updateEvent(uint id, string memory nombre, string memory descripcion, uint fecha) public {... */\n    tag_5:\n      tag_17\n      0x04\n      dup1\n      calldatasize\n      sub\n      dup2\n      add\n      swap1\n      tag_18\n      swap2\n      swap1\n      tag_19\n      jump\t// in\n    tag_18:\n      tag_20\n      jump\t// in\n    tag_17:\n      stop\n        /* \"AgendaEventos.sol\":2044:2290  function deleteEvent(uint id) public {... */\n    tag_6:\n      tag_21\n      0x04\n      dup1\n      calldatasize\n      sub\n      dup2\n      add\n      swap1\n      tag_22\n      swap2\n      swap1\n      tag_13\n      jump\t// in\n    tag_22:\n      tag_23\n      jump\t// in\n    tag_21:\n      stop\n        /* \"AgendaEventos.sol\":695:1157  function createEvent(string memory nombre, string memory descripcion, uint fecha) public {... */\n    tag_10:\n        /* \"AgendaEventos.sol\":926:966  Evento(nombre, descripcion, fecha, true) */\n      mload(0x40)\n      dup1\n      0x80\n      add\n      0x40\n      mstore\n      dup1\n        /* \"AgendaEventos.sol\":933:939  nombre */\n      dup5\n        /* \"AgendaEventos.sol\":926:966  Evento(nombre, descripcion, fecha, true) */\n      dup2\n      mstore\n      0x20\n      add\n        /* \"AgendaEventos.sol\":941:952  descripcion */\n      dup4\n        /* \"AgendaEventos.sol\":926:966  Evento(nombre, descripcion, fecha, true) */\n      dup2\n      mstore\n      0x20\n      add\n        /* \"AgendaEventos.sol\":954:959  fecha */\n      dup3\n        /* \"AgendaEventos.sol\":926:966  Evento(nombre, descripcion, fecha, true) */\n      dup2\n      mstore\n      0x20\n      add\n        /* \"AgendaEventos.sol\":961:965  true */\n      0x01\n        /* \"AgendaEventos.sol\":926:966  Evento(nombre, descripcion, fecha, true) */\n      iszero\n      iszero\n      dup2\n      mstore\n      pop\n        /* \"AgendaEventos.sol\":875:882  eventos */\n      0x00\n        /* \"AgendaEventos.sol\":875:894  eventos[msg.sender] */\n      dup1\n        /* \"AgendaEventos.sol\":883:893  msg.sender */\n      caller\n        /* \"AgendaEventos.sol\":875:894  eventos[msg.sender] */\n      0xffffffffffffffffffffffffffffffffffffffff\n      and\n      0xffffffffffffffffffffffffffffffffffffffff\n      and\n      dup2\n      mstore\n      0x20\n      add\n      swap1\n      dup2\n      mstore\n      0x20\n      add\n      0x00\n      keccak256\n        /* \"AgendaEventos.sol\":875:923  eventos[msg.sender][contadorEventos[msg.sender]] */\n      0x00\n        /* \"AgendaEventos.sol\":895:910  contadorEventos */\n      0x01\n        /* \"AgendaEventos.sol\":895:922  contadorEventos[msg.sender] */\n      0x00\n        /* \"AgendaEventos.sol\":911:921  msg.sender */\n      caller\n        /* \"AgendaEventos.sol\":895:922  contadorEventos[msg.sender] */\n      0xffffffffffffffffffffffffffffffffffffffff\n      and\n      0xffffffffffffffffffffffffffffffffffffffff\n      and\n      dup2\n      mstore\n      0x20\n      add\n      swap1\n      dup2\n      mstore\n      0x20\n      add\n      0x00\n      keccak256\n      sload\n        /* \"AgendaEventos.sol\":875:923  eventos[msg.sender][contadorEventos[msg.sender]] */\n      dup2\n      mstore\n      0x20\n      add\n      swap1\n      dup2\n      mstore\n      0x20\n      add\n      0x00\n      keccak256\n        /* \"AgendaEventos.sol\":875:966  eventos[msg.sender][contadorEventos[msg.sender]] = Evento(nombre, descripcion, fecha, true) */\n      0x00\n      dup3\n      add\n      mload\n      dup2\n      0x00\n      add\n      swap1\n      dup2\n      tag_25\n      swap2\n      swap1\n      tag_26\n      jump\t// in\n    tag_25:\n      pop\n      0x20\n      dup3\n      add\n      mload\n      dup2\n      0x01\n      add\n      swap1\n      dup2\n      tag_27\n      swap2\n      swap1\n      tag_26\n      jump\t// in\n    tag_27:\n      pop\n      0x40\n      dup3\n      add\n      mload\n      dup2\n      0x02\n      add\n      sstore\n      0x60\n      dup3\n      add\n      mload\n      dup2\n      0x03\n      add\n      exp(0x0100, 0x00)\n      dup2\n      sload\n      dup2\n      0xff\n      mul\n      not\n      and\n      swap1\n      dup4\n      iszero\n      iszero\n      mul\n      or\n      swap1\n      sstore\n      pop\n      swap1\n      pop\n      pop\n        /* \"AgendaEventos.sol\":995:1005  msg.sender */\n      caller\n        /* \"AgendaEventos.sol\":982:1043  EventoCreado(msg.sender, contadorEventos[msg.sender], nombre) */\n      0xffffffffffffffffffffffffffffffffffffffff\n      and\n      0x2d6b28a8aa465ea8ef959ffa368300fb581a01072a789f5dafb1a34f97125b00\n        /* \"AgendaEventos.sol\":1007:1022  contadorEventos */\n      0x01\n        /* \"AgendaEventos.sol\":1007:1034  contadorEventos[msg.sender] */\n      0x00\n        /* \"AgendaEventos.sol\":1023:1033  msg.sender */\n      caller\n        /* \"AgendaEventos.sol\":1007:1034  contadorEventos[msg.sender] */\n      0xffffffffffffffffffffffffffffffffffffffff\n      and\n      0xffffffffffffffffffffffffffffffffffffffff\n      and\n      dup2\n      mstore\n      0x20\n      add\n      swap1\n      dup2\n      mstore\n      0x20\n      add\n      0x00\n      keccak256\n      sload\n        /* \"AgendaEventos.sol\":1036:1042  nombre */\n      dup6\n        /* \"AgendaEventos.sol\":982:1043  EventoCreado(msg.sender, contadorEventos[msg.sender], nombre) */\n      mload(0x40)\n      tag_28\n      swap3\n      swap2\n      swap1\n      tag_29\n      jump\t// in\n    tag_28:\n      mload(0x40)\n      dup1\n      swap2\n      sub\n      swap1\n      log2\n        /* \"AgendaEventos.sol\":1120:1135  contadorEventos */\n      0x01\n        /* \"AgendaEventos.sol\":1120:1147  contadorEventos[msg.sender] */\n      0x00\n        /* \"AgendaEventos.sol\":1136:1146  msg.sender */\n      caller\n        /* \"AgendaEventos.sol\":1120:1147  contadorEventos[msg.sender] */\n      0xffffffffffffffffffffffffffffffffffffffff\n      and\n      0xffffffffffffffffffffffffffffffffffffffff\n      and\n      dup2\n      mstore\n      0x20\n      add\n      swap1\n      dup2\n      mstore\n      0x20\n      add\n      0x00\n      keccak256\n      0x00\n        /* \"AgendaEventos.sol\":1120:1149  contadorEventos[msg.sender]++ */\n      dup2\n      sload\n      dup1\n      swap3\n      swap2\n      swap1\n      tag_30\n      swap1\n      tag_31\n      jump\t// in\n    tag_30:\n      swap2\n      swap1\n      pop\n      sstore\n      pop\n        /* \"AgendaEventos.sol\":695:1157  function createEvent(string memory nombre, string memory descripcion, uint fecha) public {... */\n      pop\n      pop\n      pop\n      jump\t// out\n        /* \"AgendaEventos.sol\":1219:1529  function getEvent(uint id) public view returns (string memory, string memory, uint) {... */\n    tag_14:\n        /* \"AgendaEventos.sol\":1267:1280  string memory */\n      0x60\n        /* \"AgendaEventos.sol\":1282:1295  string memory */\n      dup1\n        /* \"AgendaEventos.sol\":1297:1301  uint */\n      0x00\n        /* \"AgendaEventos.sol\":1365:1372  eventos */\n      dup1\n        /* \"AgendaEventos.sol\":1365:1384  eventos[msg.sender] */\n      0x00\n        /* \"AgendaEventos.sol\":1373:1383  msg.sender */\n      caller\n        /* \"AgendaEventos.sol\":1365:1384  eventos[msg.sender] */\n      0xffffffffffffffffffffffffffffffffffffffff\n      and\n      0xffffffffffffffffffffffffffffffffffffffff\n      and\n      dup2\n      mstore\n      0x20\n      add\n      swap1\n      dup2\n      mstore\n      0x20\n      add\n      0x00\n      keccak256\n        /* \"AgendaEventos.sol\":1365:1388  eventos[msg.sender][id] */\n      0x00\n        /* \"AgendaEventos.sol\":1385:1387  id */\n      dup6\n        /* \"AgendaEventos.sol\":1365:1388  eventos[msg.sender][id] */\n      dup2\n      mstore\n      0x20\n      add\n      swap1\n      dup2\n      mstore\n      0x20\n      add\n      0x00\n      keccak256\n        /* \"AgendaEventos.sol\":1365:1395  eventos[msg.sender][id].existe */\n      0x03\n      add\n      0x00\n      swap1\n      sload\n      swap1\n      0x0100\n      exp\n      swap1\n      div\n      0xff\n      and\n        /* \"AgendaEventos.sol\":1357:1416  require(eventos[msg.sender][id].existe, \"Evento no existe\") */\n      tag_33\n      jumpi\n      mload(0x40)\n      0x08c379a000000000000000000000000000000000000000000000000000000000\n      dup2\n      mstore\n      0x04\n      add\n      tag_34\n      swap1\n      tag_35\n      jump\t// in\n    tag_34:\n      mload(0x40)\n      dup1\n      swap2\n      sub\n      swap1\n      revert\n    tag_33:\n        /* \"AgendaEventos.sol\":1427:1443  Evento storage e */\n      0x00\n        /* \"AgendaEventos.sol\":1446:1453  eventos */\n      dup1\n        /* \"AgendaEventos.sol\":1446:1465  eventos[msg.sender] */\n      0x00\n        /* \"AgendaEventos.sol\":1454:1464  msg.sender */\n      caller\n        /* \"AgendaEventos.sol\":1446:1465  eventos[msg.sender] */\n      0xffffffffffffffffffffffffffffffffffffffff\n      and\n      0xffffffffffffffffffffffffffffffffffffffff\n      and\n      dup2\n      mstore\n      0x20\n      add\n      swap1\n      dup2\n      mstore\n      0x20\n      add\n      0x00\n      keccak256\n        /* \"AgendaEventos.sol\":1446:1469  eventos[msg.sender][id] */\n      0x00\n        /* \"AgendaEventos.sol\":1466:1468  id */\n      dup7\n        /* \"AgendaEventos.sol\":1446:1469  eventos[msg.sender][id] */\n      dup2\n      mstore\n      0x20\n      add\n      swap1\n      dup2\n      mstore\n      0x20\n      add\n      0x00\n      keccak256\n        /* \"AgendaEventos.sol\":1427:1469  Evento storage e = eventos[msg.sender][id] */\n      swap1\n      pop\n        /* \"AgendaEventos.sol\":1488:1489  e */\n      dup1\n        /* \"AgendaEventos.sol\":1488:1496  e.nombre */\n      0x00\n      add\n        /* \"AgendaEventos.sol\":1498:1499  e */\n      dup2\n        /* \"AgendaEventos.sol\":1498:1511  e.descripcion */\n      0x01\n      add\n        /* \"AgendaEventos.sol\":1513:1514  e */\n      dup3\n        /* \"AgendaEventos.sol\":1513:1520  e.fecha */\n      0x02\n      add\n      sload\n        /* \"AgendaEventos.sol\":1480:1521  return (e.nombre, e.descripcion, e.fecha) */\n      dup3\n      dup1\n      sload\n      tag_36\n      swap1\n      tag_37\n      jump\t// in\n    tag_36:\n      dup1\n      0x1f\n      add\n      0x20\n      dup1\n      swap2\n      div\n      mul\n      0x20\n      add\n      mload(0x40)\n      swap1\n      dup2\n      add\n      0x40\n      mstore\n      dup1\n      swap3\n      swap2\n      swap1\n      dup2\n      dup2\n      mstore\n      0x20\n      add\n      dup3\n      dup1\n      sload\n      tag_38\n      swap1\n      tag_37\n      jump\t// in\n    tag_38:\n      dup1\n      iszero\n      tag_39\n      jumpi\n      dup1\n      0x1f\n      lt\n      tag_40\n      jumpi\n      0x0100\n      dup1\n      dup4\n      sload\n      div\n      mul\n      dup4\n      mstore\n      swap2\n      0x20\n      add\n      swap2\n      jump(tag_39)\n    tag_40:\n      dup3\n      add\n      swap2\n      swap1\n      0x00\n      mstore\n      keccak256(0x00, 0x20)\n      swap1\n    tag_41:\n      dup2\n      sload\n      dup2\n      mstore\n      swap1\n      0x01\n      add\n      swap1\n      0x20\n      add\n      dup1\n      dup4\n      gt\n      tag_41\n      jumpi\n      dup3\n      swap1\n      sub\n      0x1f\n      and\n      dup3\n      add\n      swap2\n    tag_39:\n      pop\n      pop\n      pop\n      pop\n      pop\n      swap3\n      pop\n      dup2\n      dup1\n      sload\n      tag_42\n      swap1\n      tag_37\n      jump\t// in\n    tag_42:\n      dup1\n      0x1f\n      add\n      0x20\n      dup1\n      swap2\n      div\n      mul\n      0x20\n      add\n      mload(0x40)\n      swap1\n      dup2\n      add\n      0x40\n      mstore\n      dup1\n      swap3\n      swap2\n      swap1\n      dup2\n      dup2\n      mstore\n      0x20\n      add\n      dup3\n      dup1\n      sload\n      tag_43\n      swap1\n      tag_37\n      jump\t// in\n    tag_43:\n      dup1\n      iszero\n      tag_44\n      jumpi\n      dup1\n      0x1f\n      lt\n      tag_45\n      jumpi\n      0x0100\n      dup1\n      dup4\n      sload\n      div\n      mul\n      dup4\n      mstore\n      swap2\n      0x20\n      add\n      swap2\n      jump(tag_44)\n    tag_45:\n      dup3\n      add\n      swap2\n      swap1\n      0x00\n      mstore\n      keccak256(0x00, 0x20)\n      swap1\n    tag_46:\n      dup2\n      sload\n      dup2\n      mstore\n      swap1\n      0x01\n      add\n      swap1\n      0x20\n      add\n      dup1\n      dup4\n      gt\n      tag_46\n      jumpi\n      dup3\n      swap1\n      sub\n      0x1f\n      and\n      dup3\n      add\n      swap2\n    tag_44:\n      pop\n      pop\n      pop\n      pop\n      pop\n      swap2\n      pop\n      swap4\n      pop\n      swap4\n      pop\n      swap4\n      pop\n      pop\n        /* \"AgendaEventos.sol\":1219:1529  function getEvent(uint id) public view returns (string memory, string memory, uint) {... */\n      swap2\n      swap4\n      swap1\n      swap3\n      pop\n      jump\t// out\n        /* \"AgendaEventos.sol\":1593:1991  function updateEvent(uint id, string memory nombre, string memory descripcion, uint fecha) public {... */\n    tag_20:\n        /* \"AgendaEventos.sol\":1753:1760  eventos */\n      0x00\n        /* \"AgendaEventos.sol\":1753:1772  eventos[msg.sender] */\n      dup1\n        /* \"AgendaEventos.sol\":1761:1771  msg.sender */\n      caller\n        /* \"AgendaEventos.sol\":1753:1772  eventos[msg.sender] */\n      0xffffffffffffffffffffffffffffffffffffffff\n      and\n      0xffffffffffffffffffffffffffffffffffffffff\n      and\n      dup2\n      mstore\n      0x20\n      add\n      swap1\n      dup2\n      mstore\n      0x20\n      add\n      0x00\n      keccak256\n        /* \"AgendaEventos.sol\":1753:1776  eventos[msg.sender][id] */\n      0x00\n        /* \"AgendaEventos.sol\":1773:1775  id */\n      dup6\n        /* \"AgendaEventos.sol\":1753:1776  eventos[msg.sender][id] */\n      dup2\n      mstore\n      0x20\n      add\n      swap1\n      dup2\n      mstore\n      0x20\n      add\n      0x00\n      keccak256\n        /* \"AgendaEventos.sol\":1753:1783  eventos[msg.sender][id].existe */\n      0x03\n      add\n      0x00\n      swap1\n      sload\n      swap1\n      0x0100\n      exp\n      swap1\n      div\n      0xff\n      and\n        /* \"AgendaEventos.sol\":1745:1804  require(eventos[msg.sender][id].existe, \"Evento no existe\") */\n      tag_48\n      jumpi\n      mload(0x40)\n      0x08c379a000000000000000000000000000000000000000000000000000000000\n      dup2\n      mstore\n      0x04\n      add\n      tag_49\n      swap1\n      tag_35\n      jump\t// in\n    tag_49:\n      mload(0x40)\n      dup1\n      swap2\n      sub\n      swap1\n      revert\n    tag_48:\n        /* \"AgendaEventos.sol\":1887:1927  Evento(nombre, descripcion, fecha, true) */\n      mload(0x40)\n      dup1\n      0x80\n      add\n      0x40\n      mstore\n      dup1\n        /* \"AgendaEventos.sol\":1894:1900  nombre */\n      dup5\n        /* \"AgendaEventos.sol\":1887:1927  Evento(nombre, descripcion, fecha, true) */\n      dup2\n      mstore\n      0x20\n      add\n        /* \"AgendaEventos.sol\":1902:1913  descripcion */\n      dup4\n        /* \"AgendaEventos.sol\":1887:1927  Evento(nombre, descripcion, fecha, true) */\n      dup2\n      mstore\n      0x20\n      add\n        /* \"AgendaEventos.sol\":1915:1920  fecha */\n      dup3\n        /* \"AgendaEventos.sol\":1887:1927  Evento(nombre, descripcion, fecha, true) */\n      dup2\n      mstore\n      0x20\n      add\n        /* \"AgendaEventos.sol\":1922:1926  true */\n      0x01\n        /* \"AgendaEventos.sol\":1887:1927  Evento(nombre, descripcion, fecha, true) */\n      iszero\n      iszero\n      dup2\n      mstore\n      pop\n        /* \"AgendaEventos.sol\":1861:1868  eventos */\n      0x00\n        /* \"AgendaEventos.sol\":1861:1880  eventos[msg.sender] */\n      dup1\n        /* \"AgendaEventos.sol\":1869:1879  msg.sender */\n      caller\n        /* \"AgendaEventos.sol\":1861:1880  eventos[msg.sender] */\n      0xffffffffffffffffffffffffffffffffffffffff\n      and\n      0xffffffffffffffffffffffffffffffffffffffff\n      and\n      dup2\n      mstore\n      0x20\n      add\n      swap1\n      dup2\n      mstore\n      0x20\n      add\n      0x00\n      keccak256\n        /* \"AgendaEventos.sol\":1861:1884  eventos[msg.sender][id] */\n      0x00\n        /* \"AgendaEventos.sol\":1881:1883  id */\n      dup7\n        /* \"AgendaEventos.sol\":1861:1884  eventos[msg.sender][id] */\n      dup2\n      mstore\n      0x20\n      add\n      swap1\n      dup2\n      mstore\n      0x20\n      add\n      0x00\n      keccak256\n        /* \"AgendaEventos.sol\":1861:1927  eventos[msg.sender][id] = Evento(nombre, descripcion, fecha, true) */\n      0x00\n      dup3\n      add\n      mload\n      dup2\n      0x00\n      add\n      swap1\n      dup2\n      tag_50\n      swap2\n      swap1\n      tag_26\n      jump\t// in\n    tag_50:\n      pop\n      0x20\n      dup3\n      add\n      mload\n      dup2\n      0x01\n      add\n      swap1\n      dup2\n      tag_51\n      swap2\n      swap1\n      tag_26\n      jump\t// in\n    tag_51:\n      pop\n      0x40\n      dup3\n      add\n      mload\n      dup2\n      0x02\n      add\n      sstore\n      0x60\n      dup3\n      add\n      mload\n      dup2\n      0x03\n      add\n      exp(0x0100, 0x00)\n      dup2\n      sload\n      dup2\n      0xff\n      mul\n      not\n      and\n      swap1\n      dup4\n      iszero\n      iszero\n      mul\n      or\n      swap1\n      sstore\n      pop\n      swap1\n      pop\n      pop\n        /* \"AgendaEventos.sol\":1960:1970  msg.sender */\n      caller\n        /* \"AgendaEventos.sol\":1943:1983  EventoModificado(msg.sender, id, nombre) */\n      0xffffffffffffffffffffffffffffffffffffffff\n      and\n      0x580f21ba5ac386015e66e7cafbca44f69f33ac115522371f34ff2cee5a0efd22\n        /* \"AgendaEventos.sol\":1972:1974  id */\n      dup6\n        /* \"AgendaEventos.sol\":1976:1982  nombre */\n      dup6\n        /* \"AgendaEventos.sol\":1943:1983  EventoModificado(msg.sender, id, nombre) */\n      mload(0x40)\n      tag_52\n      swap3\n      swap2\n      swap1\n      tag_29\n      jump\t// in\n    tag_52:\n      mload(0x40)\n      dup1\n      swap2\n      sub\n      swap1\n      log2\n        /* \"AgendaEventos.sol\":1593:1991  function updateEvent(uint id, string memory nombre, string memory descripcion, uint fecha) public {... */\n      pop\n      pop\n      pop\n      pop\n      jump\t// out\n        /* \"AgendaEventos.sol\":2044:2290  function deleteEvent(uint id) public {... */\n    tag_23:\n        /* \"AgendaEventos.sol\":2143:2150  eventos */\n      0x00\n        /* \"AgendaEventos.sol\":2143:2162  eventos[msg.sender] */\n      dup1\n        /* \"AgendaEventos.sol\":2151:2161  msg.sender */\n      caller\n        /* \"AgendaEventos.sol\":2143:2162  eventos[msg.sender] */\n      0xffffffffffffffffffffffffffffffffffffffff\n      and\n      0xffffffffffffffffffffffffffffffffffffffff\n      and\n      dup2\n      mstore\n      0x20\n      add\n      swap1\n      dup2\n      mstore\n      0x20\n      add\n      0x00\n      keccak256\n        /* \"AgendaEventos.sol\":2143:2166  eventos[msg.sender][id] */\n      0x00\n        /* \"AgendaEventos.sol\":2163:2165  id */\n      dup3\n        /* \"AgendaEventos.sol\":2143:2166  eventos[msg.sender][id] */\n      dup2\n      mstore\n      0x20\n      add\n      swap1\n      dup2\n      mstore\n      0x20\n      add\n      0x00\n      keccak256\n        /* \"AgendaEventos.sol\":2143:2173  eventos[msg.sender][id].existe */\n      0x03\n      add\n      0x00\n      swap1\n      sload\n      swap1\n      0x0100\n      exp\n      swap1\n      div\n      0xff\n      and\n        /* \"AgendaEventos.sol\":2135:2194  require(eventos[msg.sender][id].existe, \"Evento no existe\") */\n      tag_54\n      jumpi\n      mload(0x40)\n      0x08c379a000000000000000000000000000000000000000000000000000000000\n      dup2\n      mstore\n      0x04\n      add\n      tag_55\n      swap1\n      tag_35\n      jump\t// in\n    tag_55:\n      mload(0x40)\n      dup1\n      swap2\n      sub\n      swap1\n      revert\n    tag_54:\n        /* \"AgendaEventos.sol\":2212:2219  eventos */\n      0x00\n        /* \"AgendaEventos.sol\":2212:2231  eventos[msg.sender] */\n      dup1\n        /* \"AgendaEventos.sol\":2220:2230  msg.sender */\n      caller\n        /* \"AgendaEventos.sol\":2212:2231  eventos[msg.sender] */\n      0xffffffffffffffffffffffffffffffffffffffff\n      and\n      0xffffffffffffffffffffffffffffffffffffffff\n      and\n      dup2\n      mstore\n      0x20\n      add\n      swap1\n      dup2\n      mstore\n      0x20\n      add\n      0x00\n      keccak256\n        /* \"AgendaEventos.sol\":2212:2235  eventos[msg.sender][id] */\n      0x00\n        /* \"AgendaEventos.sol\":2232:2234  id */\n      dup3\n        /* \"AgendaEventos.sol\":2212:2235  eventos[msg.sender][id] */\n      dup2\n      mstore\n      0x20\n      add\n      swap1\n      dup2\n      mstore\n      0x20\n      add\n      0x00\n      keccak256\n      0x00\n        /* \"AgendaEventos.sol\":2205:2235  delete eventos[msg.sender][id] */\n      dup1\n      dup3\n      add\n      0x00\n      tag_56\n      swap2\n      swap1\n      tag_57\n      jump\t// in\n    tag_56:\n      0x01\n      dup3\n      add\n      0x00\n      tag_58\n      swap2\n      swap1\n      tag_57\n      jump\t// in\n    tag_58:\n      0x02\n      dup3\n      add\n      0x00\n      swap1\n      sstore\n      0x03\n      dup3\n      add\n      exp(0x0100, 0x00)\n      dup2\n      sload\n      swap1\n      0xff\n      mul\n      not\n      and\n      swap1\n      sstore\n      pop\n      pop\n        /* \"AgendaEventos.sol\":2267:2277  msg.sender */\n      caller\n        /* \"AgendaEventos.sol\":2251:2282  EventoEliminado(msg.sender, id) */\n      0xffffffffffffffffffffffffffffffffffffffff\n      and\n      0x485a32ab922f212c1c1ef5f52f142ca88fdba8cf46d8dfcda744922c234fb448\n        /* \"AgendaEventos.sol\":2279:2281  id */\n      dup3\n        /* \"AgendaEventos.sol\":2251:2282  EventoEliminado(msg.sender, id) */\n      mload(0x40)\n      tag_59\n      swap2\n      swap1\n      tag_60\n      jump\t// in\n    tag_59:\n      mload(0x40)\n      dup1\n      swap2\n      sub\n      swap1\n      log2\n        /* \"AgendaEventos.sol\":2044:2290  function deleteEvent(uint id) public {... */\n      pop\n      jump\t// out\n    tag_57:\n      pop\n      dup1\n      sload\n      tag_61\n      swap1\n      tag_37\n      jump\t// in\n    tag_61:\n      0x00\n      dup3\n      sstore\n      dup1\n      0x1f\n      lt\n      tag_63\n      jumpi\n      pop\n      jump(tag_62)\n    tag_63:\n      0x1f\n      add\n      0x20\n      swap1\n      div\n      swap1\n      0x00\n      mstore\n      keccak256(0x00, 0x20)\n      swap1\n      dup2\n      add\n      swap1\n      tag_64\n      swap2\n      swap1\n      tag_65\n      jump\t// in\n    tag_64:\n    tag_62:\n      pop\n      jump\t// out\n    tag_65:\n    tag_66:\n      dup1\n      dup3\n      gt\n      iszero\n      tag_67\n      jumpi\n      0x00\n      dup2\n      0x00\n      swap1\n      sstore\n      pop\n      0x01\n      add\n      jump(tag_66)\n    tag_67:\n      pop\n      swap1\n      jump\t// out\n        /* \"#utility.yul\":7:82   */\n    tag_68:\n        /* \"#utility.yul\":40:46   */\n      0x00\n        /* \"#utility.yul\":73:75   */\n      0x40\n        /* \"#utility.yul\":67:76   */\n      mload\n        /* \"#utility.yul\":57:76   */\n      swap1\n      pop\n        /* \"#utility.yul\":7:82   */\n      swap1\n      jump\t// out\n        /* \"#utility.yul\":88:205   */\n    tag_69:\n        /* \"#utility.yul\":197:198   */\n      0x00\n        /* \"#utility.yul\":194:195   */\n      dup1\n        /* \"#utility.yul\":187:199   */\n      revert\n        /* \"#utility.yul\":211:328   */\n    tag_70:\n        /* \"#utility.yul\":320:321   */\n      0x00\n        /* \"#utility.yul\":317:318   */\n      dup1\n        /* \"#utility.yul\":310:322   */\n      revert\n        /* \"#utility.yul\":334:451   */\n    tag_71:\n        /* \"#utility.yul\":443:444   */\n      0x00\n        /* \"#utility.yul\":440:441   */\n      dup1\n        /* \"#utility.yul\":433:445   */\n      revert\n        /* \"#utility.yul\":457:574   */\n    tag_72:\n        /* \"#utility.yul\":566:567   */\n      0x00\n        /* \"#utility.yul\":563:564   */\n      dup1\n        /* \"#utility.yul\":556:568   */\n      revert\n        /* \"#utility.yul\":580:682   */\n    tag_73:\n        /* \"#utility.yul\":621:627   */\n      0x00\n        /* \"#utility.yul\":672:674   */\n      0x1f\n        /* \"#utility.yul\":668:675   */\n      not\n        /* \"#utility.yul\":663:665   */\n      0x1f\n        /* \"#utility.yul\":656:661   */\n      dup4\n        /* \"#utility.yul\":652:666   */\n      add\n        /* \"#utility.yul\":648:676   */\n      and\n        /* \"#utility.yul\":638:676   */\n      swap1\n      pop\n        /* \"#utility.yul\":580:682   */\n      swap2\n      swap1\n      pop\n      jump\t// out\n        /* \"#utility.yul\":688:868   */\n    tag_74:\n        /* \"#utility.yul\":736:813   */\n      0x4e487b7100000000000000000000000000000000000000000000000000000000\n        /* \"#utility.yul\":733:734   */\n      0x00\n        /* \"#utility.yul\":726:814   */\n      mstore\n        /* \"#utility.yul\":833:837   */\n      0x41\n        /* \"#utility.yul\":830:831   */\n      0x04\n        /* \"#utility.yul\":823:838   */\n      mstore\n        /* \"#utility.yul\":857:861   */\n      0x24\n        /* \"#utility.yul\":854:855   */\n      0x00\n        /* \"#utility.yul\":847:862   */\n      revert\n        /* \"#utility.yul\":874:1155   */\n    tag_75:\n        /* \"#utility.yul\":957:984   */\n      tag_117\n        /* \"#utility.yul\":979:983   */\n      dup3\n        /* \"#utility.yul\":957:984   */\n      tag_73\n      jump\t// in\n    tag_117:\n        /* \"#utility.yul\":949:955   */\n      dup2\n        /* \"#utility.yul\":945:985   */\n      add\n        /* \"#utility.yul\":1087:1093   */\n      dup2\n        /* \"#utility.yul\":1075:1085   */\n      dup2\n        /* \"#utility.yul\":1072:1094   */\n      lt\n        /* \"#utility.yul\":1051:1069   */\n      0xffffffffffffffff\n        /* \"#utility.yul\":1039:1049   */\n      dup3\n        /* \"#utility.yul\":1036:1070   */\n      gt\n        /* \"#utility.yul\":1033:1095   */\n      or\n        /* \"#utility.yul\":1030:1118   */\n      iszero\n      tag_118\n      jumpi\n        /* \"#utility.yul\":1098:1116   */\n      tag_119\n      tag_74\n      jump\t// in\n    tag_119:\n        /* \"#utility.yul\":1030:1118   */\n    tag_118:\n        /* \"#utility.yul\":1138:1148   */\n      dup1\n        /* \"#utility.yul\":1134:1136   */\n      0x40\n        /* \"#utility.yul\":1127:1149   */\n      mstore\n        /* \"#utility.yul\":917:1155   */\n      pop\n        /* \"#utility.yul\":874:1155   */\n      pop\n      pop\n      jump\t// out\n        /* \"#utility.yul\":1161:1290   */\n    tag_76:\n        /* \"#utility.yul\":1195:1201   */\n      0x00\n        /* \"#utility.yul\":1222:1242   */\n      tag_121\n      tag_68\n      jump\t// in\n    tag_121:\n        /* \"#utility.yul\":1212:1242   */\n      swap1\n      pop\n        /* \"#utility.yul\":1251:1284   */\n      tag_122\n        /* \"#utility.yul\":1279:1283   */\n      dup3\n        /* \"#utility.yul\":1271:1277   */\n      dup3\n        /* \"#utility.yul\":1251:1284   */\n      tag_75\n      jump\t// in\n    tag_122:\n        /* \"#utility.yul\":1161:1290   */\n      swap2\n      swap1\n      pop\n      jump\t// out\n        /* \"#utility.yul\":1296:1604   */\n    tag_77:\n        /* \"#utility.yul\":1358:1362   */\n      0x00\n        /* \"#utility.yul\":1448:1466   */\n      0xffffffffffffffff\n        /* \"#utility.yul\":1440:1446   */\n      dup3\n        /* \"#utility.yul\":1437:1467   */\n      gt\n        /* \"#utility.yul\":1434:1490   */\n      iszero\n      tag_124\n      jumpi\n        /* \"#utility.yul\":1470:1488   */\n      tag_125\n      tag_74\n      jump\t// in\n    tag_125:\n        /* \"#utility.yul\":1434:1490   */\n    tag_124:\n        /* \"#utility.yul\":1508:1537   */\n      tag_126\n        /* \"#utility.yul\":1530:1536   */\n      dup3\n        /* \"#utility.yul\":1508:1537   */\n      tag_73\n      jump\t// in\n    tag_126:\n        /* \"#utility.yul\":1500:1537   */\n      swap1\n      pop\n        /* \"#utility.yul\":1592:1596   */\n      0x20\n        /* \"#utility.yul\":1586:1590   */\n      dup2\n        /* \"#utility.yul\":1582:1597   */\n      add\n        /* \"#utility.yul\":1574:1597   */\n      swap1\n      pop\n        /* \"#utility.yul\":1296:1604   */\n      swap2\n      swap1\n      pop\n      jump\t// out\n        /* \"#utility.yul\":1610:1758   */\n    tag_78:\n        /* \"#utility.yul\":1708:1714   */\n      dup3\n        /* \"#utility.yul\":1703:1706   */\n      dup2\n        /* \"#utility.yul\":1698:1701   */\n      dup4\n        /* \"#utility.yul\":1685:1715   */\n      calldatacopy\n        /* \"#utility.yul\":1749:1750   */\n      0x00\n        /* \"#utility.yul\":1740:1746   */\n      dup4\n        /* \"#utility.yul\":1735:1738   */\n      dup4\n        /* \"#utility.yul\":1731:1747   */\n      add\n        /* \"#utility.yul\":1724:1751   */\n      mstore\n        /* \"#utility.yul\":1610:1758   */\n      pop\n      pop\n      pop\n      jump\t// out\n        /* \"#utility.yul\":1764:2189   */\n    tag_79:\n        /* \"#utility.yul\":1842:1847   */\n      0x00\n        /* \"#utility.yul\":1867:1933   */\n      tag_129\n        /* \"#utility.yul\":1883:1932   */\n      tag_130\n        /* \"#utility.yul\":1925:1931   */\n      dup5\n        /* \"#utility.yul\":1883:1932   */\n      tag_77\n      jump\t// in\n    tag_130:\n        /* \"#utility.yul\":1867:1933   */\n      tag_76\n      jump\t// in\n    tag_129:\n        /* \"#utility.yul\":1858:1933   */\n      swap1\n      pop\n        /* \"#utility.yul\":1956:1962   */\n      dup3\n        /* \"#utility.yul\":1949:1954   */\n      dup2\n        /* \"#utility.yul\":1942:1963   */\n      mstore\n        /* \"#utility.yul\":1994:1998   */\n      0x20\n        /* \"#utility.yul\":1987:1992   */\n      dup2\n        /* \"#utility.yul\":1983:1999   */\n      add\n        /* \"#utility.yul\":2032:2035   */\n      dup5\n        /* \"#utility.yul\":2023:2029   */\n      dup5\n        /* \"#utility.yul\":2018:2021   */\n      dup5\n        /* \"#utility.yul\":2014:2030   */\n      add\n        /* \"#utility.yul\":2011:2036   */\n      gt\n        /* \"#utility.yul\":2008:2120   */\n      iszero\n      tag_131\n      jumpi\n        /* \"#utility.yul\":2039:2118   */\n      tag_132\n      tag_72\n      jump\t// in\n    tag_132:\n        /* \"#utility.yul\":2008:2120   */\n    tag_131:\n        /* \"#utility.yul\":2129:2183   */\n      tag_133\n        /* \"#utility.yul\":2176:2182   */\n      dup5\n        /* \"#utility.yul\":2171:2174   */\n      dup3\n        /* \"#utility.yul\":2166:2169   */\n      dup6\n        /* \"#utility.yul\":2129:2183   */\n      tag_78\n      jump\t// in\n    tag_133:\n        /* \"#utility.yul\":1848:2189   */\n      pop\n        /* \"#utility.yul\":1764:2189   */\n      swap4\n      swap3\n      pop\n      pop\n      pop\n      jump\t// out\n        /* \"#utility.yul\":2209:2549   */\n    tag_80:\n        /* \"#utility.yul\":2265:2270   */\n      0x00\n        /* \"#utility.yul\":2314:2317   */\n      dup3\n        /* \"#utility.yul\":2307:2311   */\n      0x1f\n        /* \"#utility.yul\":2299:2305   */\n      dup4\n        /* \"#utility.yul\":2295:2312   */\n      add\n        /* \"#utility.yul\":2291:2318   */\n      slt\n        /* \"#utility.yul\":2281:2403   */\n      tag_135\n      jumpi\n        /* \"#utility.yul\":2322:2401   */\n      tag_136\n      tag_71\n      jump\t// in\n    tag_136:\n        /* \"#utility.yul\":2281:2403   */\n    tag_135:\n        /* \"#utility.yul\":2439:2445   */\n      dup2\n        /* \"#utility.yul\":2426:2446   */\n      calldataload\n        /* \"#utility.yul\":2464:2543   */\n      tag_137\n        /* \"#utility.yul\":2539:2542   */\n      dup5\n        /* \"#utility.yul\":2531:2537   */\n      dup3\n        /* \"#utility.yul\":2524:2528   */\n      0x20\n        /* \"#utility.yul\":2516:2522   */\n      dup7\n        /* \"#utility.yul\":2512:2529   */\n      add\n        /* \"#utility.yul\":2464:2543   */\n      tag_79\n      jump\t// in\n    tag_137:\n        /* \"#utility.yul\":2455:2543   */\n      swap2\n      pop\n        /* \"#utility.yul\":2271:2549   */\n      pop\n        /* \"#utility.yul\":2209:2549   */\n      swap3\n      swap2\n      pop\n      pop\n      jump\t// out\n        /* \"#utility.yul\":2555:2632   */\n    tag_81:\n        /* \"#utility.yul\":2592:2599   */\n      0x00\n        /* \"#utility.yul\":2621:2626   */\n      dup2\n        /* \"#utility.yul\":2610:2626   */\n      swap1\n      pop\n        /* \"#utility.yul\":2555:2632   */\n      swap2\n      swap1\n      pop\n      jump\t// out\n        /* \"#utility.yul\":2638:2760   */\n    tag_82:\n        /* \"#utility.yul\":2711:2735   */\n      tag_140\n        /* \"#utility.yul\":2729:2734   */\n      dup2\n        /* \"#utility.yul\":2711:2735   */\n      tag_81\n      jump\t// in\n    tag_140:\n        /* \"#utility.yul\":2704:2709   */\n      dup2\n        /* \"#utility.yul\":2701:2736   */\n      eq\n        /* \"#utility.yul\":2691:2754   */\n      tag_141\n      jumpi\n        /* \"#utility.yul\":2750:2751   */\n      0x00\n        /* \"#utility.yul\":2747:2748   */\n      dup1\n        /* \"#utility.yul\":2740:2752   */\n      revert\n        /* \"#utility.yul\":2691:2754   */\n    tag_141:\n        /* \"#utility.yul\":2638:2760   */\n      pop\n      jump\t// out\n        /* \"#utility.yul\":2766:2905   */\n    tag_83:\n        /* \"#utility.yul\":2812:2817   */\n      0x00\n        /* \"#utility.yul\":2850:2856   */\n      dup2\n        /* \"#utility.yul\":2837:2857   */\n      calldataload\n        /* \"#utility.yul\":2828:2857   */\n      swap1\n      pop\n        /* \"#utility.yul\":2866:2899   */\n      tag_143\n        /* \"#utility.yul\":2893:2898   */\n      dup2\n        /* \"#utility.yul\":2866:2899   */\n      tag_82\n      jump\t// in\n    tag_143:\n        /* \"#utility.yul\":2766:2905   */\n      swap3\n      swap2\n      pop\n      pop\n      jump\t// out\n        /* \"#utility.yul\":2911:3890   */\n    tag_9:\n        /* \"#utility.yul\":3008:3014   */\n      0x00\n        /* \"#utility.yul\":3016:3022   */\n      dup1\n        /* \"#utility.yul\":3024:3030   */\n      0x00\n        /* \"#utility.yul\":3073:3075   */\n      0x60\n        /* \"#utility.yul\":3061:3070   */\n      dup5\n        /* \"#utility.yul\":3052:3059   */\n      dup7\n        /* \"#utility.yul\":3048:3071   */\n      sub\n        /* \"#utility.yul\":3044:3076   */\n      slt\n        /* \"#utility.yul\":3041:3160   */\n      iszero\n      tag_145\n      jumpi\n        /* \"#utility.yul\":3079:3158   */\n      tag_146\n      tag_69\n      jump\t// in\n    tag_146:\n        /* \"#utility.yul\":3041:3160   */\n    tag_145:\n        /* \"#utility.yul\":3227:3228   */\n      0x00\n        /* \"#utility.yul\":3216:3225   */\n      dup5\n        /* \"#utility.yul\":3212:3229   */\n      add\n        /* \"#utility.yul\":3199:3230   */\n      calldataload\n        /* \"#utility.yul\":3257:3275   */\n      0xffffffffffffffff\n        /* \"#utility.yul\":3249:3255   */\n      dup2\n        /* \"#utility.yul\":3246:3276   */\n      gt\n        /* \"#utility.yul\":3243:3360   */\n      iszero\n      tag_147\n      jumpi\n        /* \"#utility.yul\":3279:3358   */\n      tag_148\n      tag_70\n      jump\t// in\n    tag_148:\n        /* \"#utility.yul\":3243:3360   */\n    tag_147:\n        /* \"#utility.yul\":3384:3447   */\n      tag_149\n        /* \"#utility.yul\":3439:3446   */\n      dup7\n        /* \"#utility.yul\":3430:3436   */\n      dup3\n        /* \"#utility.yul\":3419:3428   */\n      dup8\n        /* \"#utility.yul\":3415:3437   */\n      add\n        /* \"#utility.yul\":3384:3447   */\n      tag_80\n      jump\t// in\n    tag_149:\n        /* \"#utility.yul\":3374:3447   */\n      swap4\n      pop\n        /* \"#utility.yul\":3170:3457   */\n      pop\n        /* \"#utility.yul\":3524:3526   */\n      0x20\n        /* \"#utility.yul\":3513:3522   */\n      dup5\n        /* \"#utility.yul\":3509:3527   */\n      add\n        /* \"#utility.yul\":3496:3528   */\n      calldataload\n        /* \"#utility.yul\":3555:3573   */\n      0xffffffffffffffff\n        /* \"#utility.yul\":3547:3553   */\n      dup2\n        /* \"#utility.yul\":3544:3574   */\n      gt\n        /* \"#utility.yul\":3541:3658   */\n      iszero\n      tag_150\n      jumpi\n        /* \"#utility.yul\":3577:3656   */\n      tag_151\n      tag_70\n      jump\t// in\n    tag_151:\n        /* \"#utility.yul\":3541:3658   */\n    tag_150:\n        /* \"#utility.yul\":3682:3745   */\n      tag_152\n        /* \"#utility.yul\":3737:3744   */\n      dup7\n        /* \"#utility.yul\":3728:3734   */\n      dup3\n        /* \"#utility.yul\":3717:3726   */\n      dup8\n        /* \"#utility.yul\":3713:3735   */\n      add\n        /* \"#utility.yul\":3682:3745   */\n      tag_80\n      jump\t// in\n    tag_152:\n        /* \"#utility.yul\":3672:3745   */\n      swap3\n      pop\n        /* \"#utility.yul\":3467:3755   */\n      pop\n        /* \"#utility.yul\":3794:3796   */\n      0x40\n        /* \"#utility.yul\":3820:3873   */\n      tag_153\n        /* \"#utility.yul\":3865:3872   */\n      dup7\n        /* \"#utility.yul\":3856:3862   */\n      dup3\n        /* \"#utility.yul\":3845:3854   */\n      dup8\n        /* \"#utility.yul\":3841:3863   */\n      add\n        /* \"#utility.yul\":3820:3873   */\n      tag_83\n      jump\t// in\n    tag_153:\n        /* \"#utility.yul\":3810:3873   */\n      swap2\n      pop\n        /* \"#utility.yul\":3765:3883   */\n      pop\n        /* \"#utility.yul\":2911:3890   */\n      swap3\n      pop\n      swap3\n      pop\n      swap3\n      jump\t// out\n        /* \"#utility.yul\":3896:4225   */\n    tag_13:\n        /* \"#utility.yul\":3955:3961   */\n      0x00\n        /* \"#utility.yul\":4004:4006   */\n      0x20\n        /* \"#utility.yul\":3992:4001   */\n      dup3\n        /* \"#utility.yul\":3983:3990   */\n      dup5\n        /* \"#utility.yul\":3979:4002   */\n      sub\n        /* \"#utility.yul\":3975:4007   */\n      slt\n        /* \"#utility.yul\":3972:4091   */\n      iszero\n      tag_155\n      jumpi\n        /* \"#utility.yul\":4010:4089   */\n      tag_156\n      tag_69\n      jump\t// in\n    tag_156:\n        /* \"#utility.yul\":3972:4091   */\n    tag_155:\n        /* \"#utility.yul\":4130:4131   */\n      0x00\n        /* \"#utility.yul\":4155:4208   */\n      tag_157\n        /* \"#utility.yul\":4200:4207   */\n      dup5\n        /* \"#utility.yul\":4191:4197   */\n      dup3\n        /* \"#utility.yul\":4180:4189   */\n      dup6\n        /* \"#utility.yul\":4176:4198   */\n      add\n        /* \"#utility.yul\":4155:4208   */\n      tag_83\n      jump\t// in\n    tag_157:\n        /* \"#utility.yul\":4145:4208   */\n      swap2\n      pop\n        /* \"#utility.yul\":4101:4218   */\n      pop\n        /* \"#utility.yul\":3896:4225   */\n      swap3\n      swap2\n      pop\n      pop\n      jump\t// out\n        /* \"#utility.yul\":4231:4330   */\n    tag_84:\n        /* \"#utility.yul\":4283:4289   */\n      0x00\n        /* \"#utility.yul\":4317:4322   */\n      dup2\n        /* \"#utility.yul\":4311:4323   */\n      mload\n        /* \"#utility.yul\":4301:4323   */\n      swap1\n      pop\n        /* \"#utility.yul\":4231:4330   */\n      swap2\n      swap1\n      pop\n      jump\t// out\n        /* \"#utility.yul\":4336:4505   */\n    tag_85:\n        /* \"#utility.yul\":4420:4431   */\n      0x00\n        /* \"#utility.yul\":4454:4460   */\n      dup3\n        /* \"#utility.yul\":4449:4452   */\n      dup3\n        /* \"#utility.yul\":4442:4461   */\n      mstore\n        /* \"#utility.yul\":4494:4498   */\n      0x20\n        /* \"#utility.yul\":4489:4492   */\n      dup3\n        /* \"#utility.yul\":4485:4499   */\n      add\n        /* \"#utility.yul\":4470:4499   */\n      swap1\n      pop\n        /* \"#utility.yul\":4336:4505   */\n      swap3\n      swap2\n      pop\n      pop\n      jump\t// out\n        /* \"#utility.yul\":4511:4650   */\n    tag_86:\n        /* \"#utility.yul\":4600:4606   */\n      dup3\n        /* \"#utility.yul\":4595:4598   */\n      dup2\n        /* \"#utility.yul\":4590:4593   */\n      dup4\n        /* \"#utility.yul\":4584:4607   */\n      mcopy\n        /* \"#utility.yul\":4641:4642   */\n      0x00\n        /* \"#utility.yul\":4632:4638   */\n      dup4\n        /* \"#utility.yul\":4627:4630   */\n      dup4\n        /* \"#utility.yul\":4623:4639   */\n      add\n        /* \"#utility.yul\":4616:4643   */\n      mstore\n        /* \"#utility.yul\":4511:4650   */\n      pop\n      pop\n      pop\n      jump\t// out\n        /* \"#utility.yul\":4656:5033   */\n    tag_87:\n        /* \"#utility.yul\":4744:4747   */\n      0x00\n        /* \"#utility.yul\":4772:4811   */\n      tag_162\n        /* \"#utility.yul\":4805:4810   */\n      dup3\n        /* \"#utility.yul\":4772:4811   */\n      tag_84\n      jump\t// in\n    tag_162:\n        /* \"#utility.yul\":4827:4898   */\n      tag_163\n        /* \"#utility.yul\":4891:4897   */\n      dup2\n        /* \"#utility.yul\":4886:4889   */\n      dup6\n        /* \"#utility.yul\":4827:4898   */\n      tag_85\n      jump\t// in\n    tag_163:\n        /* \"#utility.yul\":4820:4898   */\n      swap4\n      pop\n        /* \"#utility.yul\":4907:4972   */\n      tag_164\n        /* \"#utility.yul\":4965:4971   */\n      dup2\n        /* \"#utility.yul\":4960:4963   */\n      dup6\n        /* \"#utility.yul\":4953:4957   */\n      0x20\n        /* \"#utility.yul\":4946:4951   */\n      dup7\n        /* \"#utility.yul\":4942:4958   */\n      add\n        /* \"#utility.yul\":4907:4972   */\n      tag_86\n      jump\t// in\n    tag_164:\n        /* \"#utility.yul\":4997:5026   */\n      tag_165\n        /* \"#utility.yul\":5019:5025   */\n      dup2\n        /* \"#utility.yul\":4997:5026   */\n      tag_73\n      jump\t// in\n    tag_165:\n        /* \"#utility.yul\":4992:4995   */\n      dup5\n        /* \"#utility.yul\":4988:5027   */\n      add\n        /* \"#utility.yul\":4981:5027   */\n      swap2\n      pop\n        /* \"#utility.yul\":4748:5033   */\n      pop\n        /* \"#utility.yul\":4656:5033   */\n      swap3\n      swap2\n      pop\n      pop\n      jump\t// out\n        /* \"#utility.yul\":5039:5157   */\n    tag_88:\n        /* \"#utility.yul\":5126:5150   */\n      tag_167\n        /* \"#utility.yul\":5144:5149   */\n      dup2\n        /* \"#utility.yul\":5126:5150   */\n      tag_81\n      jump\t// in\n    tag_167:\n        /* \"#utility.yul\":5121:5124   */\n      dup3\n        /* \"#utility.yul\":5114:5151   */\n      mstore\n        /* \"#utility.yul\":5039:5157   */\n      pop\n      pop\n      jump\t// out\n        /* \"#utility.yul\":5163:5787   */\n    tag_16:\n        /* \"#utility.yul\":5352:5356   */\n      0x00\n        /* \"#utility.yul\":5390:5392   */\n      0x60\n        /* \"#utility.yul\":5379:5388   */\n      dup3\n        /* \"#utility.yul\":5375:5393   */\n      add\n        /* \"#utility.yul\":5367:5393   */\n      swap1\n      pop\n        /* \"#utility.yul\":5439:5448   */\n      dup2\n        /* \"#utility.yul\":5433:5437   */\n      dup2\n        /* \"#utility.yul\":5429:5449   */\n      sub\n        /* \"#utility.yul\":5425:5426   */\n      0x00\n        /* \"#utility.yul\":5414:5423   */\n      dup4\n        /* \"#utility.yul\":5410:5427   */\n      add\n        /* \"#utility.yul\":5403:5450   */\n      mstore\n        /* \"#utility.yul\":5467:5545   */\n      tag_169\n        /* \"#utility.yul\":5540:5544   */\n      dup2\n        /* \"#utility.yul\":5531:5537   */\n      dup7\n        /* \"#utility.yul\":5467:5545   */\n      tag_87\n      jump\t// in\n    tag_169:\n        /* \"#utility.yul\":5459:5545   */\n      swap1\n      pop\n        /* \"#utility.yul\":5592:5601   */\n      dup2\n        /* \"#utility.yul\":5586:5590   */\n      dup2\n        /* \"#utility.yul\":5582:5602   */\n      sub\n        /* \"#utility.yul\":5577:5579   */\n      0x20\n        /* \"#utility.yul\":5566:5575   */\n      dup4\n        /* \"#utility.yul\":5562:5580   */\n      add\n        /* \"#utility.yul\":5555:5603   */\n      mstore\n        /* \"#utility.yul\":5620:5698   */\n      tag_170\n        /* \"#utility.yul\":5693:5697   */\n      dup2\n        /* \"#utility.yul\":5684:5690   */\n      dup6\n        /* \"#utility.yul\":5620:5698   */\n      tag_87\n      jump\t// in\n    tag_170:\n        /* \"#utility.yul\":5612:5698   */\n      swap1\n      pop\n        /* \"#utility.yul\":5708:5780   */\n      tag_171\n        /* \"#utility.yul\":5776:5778   */\n      0x40\n        /* \"#utility.yul\":5765:5774   */\n      dup4\n        /* \"#utility.yul\":5761:5779   */\n      add\n        /* \"#utility.yul\":5752:5758   */\n      dup5\n        /* \"#utility.yul\":5708:5780   */\n      tag_88\n      jump\t// in\n    tag_171:\n        /* \"#utility.yul\":5163:5787   */\n      swap5\n      swap4\n      pop\n      pop\n      pop\n      pop\n      jump\t// out\n        /* \"#utility.yul\":5793:6918   */\n    tag_19:\n        /* \"#utility.yul\":5899:5905   */\n      0x00\n        /* \"#utility.yul\":5907:5913   */\n      dup1\n        /* \"#utility.yul\":5915:5921   */\n      0x00\n        /* \"#utility.yul\":5923:5929   */\n      dup1\n        /* \"#utility.yul\":5972:5975   */\n      0x80\n        /* \"#utility.yul\":5960:5969   */\n      dup6\n        /* \"#utility.yul\":5951:5958   */\n      dup8\n        /* \"#utility.yul\":5947:5970   */\n      sub\n        /* \"#utility.yul\":5943:5976   */\n      slt\n        /* \"#utility.yul\":5940:6060   */\n      iszero\n      tag_173\n      jumpi\n        /* \"#utility.yul\":5979:6058   */\n      tag_174\n      tag_69\n      jump\t// in\n    tag_174:\n        /* \"#utility.yul\":5940:6060   */\n    tag_173:\n        /* \"#utility.yul\":6099:6100   */\n      0x00\n        /* \"#utility.yul\":6124:6177   */\n      tag_175\n        /* \"#utility.yul\":6169:6176   */\n      dup8\n        /* \"#utility.yul\":6160:6166   */\n      dup3\n        /* \"#utility.yul\":6149:6158   */\n      dup9\n        /* \"#utility.yul\":6145:6167   */\n      add\n        /* \"#utility.yul\":6124:6177   */\n      tag_83\n      jump\t// in\n    tag_175:\n        /* \"#utility.yul\":6114:6177   */\n      swap5\n      pop\n        /* \"#utility.yul\":6070:6187   */\n      pop\n        /* \"#utility.yul\":6254:6256   */\n      0x20\n        /* \"#utility.yul\":6243:6252   */\n      dup6\n        /* \"#utility.yul\":6239:6257   */\n      add\n        /* \"#utility.yul\":6226:6258   */\n      calldataload\n        /* \"#utility.yul\":6285:6303   */\n      0xffffffffffffffff\n        /* \"#utility.yul\":6277:6283   */\n      dup2\n        /* \"#utility.yul\":6274:6304   */\n      gt\n        /* \"#utility.yul\":6271:6388   */\n      iszero\n      tag_176\n      jumpi\n        /* \"#utility.yul\":6307:6386   */\n      tag_177\n      tag_70\n      jump\t// in\n    tag_177:\n        /* \"#utility.yul\":6271:6388   */\n    tag_176:\n        /* \"#utility.yul\":6412:6475   */\n      tag_178\n        /* \"#utility.yul\":6467:6474   */\n      dup8\n        /* \"#utility.yul\":6458:6464   */\n      dup3\n        /* \"#utility.yul\":6447:6456   */\n      dup9\n        /* \"#utility.yul\":6443:6465   */\n      add\n        /* \"#utility.yul\":6412:6475   */\n      tag_80\n      jump\t// in\n    tag_178:\n        /* \"#utility.yul\":6402:6475   */\n      swap4\n      pop\n        /* \"#utility.yul\":6197:6485   */\n      pop\n        /* \"#utility.yul\":6552:6554   */\n      0x40\n        /* \"#utility.yul\":6541:6550   */\n      dup6\n        /* \"#utility.yul\":6537:6555   */\n      add\n        /* \"#utility.yul\":6524:6556   */\n      calldataload\n        /* \"#utility.yul\":6583:6601   */\n      0xffffffffffffffff\n        /* \"#utility.yul\":6575:6581   */\n      dup2\n        /* \"#utility.yul\":6572:6602   */\n      gt\n        /* \"#utility.yul\":6569:6686   */\n      iszero\n      tag_179\n      jumpi\n        /* \"#utility.yul\":6605:6684   */\n      tag_180\n      tag_70\n      jump\t// in\n    tag_180:\n        /* \"#utility.yul\":6569:6686   */\n    tag_179:\n        /* \"#utility.yul\":6710:6773   */\n      tag_181\n        /* \"#utility.yul\":6765:6772   */\n      dup8\n        /* \"#utility.yul\":6756:6762   */\n      dup3\n        /* \"#utility.yul\":6745:6754   */\n      dup9\n        /* \"#utility.yul\":6741:6763   */\n      add\n        /* \"#utility.yul\":6710:6773   */\n      tag_80\n      jump\t// in\n    tag_181:\n        /* \"#utility.yul\":6700:6773   */\n      swap3\n      pop\n        /* \"#utility.yul\":6495:6783   */\n      pop\n        /* \"#utility.yul\":6822:6824   */\n      0x60\n        /* \"#utility.yul\":6848:6901   */\n      tag_182\n        /* \"#utility.yul\":6893:6900   */\n      dup8\n        /* \"#utility.yul\":6884:6890   */\n      dup3\n        /* \"#utility.yul\":6873:6882   */\n      dup9\n        /* \"#utility.yul\":6869:6891   */\n      add\n        /* \"#utility.yul\":6848:6901   */\n      tag_83\n      jump\t// in\n    tag_182:\n        /* \"#utility.yul\":6838:6901   */\n      swap2\n      pop\n        /* \"#utility.yul\":6793:6911   */\n      pop\n        /* \"#utility.yul\":5793:6918   */\n      swap3\n      swap6\n      swap2\n      swap5\n      pop\n      swap3\n      pop\n      jump\t// out\n        /* \"#utility.yul\":6924:7104   */\n    tag_89:\n        /* \"#utility.yul\":6972:7049   */\n      0x4e487b7100000000000000000000000000000000000000000000000000000000\n        /* \"#utility.yul\":6969:6970   */\n      0x00\n        /* \"#utility.yul\":6962:7050   */\n      mstore\n        /* \"#utility.yul\":7069:7073   */\n      0x22\n        /* \"#utility.yul\":7066:7067   */\n      0x04\n        /* \"#utility.yul\":7059:7074   */\n      mstore\n        /* \"#utility.yul\":7093:7097   */\n      0x24\n        /* \"#utility.yul\":7090:7091   */\n      0x00\n        /* \"#utility.yul\":7083:7098   */\n      revert\n        /* \"#utility.yul\":7110:7430   */\n    tag_37:\n        /* \"#utility.yul\":7154:7160   */\n      0x00\n        /* \"#utility.yul\":7191:7192   */\n      0x02\n        /* \"#utility.yul\":7185:7189   */\n      dup3\n        /* \"#utility.yul\":7181:7193   */\n      div\n        /* \"#utility.yul\":7171:7193   */\n      swap1\n      pop\n        /* \"#utility.yul\":7238:7239   */\n      0x01\n        /* \"#utility.yul\":7232:7236   */\n      dup3\n        /* \"#utility.yul\":7228:7240   */\n      and\n        /* \"#utility.yul\":7259:7277   */\n      dup1\n        /* \"#utility.yul\":7249:7330   */\n      tag_185\n      jumpi\n        /* \"#utility.yul\":7315:7319   */\n      0x7f\n        /* \"#utility.yul\":7307:7313   */\n      dup3\n        /* \"#utility.yul\":7303:7320   */\n      and\n        /* \"#utility.yul\":7293:7320   */\n      swap2\n      pop\n        /* \"#utility.yul\":7249:7330   */\n    tag_185:\n        /* \"#utility.yul\":7377:7379   */\n      0x20\n        /* \"#utility.yul\":7369:7375   */\n      dup3\n        /* \"#utility.yul\":7366:7380   */\n      lt\n        /* \"#utility.yul\":7346:7364   */\n      dup2\n        /* \"#utility.yul\":7343:7381   */\n      sub\n        /* \"#utility.yul\":7340:7424   */\n      tag_186\n      jumpi\n        /* \"#utility.yul\":7396:7414   */\n      tag_187\n      tag_89\n      jump\t// in\n    tag_187:\n        /* \"#utility.yul\":7340:7424   */\n    tag_186:\n        /* \"#utility.yul\":7161:7430   */\n      pop\n        /* \"#utility.yul\":7110:7430   */\n      swap2\n      swap1\n      pop\n      jump\t// out\n        /* \"#utility.yul\":7436:7577   */\n    tag_90:\n        /* \"#utility.yul\":7485:7489   */\n      0x00\n        /* \"#utility.yul\":7508:7511   */\n      dup2\n        /* \"#utility.yul\":7500:7511   */\n      swap1\n      pop\n        /* \"#utility.yul\":7531:7534   */\n      dup2\n        /* \"#utility.yul\":7528:7529   */\n      0x00\n        /* \"#utility.yul\":7521:7535   */\n      mstore\n        /* \"#utility.yul\":7565:7569   */\n      0x20\n        /* \"#utility.yul\":7562:7563   */\n      0x00\n        /* \"#utility.yul\":7552:7570   */\n      keccak256\n        /* \"#utility.yul\":7544:7570   */\n      swap1\n      pop\n        /* \"#utility.yul\":7436:7577   */\n      swap2\n      swap1\n      pop\n      jump\t// out\n        /* \"#utility.yul\":7583:7676   */\n    tag_91:\n        /* \"#utility.yul\":7620:7626   */\n      0x00\n        /* \"#utility.yul\":7667:7669   */\n      0x20\n        /* \"#utility.yul\":7662:7664   */\n      0x1f\n        /* \"#utility.yul\":7655:7660   */\n      dup4\n        /* \"#utility.yul\":7651:7665   */\n      add\n        /* \"#utility.yul\":7647:7670   */\n      div\n        /* \"#utility.yul\":7637:7670   */\n      swap1\n      pop\n        /* \"#utility.yul\":7583:7676   */\n      swap2\n      swap1\n      pop\n      jump\t// out\n        /* \"#utility.yul\":7682:7789   */\n    tag_92:\n        /* \"#utility.yul\":7726:7734   */\n      0x00\n        /* \"#utility.yul\":7776:7781   */\n      dup3\n        /* \"#utility.yul\":7770:7774   */\n      dup3\n        /* \"#utility.yul\":7766:7782   */\n      shl\n        /* \"#utility.yul\":7745:7782   */\n      swap1\n      pop\n        /* \"#utility.yul\":7682:7789   */\n      swap3\n      swap2\n      pop\n      pop\n      jump\t// out\n        /* \"#utility.yul\":7795:8188   */\n    tag_93:\n        /* \"#utility.yul\":7864:7870   */\n      0x00\n        /* \"#utility.yul\":7914:7915   */\n      0x08\n        /* \"#utility.yul\":7902:7912   */\n      dup4\n        /* \"#utility.yul\":7898:7916   */\n      mul\n        /* \"#utility.yul\":7937:8034   */\n      tag_192\n        /* \"#utility.yul\":7967:8033   */\n      0xffffffffffffffffffffffffffffffffffffffffffffffffffffffffffffffff\n        /* \"#utility.yul\":7956:7965   */\n      dup3\n        /* \"#utility.yul\":7937:8034   */\n      tag_92\n      jump\t// in\n    tag_192:\n        /* \"#utility.yul\":8055:8094   */\n      tag_193\n        /* \"#utility.yul\":8085:8093   */\n      dup7\n        /* \"#utility.yul\":8074:8083   */\n      dup4\n        /* \"#utility.yul\":8055:8094   */\n      tag_92\n      jump\t// in\n    tag_193:\n        /* \"#utility.yul\":8043:8094   */\n      swap6\n      pop\n        /* \"#utility.yul\":8127:8131   */\n      dup1\n        /* \"#utility.yul\":8123:8132   */\n      not\n        /* \"#utility.yul\":8116:8121   */\n      dup5\n        /* \"#utility.yul\":8112:8133   */\n      and\n        /* \"#utility.yul\":8103:8133   */\n      swap4\n      pop\n        /* \"#utility.yul\":8176:8180   */\n      dup1\n        /* \"#utility.yul\":8166:8174   */\n      dup7\n        /* \"#utility.yul\":8162:8181   */\n      and\n        /* \"#utility.yul\":8155:8160   */\n      dup5\n        /* \"#utility.yul\":8152:8182   */\n      or\n        /* \"#utility.yul\":8142:8182   */\n      swap3\n      pop\n        /* \"#utility.yul\":7871:8188   */\n      pop\n      pop\n        /* \"#utility.yul\":7795:8188   */\n      swap4\n      swap3\n      pop\n      pop\n      pop\n      jump\t// out\n        /* \"#utility.yul\":8194:8254   */\n    tag_94:\n        /* \"#utility.yul\":8222:8225   */\n      0x00\n        /* \"#utility.yul\":8243:8248   */\n      dup2\n        /* \"#utility.yul\":8236:8248   */\n      swap1\n      pop\n        /* \"#utility.yul\":8194:8254   */\n      swap2\n      swap1\n      pop\n      jump\t// out\n        /* \"#utility.yul\":8260:8402   */\n    tag_95:\n        /* \"#utility.yul\":8310:8319   */\n      0x00\n        /* \"#utility.yul\":8343:8396   */\n      tag_196\n        /* \"#utility.yul\":8361:8395   */\n      tag_197\n        /* \"#utility.yul\":8370:8394   */\n      tag_198\n        /* \"#utility.yul\":8388:8393   */\n      dup5\n        /* \"#utility.yul\":8370:8394   */\n      tag_81\n      jump\t// in\n    tag_198:\n        /* \"#utility.yul\":8361:8395   */\n      tag_94\n      jump\t// in\n    tag_197:\n        /* \"#utility.yul\":8343:8396   */\n      tag_81\n      jump\t// in\n    tag_196:\n        /* \"#utility.yul\":8330:8396   */\n      swap1\n      pop\n        /* \"#utility.yul\":8260:8402   */\n      swap2\n      swap1\n      pop\n      jump\t// out\n        /* \"#utility.yul\":8408:8483   */\n    tag_96:\n        /* \"#utility.yul\":8451:8454   */\n      0x00\n        /* \"#utility.yul\":8472:8477   */\n      dup2\n        /* \"#utility.yul\":8465:8477   */\n      swap1\n      pop\n        /* \"#utility.yul\":8408:8483   */\n      swap2\n      swap1\n      pop\n      jump\t// out\n        /* \"#utility.yul\":8489:8758   */\n    tag_97:\n        /* \"#utility.yul\":8599:8638   */\n      tag_201\n        /* \"#utility.yul\":8630:8637   */\n      dup4\n        /* \"#utility.yul\":8599:8638   */\n      tag_95\n      jump\t// in\n    tag_201:\n        /* \"#utility.yul\":8660:8751   */\n      tag_202\n        /* \"#utility.yul\":8709:8750   */\n      tag_203\n        /* \"#utility.yul\":8733:8749   */\n      dup3\n        /* \"#utility.yul\":8709:8750   */\n      tag_96\n      jump\t// in\n    tag_203:\n        /* \"#utility.yul\":8701:8707   */\n      dup5\n        /* \"#utility.yul\":8694:8698   */\n      dup5\n        /* \"#utility.yul\":8688:8699   */\n      sload\n        /* \"#utility.yul\":8660:8751   */\n      tag_93\n      jump\t// in\n    tag_202:\n        /* \"#utility.yul\":8654:8658   */\n      dup3\n        /* \"#utility.yul\":8647:8752   */\n      sstore\n        /* \"#utility.yul\":8565:8758   */\n      pop\n        /* \"#utility.yul\":8489:8758   */\n      pop\n      pop\n      pop\n      jump\t// out\n        /* \"#utility.yul\":8764:8837   */\n    tag_98:\n        /* \"#utility.yul\":8809:8812   */\n      0x00\n        /* \"#utility.yul\":8764:8837   */\n      swap1\n      jump\t// out\n        /* \"#utility.yul\":8843:9032   */\n    tag_99:\n        /* \"#utility.yul\":8920:8952   */\n      tag_206\n      tag_98\n      jump\t// in\n    tag_206:\n        /* \"#utility.yul\":8961:9026   */\n      tag_207\n        /* \"#utility.yul\":9019:9025   */\n      dup2\n        /* \"#utility.yul\":9011:9017   */\n      dup5\n        /* \"#utility.yul\":9005:9009   */\n      dup5\n        /* \"#utility.yul\":8961:9026   */\n      tag_97\n      jump\t// in\n    tag_207:\n        /* \"#utility.yul\":8896:9032   */\n      pop\n        /* \"#utility.yul\":8843:9032   */\n      pop\n      pop\n      jump\t// out\n        /* \"#utility.yul\":9038:9224   */\n    tag_100:\n        /* \"#utility.yul\":9098:9218   */\n    tag_209:\n        /* \"#utility.yul\":9115:9118   */\n      dup2\n        /* \"#utility.yul\":9108:9113   */\n      dup2\n        /* \"#utility.yul\":9105:9119   */\n      lt\n        /* \"#utility.yul\":9098:9218   */\n      iszero\n      tag_211\n      jumpi\n        /* \"#utility.yul\":9169:9208   */\n      tag_212\n        /* \"#utility.yul\":9206:9207   */\n      0x00\n        /* \"#utility.yul\":9199:9204   */\n      dup3\n        /* \"#utility.yul\":9169:9208   */\n      tag_99\n      jump\t// in\n    tag_212:\n        /* \"#utility.yul\":9142:9143   */\n      0x01\n        /* \"#utility.yul\":9135:9140   */\n      dup2\n        /* \"#utility.yul\":9131:9144   */\n      add\n        /* \"#utility.yul\":9122:9144   */\n      swap1\n      pop\n        /* \"#utility.yul\":9098:9218   */\n      jump(tag_209)\n    tag_211:\n        /* \"#utility.yul\":9038:9224   */\n      pop\n      pop\n      jump\t// out\n        /* \"#utility.yul\":9230:9773   */\n    tag_101:\n        /* \"#utility.yul\":9331:9333   */\n      0x1f\n        /* \"#utility.yul\":9326:9329   */\n      dup3\n        /* \"#utility.yul\":9323:9334   */\n      gt\n        /* \"#utility.yul\":9320:9766   */\n      iszero\n      tag_214\n      jumpi\n        /* \"#utility.yul\":9365:9403   */\n      tag_215\n        /* \"#utility.yul\":9397:9402   */\n      dup2\n        /* \"#utility.yul\":9365:9403   */\n      tag_90\n      jump\t// in\n    tag_215:\n        /* \"#utility.yul\":9449:9478   */\n      tag_216\n        /* \"#utility.yul\":9467:9477   */\n      dup5\n        /* \"#utility.yul\":9449:9478   */\n      tag_91\n      jump\t// in\n    tag_216:\n        /* \"#utility.yul\":9439:9447   */\n      dup2\n        /* \"#utility.yul\":9435:9479   */\n      add\n        /* \"#utility.yul\":9632:9634   */\n      0x20\n        /* \"#utility.yul\":9620:9630   */\n      dup6\n        /* \"#utility.yul\":9617:9635   */\n      lt\n        /* \"#utility.yul\":9614:9663   */\n      iszero\n      tag_217\n      jumpi\n        /* \"#utility.yul\":9653:9661   */\n      dup2\n        /* \"#utility.yul\":9638:9661   */\n      swap1\n      pop\n        /* \"#utility.yul\":9614:9663   */\n    tag_217:\n        /* \"#utility.yul\":9676:9756   */\n      tag_218\n        /* \"#utility.yul\":9732:9754   */\n      tag_219\n        /* \"#utility.yul\":9750:9753   */\n      dup6\n        /* \"#utility.yul\":9732:9754   */\n      tag_91\n      jump\t// in\n    tag_219:\n        /* \"#utility.yul\":9722:9730   */\n      dup4\n        /* \"#utility.yul\":9718:9755   */\n      add\n        /* \"#utility.yul\":9705:9716   */\n      dup3\n        /* \"#utility.yul\":9676:9756   */\n      tag_100\n      jump\t// in\n    tag_218:\n        /* \"#utility.yul\":9335:9766   */\n      pop\n      pop\n        /* \"#utility.yul\":9320:9766   */\n    tag_214:\n        /* \"#utility.yul\":9230:9773   */\n      pop\n      pop\n      pop\n      jump\t// out\n        /* \"#utility.yul\":9779:9896   */\n    tag_102:\n        /* \"#utility.yul\":9833:9841   */\n      0x00\n        /* \"#utility.yul\":9883:9888   */\n      dup3\n        /* \"#utility.yul\":9877:9881   */\n      dup3\n        /* \"#utility.yul\":9873:9889   */\n      shr\n        /* \"#utility.yul\":9852:9889   */\n      swap1\n      pop\n        /* \"#utility.yul\":9779:9896   */\n      swap3\n      swap2\n      pop\n      pop\n      jump\t// out\n        /* \"#utility.yul\":9902:10071   */\n    tag_103:\n        /* \"#utility.yul\":9946:9952   */\n      0x00\n        /* \"#utility.yul\":9979:10030   */\n      tag_222\n        /* \"#utility.yul\":10027:10028   */\n      0x00\n        /* \"#utility.yul\":10023:10029   */\n      not\n        /* \"#utility.yul\":10015:10020   */\n      dup5\n        /* \"#utility.yul\":10012:10013   */\n      0x08\n        /* \"#utility.yul\":10008:10021   */\n      mul\n        /* \"#utility.yul\":9979:10030   */\n      tag_102\n      jump\t// in\n    tag_222:\n        /* \"#utility.yul\":9975:10031   */\n      not\n        /* \"#utility.yul\":10060:10064   */\n      dup1\n        /* \"#utility.yul\":10054:10058   */\n      dup4\n        /* \"#utility.yul\":10050:10065   */\n      and\n        /* \"#utility.yul\":10040:10065   */\n      swap2\n      pop\n        /* \"#utility.yul\":9953:10071   */\n      pop\n        /* \"#utility.yul\":9902:10071   */\n      swap3\n      swap2\n      pop\n      pop\n      jump\t// out\n        /* \"#utility.yul\":10076:10371   */\n    tag_104:\n        /* \"#utility.yul\":10152:10156   */\n      0x00\n        /* \"#utility.yul\":10298:10327   */\n      tag_224\n        /* \"#utility.yul\":10323:10326   */\n      dup4\n        /* \"#utility.yul\":10317:10321   */\n      dup4\n        /* \"#utility.yul\":10298:10327   */\n      tag_103\n      jump\t// in\n    tag_224:\n        /* \"#utility.yul\":10290:10327   */\n      swap2\n      pop\n        /* \"#utility.yul\":10360:10363   */\n      dup3\n        /* \"#utility.yul\":10357:10358   */\n      0x02\n        /* \"#utility.yul\":10353:10364   */\n      mul\n        /* \"#utility.yul\":10347:10351   */\n      dup3\n        /* \"#utility.yul\":10344:10365   */\n      or\n        /* \"#utility.yul\":10336:10365   */\n      swap1\n      pop\n        /* \"#utility.yul\":10076:10371   */\n      swap3\n      swap2\n      pop\n      pop\n      jump\t// out\n        /* \"#utility.yul\":10376:11771   */\n    tag_26:\n        /* \"#utility.yul\":10493:10530   */\n      tag_226\n        /* \"#utility.yul\":10526:10529   */\n      dup3\n        /* \"#utility.yul\":10493:10530   */\n      tag_84\n      jump\t// in\n    tag_226:\n        /* \"#utility.yul\":10595:10613   */\n      0xffffffffffffffff\n        /* \"#utility.yul\":10587:10593   */\n      dup2\n        /* \"#utility.yul\":10584:10614   */\n      gt\n        /* \"#utility.yul\":10581:10637   */\n      iszero\n      tag_227\n      jumpi\n        /* \"#utility.yul\":10617:10635   */\n      tag_228\n      tag_74\n      jump\t// in\n    tag_228:\n        /* \"#utility.yul\":10581:10637   */\n    tag_227:\n        /* \"#utility.yul\":10661:10699   */\n      tag_229\n        /* \"#utility.yul\":10693:10697   */\n      dup3\n        /* \"#utility.yul\":10687:10698   */\n      sload\n        /* \"#utility.yul\":10661:10699   */\n      tag_37\n      jump\t// in\n    tag_229:\n        /* \"#utility.yul\":10746:10813   */\n      tag_230\n        /* \"#utility.yul\":10806:10812   */\n      dup3\n        /* \"#utility.yul\":10798:10804   */\n      dup3\n        /* \"#utility.yul\":10792:10796   */\n      dup6\n        /* \"#utility.yul\":10746:10813   */\n      tag_101\n      jump\t// in\n    tag_230:\n        /* \"#utility.yul\":10840:10841   */\n      0x00\n        /* \"#utility.yul\":10864:10868   */\n      0x20\n        /* \"#utility.yul\":10851:10868   */\n      swap1\n      pop\n        /* \"#utility.yul\":10896:10898   */\n      0x1f\n        /* \"#utility.yul\":10888:10894   */\n      dup4\n        /* \"#utility.yul\":10885:10899   */\n      gt\n        /* \"#utility.yul\":10913:10914   */\n      0x01\n        /* \"#utility.yul\":10908:11526   */\n      dup2\n      eq\n      tag_232\n      jumpi\n        /* \"#utility.yul\":11570:11571   */\n      0x00\n        /* \"#utility.yul\":11587:11593   */\n      dup5\n        /* \"#utility.yul\":11584:11661   */\n      iszero\n      tag_233\n      jumpi\n        /* \"#utility.yul\":11636:11645   */\n      dup3\n        /* \"#utility.yul\":11631:11634   */\n      dup8\n        /* \"#utility.yul\":11627:11646   */\n      add\n        /* \"#utility.yul\":11621:11647   */\n      mload\n        /* \"#utility.yul\":11612:11647   */\n      swap1\n      pop\n        /* \"#utility.yul\":11584:11661   */\n    tag_233:\n        /* \"#utility.yul\":11687:11754   */\n      tag_234\n        /* \"#utility.yul\":11747:11753   */\n      dup6\n        /* \"#utility.yul\":11740:11745   */\n      dup3\n        /* \"#utility.yul\":11687:11754   */\n      tag_104\n      jump\t// in\n    tag_234:\n        /* \"#utility.yul\":11681:11685   */\n      dup7\n        /* \"#utility.yul\":11674:11755   */\n      sstore\n        /* \"#utility.yul\":11543:11765   */\n      pop\n        /* \"#utility.yul\":10878:11765   */\n      jump(tag_231)\n        /* \"#utility.yul\":10908:11526   */\n    tag_232:\n        /* \"#utility.yul\":10960:10964   */\n      0x1f\n        /* \"#utility.yul\":10956:10965   */\n      not\n        /* \"#utility.yul\":10948:10954   */\n      dup5\n        /* \"#utility.yul\":10944:10966   */\n      and\n        /* \"#utility.yul\":10994:11031   */\n      tag_235\n        /* \"#utility.yul\":11026:11030   */\n      dup7\n        /* \"#utility.yul\":10994:11031   */\n      tag_90\n      jump\t// in\n    tag_235:\n        /* \"#utility.yul\":11053:11054   */\n      0x00\n        /* \"#utility.yul\":11067:11275   */\n    tag_236:\n        /* \"#utility.yul\":11081:11088   */\n      dup3\n        /* \"#utility.yul\":11078:11079   */\n      dup2\n        /* \"#utility.yul\":11075:11089   */\n      lt\n        /* \"#utility.yul\":11067:11275   */\n      iszero\n      tag_238\n      jumpi\n        /* \"#utility.yul\":11160:11169   */\n      dup5\n        /* \"#utility.yul\":11155:11158   */\n      dup10\n        /* \"#utility.yul\":11151:11170   */\n      add\n        /* \"#utility.yul\":11145:11171   */\n      mload\n        /* \"#utility.yul\":11137:11143   */\n      dup3\n        /* \"#utility.yul\":11130:11172   */\n      sstore\n        /* \"#utility.yul\":11211:11212   */\n      0x01\n        /* \"#utility.yul\":11203:11209   */\n      dup3\n        /* \"#utility.yul\":11199:11213   */\n      add\n        /* \"#utility.yul\":11189:11213   */\n      swap2\n      pop\n        /* \"#utility.yul\":11258:11260   */\n      0x20\n        /* \"#utility.yul\":11247:11256   */\n      dup6\n        /* \"#utility.yul\":11243:11261   */\n      add\n        /* \"#utility.yul\":11230:11261   */\n      swap5\n      pop\n        /* \"#utility.yul\":11104:11108   */\n      0x20\n        /* \"#utility.yul\":11101:11102   */\n      dup2\n        /* \"#utility.yul\":11097:11109   */\n      add\n        /* \"#utility.yul\":11092:11109   */\n      swap1\n      pop\n        /* \"#utility.yul\":11067:11275   */\n      jump(tag_236)\n    tag_238:\n        /* \"#utility.yul\":11303:11309   */\n      dup7\n        /* \"#utility.yul\":11294:11301   */\n      dup4\n        /* \"#utility.yul\":11291:11310   */\n      lt\n        /* \"#utility.yul\":11288:11467   */\n      iszero\n      tag_239\n      jumpi\n        /* \"#utility.yul\":11361:11370   */\n      dup5\n        /* \"#utility.yul\":11356:11359   */\n      dup10\n        /* \"#utility.yul\":11352:11371   */\n      add\n        /* \"#utility.yul\":11346:11372   */\n      mload\n        /* \"#utility.yul\":11404:11452   */\n      tag_240\n        /* \"#utility.yul\":11446:11450   */\n      0x1f\n        /* \"#utility.yul\":11438:11444   */\n      dup10\n        /* \"#utility.yul\":11434:11451   */\n      and\n        /* \"#utility.yul\":11423:11432   */\n      dup3\n        /* \"#utility.yul\":11404:11452   */\n      tag_103\n      jump\t// in\n    tag_240:\n        /* \"#utility.yul\":11396:11402   */\n      dup4\n        /* \"#utility.yul\":11389:11453   */\n      sstore\n        /* \"#utility.yul\":11311:11467   */\n      pop\n        /* \"#utility.yul\":11288:11467   */\n    tag_239:\n        /* \"#utility.yul\":11513:11514   */\n      0x01\n        /* \"#utility.yul\":11509:11510   */\n      0x02\n        /* \"#utility.yul\":11501:11507   */\n      dup9\n        /* \"#utility.yul\":11497:11511   */\n      mul\n        /* \"#utility.yul\":11493:11515   */\n      add\n        /* \"#utility.yul\":11487:11491   */\n      dup9\n        /* \"#utility.yul\":11480:11516   */\n      sstore\n        /* \"#utility.yul\":10915:11526   */\n      pop\n      pop\n      pop\n        /* \"#utility.yul\":10878:11765   */\n    tag_231:\n      pop\n        /* \"#utility.yul\":10468:11771   */\n      pop\n      pop\n      pop\n        /* \"#utility.yul\":10376:11771   */\n      pop\n      pop\n      jump\t// out\n        /* \"#utility.yul\":11777:12200   */\n    tag_29:\n        /* \"#utility.yul\":11918:11922   */\n      0x00\n        /* \"#utility.yul\":11956:11958   */\n      0x40\n        /* \"#utility.yul\":11945:11954   */\n      dup3\n        /* \"#utility.yul\":11941:11959   */\n      add\n        /* \"#utility.yul\":11933:11959   */\n      swap1\n      pop\n        /* \"#utility.yul\":11969:12040   */\n      tag_242\n        /* \"#utility.yul\":12037:12038   */\n      0x00\n        /* \"#utility.yul\":12026:12035   */\n      dup4\n        /* \"#utility.yul\":12022:12039   */\n      add\n        /* \"#utility.yul\":12013:12019   */\n      dup6\n        /* \"#utility.yul\":11969:12040   */\n      tag_88\n      jump\t// in\n    tag_242:\n        /* \"#utility.yul\":12087:12096   */\n      dup2\n        /* \"#utility.yul\":12081:12085   */\n      dup2\n        /* \"#utility.yul\":12077:12097   */\n      sub\n        /* \"#utility.yul\":12072:12074   */\n      0x20\n        /* \"#utility.yul\":12061:12070   */\n      dup4\n        /* \"#utility.yul\":12057:12075   */\n      add\n        /* \"#utility.yul\":12050:12098   */\n      mstore\n        /* \"#utility.yul\":12115:12193   */\n      tag_243\n        /* \"#utility.yul\":12188:12192   */\n      dup2\n        /* \"#utility.yul\":12179:12185   */\n      dup5\n        /* \"#utility.yul\":12115:12193   */\n      tag_87\n      jump\t// in\n    tag_243:\n        /* \"#utility.yul\":12107:12193   */\n      swap1\n      pop\n        /* \"#utility.yul\":11777:12200   */\n      swap4\n      swap3\n      pop\n      pop\n      pop\n      jump\t// out\n        /* \"#utility.yul\":12206:12386   */\n    tag_105:\n        /* \"#utility.yul\":12254:12331   */\n      0x4e487b7100000000000000000000000000000000000000000000000000000000\n        /* \"#utility.yul\":12251:12252   */\n      0x00\n        /* \"#utility.yul\":12244:12332   */\n      mstore\n        /* \"#utility.yul\":12351:12355   */\n      0x11\n        /* \"#utility.yul\":12348:12349   */\n      0x04\n        /* \"#utility.yul\":12341:12356   */\n      mstore\n        /* \"#utility.yul\":12375:12379   */\n      0x24\n        /* \"#utility.yul\":12372:12373   */\n      0x00\n        /* \"#utility.yul\":12365:12380   */\n      revert\n        /* \"#utility.yul\":12392:12625   */\n    tag_31:\n        /* \"#utility.yul\":12431:12434   */\n      0x00\n        /* \"#utility.yul\":12454:12478   */\n      tag_246\n        /* \"#utility.yul\":12472:12477   */\n      dup3\n        /* \"#utility.yul\":12454:12478   */\n      tag_81\n      jump\t// in\n    tag_246:\n        /* \"#utility.yul\":12445:12478   */\n      swap2\n      pop\n        /* \"#utility.yul\":12500:12566   */\n      0xffffffffffffffffffffffffffffffffffffffffffffffffffffffffffffffff\n        /* \"#utility.yul\":12493:12498   */\n      dup3\n        /* \"#utility.yul\":12490:12567   */\n      sub\n        /* \"#utility.yul\":12487:12590   */\n      tag_247\n      jumpi\n        /* \"#utility.yul\":12570:12588   */\n      tag_248\n      tag_105\n      jump\t// in\n    tag_248:\n        /* \"#utility.yul\":12487:12590   */\n    tag_247:\n        /* \"#utility.yul\":12617:12618   */\n      0x01\n        /* \"#utility.yul\":12610:12615   */\n      dup3\n        /* \"#utility.yul\":12606:12619   */\n      add\n        /* \"#utility.yul\":12599:12619   */\n      swap1\n      pop\n        /* \"#utility.yul\":12392:12625   */\n      swap2\n      swap1\n      pop\n      jump\t// out\n        /* \"#utility.yul\":12631:12797   */\n    tag_106:\n        /* \"#utility.yul\":12771:12789   */\n      0x4576656e746f206e6f2065786973746500000000000000000000000000000000\n        /* \"#utility.yul\":12767:12768   */\n      0x00\n        /* \"#utility.yul\":12759:12765   */\n      dup3\n        /* \"#utility.yul\":12755:12769   */\n      add\n        /* \"#utility.yul\":12748:12790   */\n      mstore\n        /* \"#utility.yul\":12631:12797   */\n      pop\n      jump\t// out\n        /* \"#utility.yul\":12803:13169   */\n    tag_107:\n        /* \"#utility.yul\":12945:12948   */\n      0x00\n        /* \"#utility.yul\":12966:13033   */\n      tag_251\n        /* \"#utility.yul\":13030:13032   */\n      0x10\n        /* \"#utility.yul\":13025:13028   */\n      dup4\n        /* \"#utility.yul\":12966:13033   */\n      tag_85\n      jump\t// in\n    tag_251:\n        /* \"#utility.yul\":12959:13033   */\n      swap2\n      pop\n        /* \"#utility.yul\":13042:13135   */\n      tag_252\n        /* \"#utility.yul\":13131:13134   */\n      dup3\n        /* \"#utility.yul\":13042:13135   */\n      tag_106\n      jump\t// in\n    tag_252:\n        /* \"#utility.yul\":13160:13162   */\n      0x20\n        /* \"#utility.yul\":13155:13158   */\n      dup3\n        /* \"#utility.yul\":13151:13163   */\n      add\n        /* \"#utility.yul\":13144:13163   */\n      swap1\n      pop\n        /* \"#utility.yul\":12803:13169   */\n      swap2\n      swap1\n      pop\n      jump\t// out\n        /* \"#utility.yul\":13175:13594   */\n    tag_35:\n        /* \"#utility.yul\":13341:13345   */\n      0x00\n        /* \"#utility.yul\":13379:13381   */\n      0x20\n        /* \"#utility.yul\":13368:13377   */\n      dup3\n        /* \"#utility.yul\":13364:13382   */\n      add\n        /* \"#utility.yul\":13356:13382   */\n      swap1\n      pop\n        /* \"#utility.yul\":13428:13437   */\n      dup2\n        /* \"#utility.yul\":13422:13426   */\n      dup2\n        /* \"#utility.yul\":13418:13438   */\n      sub\n        /* \"#utility.yul\":13414:13415   */\n      0x00\n        /* \"#utility.yul\":13403:13412   */\n      dup4\n        /* \"#utility.yul\":13399:13416   */\n      add\n        /* \"#utility.yul\":13392:13439   */\n      mstore\n        /* \"#utility.yul\":13456:13587   */\n      tag_254\n        /* \"#utility.yul\":13582:13586   */\n      dup2\n        /* \"#utility.yul\":13456:13587   */\n      tag_107\n      jump\t// in\n    tag_254:\n        /* \"#utility.yul\":13448:13587   */\n      swap1\n      pop\n        /* \"#utility.yul\":13175:13594   */\n      swap2\n      swap1\n      pop\n      jump\t// out\n        /* \"#utility.yul\":13600:13822   */\n    tag_60:\n        /* \"#utility.yul\":13693:13697   */\n      0x00\n        /* \"#utility.yul\":13731:13733   */\n      0x20\n        /* \"#utility.yul\":13720:13729   */\n      dup3\n        /* \"#utility.yul\":13716:13734   */\n      add\n        /* \"#utility.yul\":13708:13734   */\n      swap1\n      pop\n        /* \"#utility.yul\":13744:13815   */\n      tag_256\n        /* \"#utility.yul\":13812:13813   */\n      0x00\n        /* \"#utility.yul\":13801:13810   */\n      dup4\n        /* \"#utility.yul\":13797:13814   */\n      add\n        /* \"#utility.yul\":13788:13794   */\n      dup5\n        /* \"#utility.yul\":13744:13815   */\n      tag_88\n      jump\t// in\n    tag_256:\n        /* \"#utility.yul\":13600:13822   */\n      swap3\n      swap2\n      pop\n      pop\n      jump\t// out\n\n    auxdata: 0xa2646970667358221220bea8ee42c1da860ef4d1ede8584f651ef124cc8ffabf63202a06440a34420a8764736f6c634300081a0033\n}\n",
				"bytecode": {
					"linkReferences": {},
					"object": "6080604052348015600e575f80fd5b50610ff48061001c5f395ff3fe608060405234801561000f575f80fd5b506004361061004a575f3560e01c80635555fe171461004e5780636d1884e01461006a57806397116bca1461009c578063f8749a58146100b8575b5f80fd5b610068600480360381019061006391906109d1565b6100d4565b005b610084600480360381019061007f9190610a59565b6102ba565b60405161009393929190610af3565b60405180910390f35b6100b660048036038101906100b19190610b36565b6104d4565b005b6100d260048036038101906100cd9190610a59565b610689565b005b6040518060800160405280848152602001838152602001828152602001600115158152505f803373ffffffffffffffffffffffffffffffffffffffff1673ffffffffffffffffffffffffffffffffffffffff1681526020019081526020015f205f60015f3373ffffffffffffffffffffffffffffffffffffffff1673ffffffffffffffffffffffffffffffffffffffff1681526020019081526020015f205481526020019081526020015f205f820151815f0190816101939190610dcc565b5060208201518160010190816101a99190610dcc565b50604082015181600201556060820151816003015f6101000a81548160ff0219169083151502179055509050503373ffffffffffffffffffffffffffffffffffffffff167f2d6b28a8aa465ea8ef959ffa368300fb581a01072a789f5dafb1a34f97125b0060015f3373ffffffffffffffffffffffffffffffffffffffff1673ffffffffffffffffffffffffffffffffffffffff1681526020019081526020015f20548560405161025b929190610e9b565b60405180910390a260015f3373ffffffffffffffffffffffffffffffffffffffff1673ffffffffffffffffffffffffffffffffffffffff1681526020019081526020015f205f8154809291906102b090610ef6565b9190505550505050565b6060805f805f3373ffffffffffffffffffffffffffffffffffffffff1673ffffffffffffffffffffffffffffffffffffffff1681526020019081526020015f205f8581526020019081526020015f206003015f9054906101000a900460ff16610358576040517f08c379a000000000000000000000000000000000000000000000000000000000815260040161034f90610f87565b60405180910390fd5b5f805f3373ffffffffffffffffffffffffffffffffffffffff1673ffffffffffffffffffffffffffffffffffffffff1681526020019081526020015f205f8681526020019081526020015f209050805f018160010182600201548280546103be90610bff565b80601f01602080910402602001604051908101604052809291908181526020018280546103ea90610bff565b80156104355780601f1061040c57610100808354040283529160200191610435565b820191905f5260205f20905b81548152906001019060200180831161041857829003601f168201915b5050505050925081805461044890610bff565b80601f016020809104026020016040519081016040528092919081815260200182805461047490610bff565b80156104bf5780601f10610496576101008083540402835291602001916104bf565b820191905f5260205f20905b8154815290600101906020018083116104a257829003601f168201915b50505050509150935093509350509193909250565b5f803373ffffffffffffffffffffffffffffffffffffffff1673ffffffffffffffffffffffffffffffffffffffff1681526020019081526020015f205f8581526020019081526020015f206003015f9054906101000a900460ff1661056e576040517f08c379a000000000000000000000000000000000000000000000000000000000815260040161056590610f87565b60405180910390fd5b6040518060800160405280848152602001838152602001828152602001600115158152505f803373ffffffffffffffffffffffffffffffffffffffff1673ffffffffffffffffffffffffffffffffffffffff1681526020019081526020015f205f8681526020019081526020015f205f820151815f0190816105f09190610dcc565b5060208201518160010190816106069190610dcc565b50604082015181600201556060820151816003015f6101000a81548160ff0219169083151502179055509050503373ffffffffffffffffffffffffffffffffffffffff167f580f21ba5ac386015e66e7cafbca44f69f33ac115522371f34ff2cee5a0efd22858560405161067b929190610e9b565b60405180910390a250505050565b5f803373ffffffffffffffffffffffffffffffffffffffff1673ffffffffffffffffffffffffffffffffffffffff1681526020019081526020015f205f8281526020019081526020015f206003015f9054906101000a900460ff16610723576040517f08c379a000000000000000000000000000000000000000000000000000000000815260040161071a90610f87565b60405180910390fd5b5f803373ffffffffffffffffffffffffffffffffffffffff1673ffffffffffffffffffffffffffffffffffffffff1681526020019081526020015f205f8281526020019081526020015f205f8082015f61077d91906107f9565b600182015f61078c91906107f9565b600282015f9055600382015f6101000a81549060ff021916905550503373ffffffffffffffffffffffffffffffffffffffff167f485a32ab922f212c1c1ef5f52f142ca88fdba8cf46d8dfcda744922c234fb448826040516107ee9190610fa5565b60405180910390a250565b50805461080590610bff565b5f825580601f106108165750610833565b601f0160209004905f5260205f20908101906108329190610836565b5b50565b5b8082111561084d575f815f905550600101610837565b5090565b5f604051905090565b5f80fd5b5f80fd5b5f80fd5b5f80fd5b5f601f19601f8301169050919050565b7f4e487b71000000000000000000000000000000000000000000000000000000005f52604160045260245ffd5b6108b08261086a565b810181811067ffffffffffffffff821117156108cf576108ce61087a565b5b80604052505050565b5f6108e1610851565b90506108ed82826108a7565b919050565b5f67ffffffffffffffff82111561090c5761090b61087a565b5b6109158261086a565b9050602081019050919050565b828183375f83830152505050565b5f61094261093d846108f2565b6108d8565b90508281526020810184848401111561095e5761095d610866565b5b610969848285610922565b509392505050565b5f82601f83011261098557610984610862565b5b8135610995848260208601610930565b91505092915050565b5f819050919050565b6109b08161099e565b81146109ba575f80fd5b50565b5f813590506109cb816109a7565b92915050565b5f805f606084860312156109e8576109e761085a565b5b5f84013567ffffffffffffffff811115610a0557610a0461085e565b5b610a1186828701610971565b935050602084013567ffffffffffffffff811115610a3257610a3161085e565b5b610a3e86828701610971565b9250506040610a4f868287016109bd565b9150509250925092565b5f60208284031215610a6e57610a6d61085a565b5b5f610a7b848285016109bd565b91505092915050565b5f81519050919050565b5f82825260208201905092915050565b8281835e5f83830152505050565b5f610ab682610a84565b610ac08185610a8e565b9350610ad0818560208601610a9e565b610ad98161086a565b840191505092915050565b610aed8161099e565b82525050565b5f6060820190508181035f830152610b0b8186610aac565b90508181036020830152610b1f8185610aac565b9050610b2e6040830184610ae4565b949350505050565b5f805f8060808587031215610b4e57610b4d61085a565b5b5f610b5b878288016109bd565b945050602085013567ffffffffffffffff811115610b7c57610b7b61085e565b5b610b8887828801610971565b935050604085013567ffffffffffffffff811115610ba957610ba861085e565b5b610bb587828801610971565b9250506060610bc6878288016109bd565b91505092959194509250565b7f4e487b71000000000000000000000000000000000000000000000000000000005f52602260045260245ffd5b5f6002820490506001821680610c1657607f821691505b602082108103610c2957610c28610bd2565b5b50919050565b5f819050815f5260205f209050919050565b5f6020601f8301049050919050565b5f82821b905092915050565b5f60088302610c8b7fffffffffffffffffffffffffffffffffffffffffffffffffffffffffffffffff82610c50565b610c958683610c50565b95508019841693508086168417925050509392505050565b5f819050919050565b5f610cd0610ccb610cc68461099e565b610cad565b61099e565b9050919050565b5f819050919050565b610ce983610cb6565b610cfd610cf582610cd7565b848454610c5c565b825550505050565b5f90565b610d11610d05565b610d1c818484610ce0565b505050565b5b81811015610d3f57610d345f82610d09565b600181019050610d22565b5050565b601f821115610d8457610d5581610c2f565b610d5e84610c41565b81016020851015610d6d578190505b610d81610d7985610c41565b830182610d21565b50505b505050565b5f82821c905092915050565b5f610da45f1984600802610d89565b1980831691505092915050565b5f610dbc8383610d95565b9150826002028217905092915050565b610dd582610a84565b67ffffffffffffffff811115610dee57610ded61087a565b5b610df88254610bff565b610e03828285610d43565b5f60209050601f831160018114610e34575f8415610e22578287015190505b610e2c8582610db1565b865550610e93565b601f198416610e4286610c2f565b5f5b82811015610e6957848901518255600182019150602085019450602081019050610e44565b86831015610e865784890151610e82601f891682610d95565b8355505b6001600288020188555050505b505050505050565b5f604082019050610eae5f830185610ae4565b8181036020830152610ec08184610aac565b90509392505050565b7f4e487b71000000000000000000000000000000000000000000000000000000005f52601160045260245ffd5b5f610f008261099e565b91507fffffffffffffffffffffffffffffffffffffffffffffffffffffffffffffffff8203610f3257610f31610ec9565b5b600182019050919050565b7f4576656e746f206e6f20657869737465000000000000000000000000000000005f82015250565b5f610f71601083610a8e565b9150610f7c82610f3d565b602082019050919050565b5f6020820190508181035f830152610f9e81610f65565b9050919050565b5f602082019050610fb85f830184610ae4565b9291505056fea2646970667358221220bea8ee42c1da860ef4d1ede8584f651ef124cc8ffabf63202a06440a34420a8764736f6c634300081a0033",
					"opcodes": "PUSH1 0x80 PUSH1 0x40 MSTORE CALLVALUE DUP1 ISZERO PUSH1 0xE JUMPI PUSH0 DUP1 REVERT JUMPDEST POP PUSH2 0xFF4 DUP1 PUSH2 0x1C PUSH0 CODECOPY PUSH0 RETURN INVALID PUSH1 0x80 PUSH1 0x40 MSTORE CALLVALUE DUP1 ISZERO PUSH2 0xF JUMPI PUSH0 DUP1 REVERT JUMPDEST POP PUSH1 0x4 CALLDATASIZE LT PUSH2 0x4A JUMPI PUSH0 CALLDATALOAD PUSH1 0xE0 SHR DUP1 PUSH4 0x5555FE17 EQ PUSH2 0x4E JUMPI DUP1 PUSH4 0x6D1884E0 EQ PUSH2 0x6A JUMPI DUP1 PUSH4 0x97116BCA EQ PUSH2 0x9C JUMPI DUP1 PUSH4 0xF8749A58 EQ PUSH2 0xB8 JUMPI JUMPDEST PUSH0 DUP1 REVERT JUMPDEST PUSH2 0x68 PUSH1 0x4 DUP1 CALLDATASIZE SUB DUP2 ADD SWAP1 PUSH2 0x63 SWAP2 SWAP1 PUSH2 0x9D1 JUMP JUMPDEST PUSH2 0xD4 JUMP JUMPDEST STOP JUMPDEST PUSH2 0x84 PUSH1 0x4 DUP1 CALLDATASIZE SUB DUP2 ADD SWAP1 PUSH2 0x7F SWAP2 SWAP1 PUSH2 0xA59 JUMP JUMPDEST PUSH2 0x2BA JUMP JUMPDEST PUSH1 0x40 MLOAD PUSH2 0x93 SWAP4 SWAP3 SWAP2 SWAP1 PUSH2 0xAF3 JUMP JUMPDEST PUSH1 0x40 MLOAD DUP1 SWAP2 SUB SWAP1 RETURN JUMPDEST PUSH2 0xB6 PUSH1 0x4 DUP1 CALLDATASIZE SUB DUP2 ADD SWAP1 PUSH2 0xB1 SWAP2 SWAP1 PUSH2 0xB36 JUMP JUMPDEST PUSH2 0x4D4 JUMP JUMPDEST STOP JUMPDEST PUSH2 0xD2 PUSH1 0x4 DUP1 CALLDATASIZE SUB DUP2 ADD SWAP1 PUSH2 0xCD SWAP2 SWAP1 PUSH2 0xA59 JUMP JUMPDEST PUSH2 0x689 JUMP JUMPDEST STOP JUMPDEST PUSH1 0x40 MLOAD DUP1 PUSH1 0x80 ADD PUSH1 0x40 MSTORE DUP1 DUP5 DUP2 MSTORE PUSH1 0x20 ADD DUP4 DUP2 MSTORE PUSH1 0x20 ADD DUP3 DUP2 MSTORE PUSH1 0x20 ADD PUSH1 0x1 ISZERO ISZERO DUP2 MSTORE POP PUSH0 DUP1 CALLER PUSH20 0xFFFFFFFFFFFFFFFFFFFFFFFFFFFFFFFFFFFFFFFF AND PUSH20 0xFFFFFFFFFFFFFFFFFFFFFFFFFFFFFFFFFFFFFFFF AND DUP2 MSTORE PUSH1 0x20 ADD SWAP1 DUP2 MSTORE PUSH1 0x20 ADD PUSH0 KECCAK256 PUSH0 PUSH1 0x1 PUSH0 CALLER PUSH20 0xFFFFFFFFFFFFFFFFFFFFFFFFFFFFFFFFFFFFFFFF AND PUSH20 0xFFFFFFFFFFFFFFFFFFFFFFFFFFFFFFFFFFFFFFFF AND DUP2 MSTORE PUSH1 0x20 ADD SWAP1 DUP2 MSTORE PUSH1 0x20 ADD PUSH0 KECCAK256 SLOAD DUP2 MSTORE PUSH1 0x20 ADD SWAP1 DUP2 MSTORE PUSH1 0x20 ADD PUSH0 KECCAK256 PUSH0 DUP3 ADD MLOAD DUP2 PUSH0 ADD SWAP1 DUP2 PUSH2 0x193 SWAP2 SWAP1 PUSH2 0xDCC JUMP JUMPDEST POP PUSH1 0x20 DUP3 ADD MLOAD DUP2 PUSH1 0x1 ADD SWAP1 DUP2 PUSH2 0x1A9 SWAP2 SWAP1 PUSH2 0xDCC JUMP JUMPDEST POP PUSH1 0x40 DUP3 ADD MLOAD DUP2 PUSH1 0x2 ADD SSTORE PUSH1 0x60 DUP3 ADD MLOAD DUP2 PUSH1 0x3 ADD PUSH0 PUSH2 0x100 EXP DUP2 SLOAD DUP2 PUSH1 0xFF MUL NOT AND SWAP1 DUP4 ISZERO ISZERO MUL OR SWAP1 SSTORE POP SWAP1 POP POP CALLER PUSH20 0xFFFFFFFFFFFFFFFFFFFFFFFFFFFFFFFFFFFFFFFF AND PUSH32 0x2D6B28A8AA465EA8EF959FFA368300FB581A01072A789F5DAFB1A34F97125B00 PUSH1 0x1 PUSH0 CALLER PUSH20 0xFFFFFFFFFFFFFFFFFFFFFFFFFFFFFFFFFFFFFFFF AND PUSH20 0xFFFFFFFFFFFFFFFFFFFFFFFFFFFFFFFFFFFFFFFF AND DUP2 MSTORE PUSH1 0x20 ADD SWAP1 DUP2 MSTORE PUSH1 0x20 ADD PUSH0 KECCAK256 SLOAD DUP6 PUSH1 0x40 MLOAD PUSH2 0x25B SWAP3 SWAP2 SWAP1 PUSH2 0xE9B JUMP JUMPDEST PUSH1 0x40 MLOAD DUP1 SWAP2 SUB SWAP1 LOG2 PUSH1 0x1 PUSH0 CALLER PUSH20 0xFFFFFFFFFFFFFFFFFFFFFFFFFFFFFFFFFFFFFFFF AND PUSH20 0xFFFFFFFFFFFFFFFFFFFFFFFFFFFFFFFFFFFFFFFF AND DUP2 MSTORE PUSH1 0x20 ADD SWAP1 DUP2 MSTORE PUSH1 0x20 ADD PUSH0 KECCAK256 PUSH0 DUP2 SLOAD DUP1 SWAP3 SWAP2 SWAP1 PUSH2 0x2B0 SWAP1 PUSH2 0xEF6 JUMP JUMPDEST SWAP2 SWAP1 POP SSTORE POP POP POP POP JUMP JUMPDEST PUSH1 0x60 DUP1 PUSH0 DUP1 PUSH0 CALLER PUSH20 0xFFFFFFFFFFFFFFFFFFFFFFFFFFFFFFFFFFFFFFFF AND PUSH20 0xFFFFFFFFFFFFFFFFFFFFFFFFFFFFFFFFFFFFFFFF AND DUP2 MSTORE PUSH1 0x20 ADD SWAP1 DUP2 MSTORE PUSH1 0x20 ADD PUSH0 KECCAK256 PUSH0 DUP6 DUP2 MSTORE PUSH1 0x20 ADD SWAP1 DUP2 MSTORE PUSH1 0x20 ADD PUSH0 KECCAK256 PUSH1 0x3 ADD PUSH0 SWAP1 SLOAD SWAP1 PUSH2 0x100 EXP SWAP1 DIV PUSH1 0xFF AND PUSH2 0x358 JUMPI PUSH1 0x40 MLOAD PUSH32 0x8C379A000000000000000000000000000000000000000000000000000000000 DUP2 MSTORE PUSH1 0x4 ADD PUSH2 0x34F SWAP1 PUSH2 0xF87 JUMP JUMPDEST PUSH1 0x40 MLOAD DUP1 SWAP2 SUB SWAP1 REVERT JUMPDEST PUSH0 DUP1 PUSH0 CALLER PUSH20 0xFFFFFFFFFFFFFFFFFFFFFFFFFFFFFFFFFFFFFFFF AND PUSH20 0xFFFFFFFFFFFFFFFFFFFFFFFFFFFFFFFFFFFFFFFF AND DUP2 MSTORE PUSH1 0x20 ADD SWAP1 DUP2 MSTORE PUSH1 0x20 ADD PUSH0 KECCAK256 PUSH0 DUP7 DUP2 MSTORE PUSH1 0x20 ADD SWAP1 DUP2 MSTORE PUSH1 0x20 ADD PUSH0 KECCAK256 SWAP1 POP DUP1 PUSH0 ADD DUP2 PUSH1 0x1 ADD DUP3 PUSH1 0x2 ADD SLOAD DUP3 DUP1 SLOAD PUSH2 0x3BE SWAP1 PUSH2 0xBFF JUMP JUMPDEST DUP1 PUSH1 0x1F ADD PUSH1 0x20 DUP1 SWAP2 DIV MUL PUSH1 0x20 ADD PUSH1 0x40 MLOAD SWAP1 DUP2 ADD PUSH1 0x40 MSTORE DUP1 SWAP3 SWAP2 SWAP1 DUP2 DUP2 MSTORE PUSH1 0x20 ADD DUP3 DUP1 SLOAD PUSH2 0x3EA SWAP1 PUSH2 0xBFF JUMP JUMPDEST DUP1 ISZERO PUSH2 0x435 JUMPI DUP1 PUSH1 0x1F LT PUSH2 0x40C JUMPI PUSH2 0x100 DUP1 DUP4 SLOAD DIV MUL DUP4 MSTORE SWAP2 PUSH1 0x20 ADD SWAP2 PUSH2 0x435 JUMP JUMPDEST DUP3 ADD SWAP2 SWAP1 PUSH0 MSTORE PUSH1 0x20 PUSH0 KECCAK256 SWAP1 JUMPDEST DUP2 SLOAD DUP2 MSTORE SWAP1 PUSH1 0x1 ADD SWAP1 PUSH1 0x20 ADD DUP1 DUP4 GT PUSH2 0x418 JUMPI DUP3 SWAP1 SUB PUSH1 0x1F AND DUP3 ADD SWAP2 JUMPDEST POP POP POP POP POP SWAP3 POP DUP2 DUP1 SLOAD PUSH2 0x448 SWAP1 PUSH2 0xBFF JUMP JUMPDEST DUP1 PUSH1 0x1F ADD PUSH1 0x20 DUP1 SWAP2 DIV MUL PUSH1 0x20 ADD PUSH1 0x40 MLOAD SWAP1 DUP2 ADD PUSH1 0x40 MSTORE DUP1 SWAP3 SWAP2 SWAP1 DUP2 DUP2 MSTORE PUSH1 0x20 ADD DUP3 DUP1 SLOAD PUSH2 0x474 SWAP1 PUSH2 0xBFF JUMP JUMPDEST DUP1 ISZERO PUSH2 0x4BF JUMPI DUP1 PUSH1 0x1F LT PUSH2 0x496 JUMPI PUSH2 0x100 DUP1 DUP4 SLOAD DIV MUL DUP4 MSTORE SWAP2 PUSH1 0x20 ADD SWAP2 PUSH2 0x4BF JUMP JUMPDEST DUP3 ADD SWAP2 SWAP1 PUSH0 MSTORE PUSH1 0x20 PUSH0 KECCAK256 SWAP1 JUMPDEST DUP2 SLOAD DUP2 MSTORE SWAP1 PUSH1 0x1 ADD SWAP1 PUSH1 0x20 ADD DUP1 DUP4 GT PUSH2 0x4A2 JUMPI DUP3 SWAP1 SUB PUSH1 0x1F AND DUP3 ADD SWAP2 JUMPDEST POP POP POP POP POP SWAP2 POP SWAP4 POP SWAP4 POP SWAP4 POP POP SWAP2 SWAP4 SWAP1 SWAP3 POP JUMP JUMPDEST PUSH0 DUP1 CALLER PUSH20 0xFFFFFFFFFFFFFFFFFFFFFFFFFFFFFFFFFFFFFFFF AND PUSH20 0xFFFFFFFFFFFFFFFFFFFFFFFFFFFFFFFFFFFFFFFF AND DUP2 MSTORE PUSH1 0x20 ADD SWAP1 DUP2 MSTORE PUSH1 0x20 ADD PUSH0 KECCAK256 PUSH0 DUP6 DUP2 MSTORE PUSH1 0x20 ADD SWAP1 DUP2 MSTORE PUSH1 0x20 ADD PUSH0 KECCAK256 PUSH1 0x3 ADD PUSH0 SWAP1 SLOAD SWAP1 PUSH2 0x100 EXP SWAP1 DIV PUSH1 0xFF AND PUSH2 0x56E JUMPI PUSH1 0x40 MLOAD PUSH32 0x8C379A000000000000000000000000000000000000000000000000000000000 DUP2 MSTORE PUSH1 0x4 ADD PUSH2 0x565 SWAP1 PUSH2 0xF87 JUMP JUMPDEST PUSH1 0x40 MLOAD DUP1 SWAP2 SUB SWAP1 REVERT JUMPDEST PUSH1 0x40 MLOAD DUP1 PUSH1 0x80 ADD PUSH1 0x40 MSTORE DUP1 DUP5 DUP2 MSTORE PUSH1 0x20 ADD DUP4 DUP2 MSTORE PUSH1 0x20 ADD DUP3 DUP2 MSTORE PUSH1 0x20 ADD PUSH1 0x1 ISZERO ISZERO DUP2 MSTORE POP PUSH0 DUP1 CALLER PUSH20 0xFFFFFFFFFFFFFFFFFFFFFFFFFFFFFFFFFFFFFFFF AND PUSH20 0xFFFFFFFFFFFFFFFFFFFFFFFFFFFFFFFFFFFFFFFF AND DUP2 MSTORE PUSH1 0x20 ADD SWAP1 DUP2 MSTORE PUSH1 0x20 ADD PUSH0 KECCAK256 PUSH0 DUP7 DUP2 MSTORE PUSH1 0x20 ADD SWAP1 DUP2 MSTORE PUSH1 0x20 ADD PUSH0 KECCAK256 PUSH0 DUP3 ADD MLOAD DUP2 PUSH0 ADD SWAP1 DUP2 PUSH2 0x5F0 SWAP2 SWAP1 PUSH2 0xDCC JUMP JUMPDEST POP PUSH1 0x20 DUP3 ADD MLOAD DUP2 PUSH1 0x1 ADD SWAP1 DUP2 PUSH2 0x606 SWAP2 SWAP1 PUSH2 0xDCC JUMP JUMPDEST POP PUSH1 0x40 DUP3 ADD MLOAD DUP2 PUSH1 0x2 ADD SSTORE PUSH1 0x60 DUP3 ADD MLOAD DUP2 PUSH1 0x3 ADD PUSH0 PUSH2 0x100 EXP DUP2 SLOAD DUP2 PUSH1 0xFF MUL NOT AND SWAP1 DUP4 ISZERO ISZERO MUL OR SWAP1 SSTORE POP SWAP1 POP POP CALLER PUSH20 0xFFFFFFFFFFFFFFFFFFFFFFFFFFFFFFFFFFFFFFFF AND PUSH32 0x580F21BA5AC386015E66E7CAFBCA44F69F33AC115522371F34FF2CEE5A0EFD22 DUP6 DUP6 PUSH1 0x40 MLOAD PUSH2 0x67B SWAP3 SWAP2 SWAP1 PUSH2 0xE9B JUMP JUMPDEST PUSH1 0x40 MLOAD DUP1 SWAP2 SUB SWAP1 LOG2 POP POP POP POP JUMP JUMPDEST PUSH0 DUP1 CALLER PUSH20 0xFFFFFFFFFFFFFFFFFFFFFFFFFFFFFFFFFFFFFFFF AND PUSH20 0xFFFFFFFFFFFFFFFFFFFFFFFFFFFFFFFFFFFFFFFF AND DUP2 MSTORE PUSH1 0x20 ADD SWAP1 DUP2 MSTORE PUSH1 0x20 ADD PUSH0 KECCAK256 PUSH0 DUP3 DUP2 MSTORE PUSH1 0x20 ADD SWAP1 DUP2 MSTORE PUSH1 0x20 ADD PUSH0 KECCAK256 PUSH1 0x3 ADD PUSH0 SWAP1 SLOAD SWAP1 PUSH2 0x100 EXP SWAP1 DIV PUSH1 0xFF AND PUSH2 0x723 JUMPI PUSH1 0x40 MLOAD PUSH32 0x8C379A000000000000000000000000000000000000000000000000000000000 DUP2 MSTORE PUSH1 0x4 ADD PUSH2 0x71A SWAP1 PUSH2 0xF87 JUMP JUMPDEST PUSH1 0x40 MLOAD DUP1 SWAP2 SUB SWAP1 REVERT JUMPDEST PUSH0 DUP1 CALLER PUSH20 0xFFFFFFFFFFFFFFFFFFFFFFFFFFFFFFFFFFFFFFFF AND PUSH20 0xFFFFFFFFFFFFFFFFFFFFFFFFFFFFFFFFFFFFFFFF AND DUP2 MSTORE PUSH1 0x20 ADD SWAP1 DUP2 MSTORE PUSH1 0x20 ADD PUSH0 KECCAK256 PUSH0 DUP3 DUP2 MSTORE PUSH1 0x20 ADD SWAP1 DUP2 MSTORE PUSH1 0x20 ADD PUSH0 KECCAK256 PUSH0 DUP1 DUP3 ADD PUSH0 PUSH2 0x77D SWAP2 SWAP1 PUSH2 0x7F9 JUMP JUMPDEST PUSH1 0x1 DUP3 ADD PUSH0 PUSH2 0x78C SWAP2 SWAP1 PUSH2 0x7F9 JUMP JUMPDEST PUSH1 0x2 DUP3 ADD PUSH0 SWAP1 SSTORE PUSH1 0x3 DUP3 ADD PUSH0 PUSH2 0x100 EXP DUP2 SLOAD SWAP1 PUSH1 0xFF MUL NOT AND SWAP1 SSTORE POP POP CALLER PUSH20 0xFFFFFFFFFFFFFFFFFFFFFFFFFFFFFFFFFFFFFFFF AND PUSH32 0x485A32AB922F212C1C1EF5F52F142CA88FDBA8CF46D8DFCDA744922C234FB448 DUP3 PUSH1 0x40 MLOAD PUSH2 0x7EE SWAP2 SWAP1 PUSH2 0xFA5 JUMP JUMPDEST PUSH1 0x40 MLOAD DUP1 SWAP2 SUB SWAP1 LOG2 POP JUMP JUMPDEST POP DUP1 SLOAD PUSH2 0x805 SWAP1 PUSH2 0xBFF JUMP JUMPDEST PUSH0 DUP3 SSTORE DUP1 PUSH1 0x1F LT PUSH2 0x816 JUMPI POP PUSH2 0x833 JUMP JUMPDEST PUSH1 0x1F ADD PUSH1 0x20 SWAP1 DIV SWAP1 PUSH0 MSTORE PUSH1 0x20 PUSH0 KECCAK256 SWAP1 DUP2 ADD SWAP1 PUSH2 0x832 SWAP2 SWAP1 PUSH2 0x836 JUMP JUMPDEST JUMPDEST POP JUMP JUMPDEST JUMPDEST DUP1 DUP3 GT ISZERO PUSH2 0x84D JUMPI PUSH0 DUP2 PUSH0 SWAP1 SSTORE POP PUSH1 0x1 ADD PUSH2 0x837 JUMP JUMPDEST POP SWAP1 JUMP JUMPDEST PUSH0 PUSH1 0x40 MLOAD SWAP1 POP SWAP1 JUMP JUMPDEST PUSH0 DUP1 REVERT JUMPDEST PUSH0 DUP1 REVERT JUMPDEST PUSH0 DUP1 REVERT JUMPDEST PUSH0 DUP1 REVERT JUMPDEST PUSH0 PUSH1 0x1F NOT PUSH1 0x1F DUP4 ADD AND SWAP1 POP SWAP2 SWAP1 POP JUMP JUMPDEST PUSH32 0x4E487B7100000000000000000000000000000000000000000000000000000000 PUSH0 MSTORE PUSH1 0x41 PUSH1 0x4 MSTORE PUSH1 0x24 PUSH0 REVERT JUMPDEST PUSH2 0x8B0 DUP3 PUSH2 0x86A JUMP JUMPDEST DUP2 ADD DUP2 DUP2 LT PUSH8 0xFFFFFFFFFFFFFFFF DUP3 GT OR ISZERO PUSH2 0x8CF JUMPI PUSH2 0x8CE PUSH2 0x87A JUMP JUMPDEST JUMPDEST DUP1 PUSH1 0x40 MSTORE POP POP POP JUMP JUMPDEST PUSH0 PUSH2 0x8E1 PUSH2 0x851 JUMP JUMPDEST SWAP1 POP PUSH2 0x8ED DUP3 DUP3 PUSH2 0x8A7 JUMP JUMPDEST SWAP2 SWAP1 POP JUMP JUMPDEST PUSH0 PUSH8 0xFFFFFFFFFFFFFFFF DUP3 GT ISZERO PUSH2 0x90C JUMPI PUSH2 0x90B PUSH2 0x87A JUMP JUMPDEST JUMPDEST PUSH2 0x915 DUP3 PUSH2 0x86A JUMP JUMPDEST SWAP1 POP PUSH1 0x20 DUP2 ADD SWAP1 POP SWAP2 SWAP1 POP JUMP JUMPDEST DUP3 DUP2 DUP4 CALLDATACOPY PUSH0 DUP4 DUP4 ADD MSTORE POP POP POP JUMP JUMPDEST PUSH0 PUSH2 0x942 PUSH2 0x93D DUP5 PUSH2 0x8F2 JUMP JUMPDEST PUSH2 0x8D8 JUMP JUMPDEST SWAP1 POP DUP3 DUP2 MSTORE PUSH1 0x20 DUP2 ADD DUP5 DUP5 DUP5 ADD GT ISZERO PUSH2 0x95E JUMPI PUSH2 0x95D PUSH2 0x866 JUMP JUMPDEST JUMPDEST PUSH2 0x969 DUP5 DUP3 DUP6 PUSH2 0x922 JUMP JUMPDEST POP SWAP4 SWAP3 POP POP POP JUMP JUMPDEST PUSH0 DUP3 PUSH1 0x1F DUP4 ADD SLT PUSH2 0x985 JUMPI PUSH2 0x984 PUSH2 0x862 JUMP JUMPDEST JUMPDEST DUP2 CALLDATALOAD PUSH2 0x995 DUP5 DUP3 PUSH1 0x20 DUP7 ADD PUSH2 0x930 JUMP JUMPDEST SWAP2 POP POP SWAP3 SWAP2 POP POP JUMP JUMPDEST PUSH0 DUP2 SWAP1 POP SWAP2 SWAP1 POP JUMP JUMPDEST PUSH2 0x9B0 DUP2 PUSH2 0x99E JUMP JUMPDEST DUP2 EQ PUSH2 0x9BA JUMPI PUSH0 DUP1 REVERT JUMPDEST POP JUMP JUMPDEST PUSH0 DUP2 CALLDATALOAD SWAP1 POP PUSH2 0x9CB DUP2 PUSH2 0x9A7 JUMP JUMPDEST SWAP3 SWAP2 POP POP JUMP JUMPDEST PUSH0 DUP1 PUSH0 PUSH1 0x60 DUP5 DUP7 SUB SLT ISZERO PUSH2 0x9E8 JUMPI PUSH2 0x9E7 PUSH2 0x85A JUMP JUMPDEST JUMPDEST PUSH0 DUP5 ADD CALLDATALOAD PUSH8 0xFFFFFFFFFFFFFFFF DUP2 GT ISZERO PUSH2 0xA05 JUMPI PUSH2 0xA04 PUSH2 0x85E JUMP JUMPDEST JUMPDEST PUSH2 0xA11 DUP7 DUP3 DUP8 ADD PUSH2 0x971 JUMP JUMPDEST SWAP4 POP POP PUSH1 0x20 DUP5 ADD CALLDATALOAD PUSH8 0xFFFFFFFFFFFFFFFF DUP2 GT ISZERO PUSH2 0xA32 JUMPI PUSH2 0xA31 PUSH2 0x85E JUMP JUMPDEST JUMPDEST PUSH2 0xA3E DUP7 DUP3 DUP8 ADD PUSH2 0x971 JUMP JUMPDEST SWAP3 POP POP PUSH1 0x40 PUSH2 0xA4F DUP7 DUP3 DUP8 ADD PUSH2 0x9BD JUMP JUMPDEST SWAP2 POP POP SWAP3 POP SWAP3 POP SWAP3 JUMP JUMPDEST PUSH0 PUSH1 0x20 DUP3 DUP5 SUB SLT ISZERO PUSH2 0xA6E JUMPI PUSH2 0xA6D PUSH2 0x85A JUMP JUMPDEST JUMPDEST PUSH0 PUSH2 0xA7B DUP5 DUP3 DUP6 ADD PUSH2 0x9BD JUMP JUMPDEST SWAP2 POP POP SWAP3 SWAP2 POP POP JUMP JUMPDEST PUSH0 DUP2 MLOAD SWAP1 POP SWAP2 SWAP1 POP JUMP JUMPDEST PUSH0 DUP3 DUP3 MSTORE PUSH1 0x20 DUP3 ADD SWAP1 POP SWAP3 SWAP2 POP POP JUMP JUMPDEST DUP3 DUP2 DUP4 MCOPY PUSH0 DUP4 DUP4 ADD MSTORE POP POP POP JUMP JUMPDEST PUSH0 PUSH2 0xAB6 DUP3 PUSH2 0xA84 JUMP JUMPDEST PUSH2 0xAC0 DUP2 DUP6 PUSH2 0xA8E JUMP JUMPDEST SWAP4 POP PUSH2 0xAD0 DUP2 DUP6 PUSH1 0x20 DUP7 ADD PUSH2 0xA9E JUMP JUMPDEST PUSH2 0xAD9 DUP2 PUSH2 0x86A JUMP JUMPDEST DUP5 ADD SWAP2 POP POP SWAP3 SWAP2 POP POP JUMP JUMPDEST PUSH2 0xAED DUP2 PUSH2 0x99E JUMP JUMPDEST DUP3 MSTORE POP POP JUMP JUMPDEST PUSH0 PUSH1 0x60 DUP3 ADD SWAP1 POP DUP2 DUP2 SUB PUSH0 DUP4 ADD MSTORE PUSH2 0xB0B DUP2 DUP7 PUSH2 0xAAC JUMP JUMPDEST SWAP1 POP DUP2 DUP2 SUB PUSH1 0x20 DUP4 ADD MSTORE PUSH2 0xB1F DUP2 DUP6 PUSH2 0xAAC JUMP JUMPDEST SWAP1 POP PUSH2 0xB2E PUSH1 0x40 DUP4 ADD DUP5 PUSH2 0xAE4 JUMP JUMPDEST SWAP5 SWAP4 POP POP POP POP JUMP JUMPDEST PUSH0 DUP1 PUSH0 DUP1 PUSH1 0x80 DUP6 DUP8 SUB SLT ISZERO PUSH2 0xB4E JUMPI PUSH2 0xB4D PUSH2 0x85A JUMP JUMPDEST JUMPDEST PUSH0 PUSH2 0xB5B DUP8 DUP3 DUP9 ADD PUSH2 0x9BD JUMP JUMPDEST SWAP5 POP POP PUSH1 0x20 DUP6 ADD CALLDATALOAD PUSH8 0xFFFFFFFFFFFFFFFF DUP2 GT ISZERO PUSH2 0xB7C JUMPI PUSH2 0xB7B PUSH2 0x85E JUMP JUMPDEST JUMPDEST PUSH2 0xB88 DUP8 DUP3 DUP9 ADD PUSH2 0x971 JUMP JUMPDEST SWAP4 POP POP PUSH1 0x40 DUP6 ADD CALLDATALOAD PUSH8 0xFFFFFFFFFFFFFFFF DUP2 GT ISZERO PUSH2 0xBA9 JUMPI PUSH2 0xBA8 PUSH2 0x85E JUMP JUMPDEST JUMPDEST PUSH2 0xBB5 DUP8 DUP3 DUP9 ADD PUSH2 0x971 JUMP JUMPDEST SWAP3 POP POP PUSH1 0x60 PUSH2 0xBC6 DUP8 DUP3 DUP9 ADD PUSH2 0x9BD JUMP JUMPDEST SWAP2 POP POP SWAP3 SWAP6 SWAP2 SWAP5 POP SWAP3 POP JUMP JUMPDEST PUSH32 0x4E487B7100000000000000000000000000000000000000000000000000000000 PUSH0 MSTORE PUSH1 0x22 PUSH1 0x4 MSTORE PUSH1 0x24 PUSH0 REVERT JUMPDEST PUSH0 PUSH1 0x2 DUP3 DIV SWAP1 POP PUSH1 0x1 DUP3 AND DUP1 PUSH2 0xC16 JUMPI PUSH1 0x7F DUP3 AND SWAP2 POP JUMPDEST PUSH1 0x20 DUP3 LT DUP2 SUB PUSH2 0xC29 JUMPI PUSH2 0xC28 PUSH2 0xBD2 JUMP JUMPDEST JUMPDEST POP SWAP2 SWAP1 POP JUMP JUMPDEST PUSH0 DUP2 SWAP1 POP DUP2 PUSH0 MSTORE PUSH1 0x20 PUSH0 KECCAK256 SWAP1 POP SWAP2 SWAP1 POP JUMP JUMPDEST PUSH0 PUSH1 0x20 PUSH1 0x1F DUP4 ADD DIV SWAP1 POP SWAP2 SWAP1 POP JUMP JUMPDEST PUSH0 DUP3 DUP3 SHL SWAP1 POP SWAP3 SWAP2 POP POP JUMP JUMPDEST PUSH0 PUSH1 0x8 DUP4 MUL PUSH2 0xC8B PUSH32 0xFFFFFFFFFFFFFFFFFFFFFFFFFFFFFFFFFFFFFFFFFFFFFFFFFFFFFFFFFFFFFFFF DUP3 PUSH2 0xC50 JUMP JUMPDEST PUSH2 0xC95 DUP7 DUP4 PUSH2 0xC50 JUMP JUMPDEST SWAP6 POP DUP1 NOT DUP5 AND SWAP4 POP DUP1 DUP7 AND DUP5 OR SWAP3 POP POP POP SWAP4 SWAP3 POP POP POP JUMP JUMPDEST PUSH0 DUP2 SWAP1 POP SWAP2 SWAP1 POP JUMP JUMPDEST PUSH0 PUSH2 0xCD0 PUSH2 0xCCB PUSH2 0xCC6 DUP5 PUSH2 0x99E JUMP JUMPDEST PUSH2 0xCAD JUMP JUMPDEST PUSH2 0x99E JUMP JUMPDEST SWAP1 POP SWAP2 SWAP1 POP JUMP JUMPDEST PUSH0 DUP2 SWAP1 POP SWAP2 SWAP1 POP JUMP JUMPDEST PUSH2 0xCE9 DUP4 PUSH2 0xCB6 JUMP JUMPDEST PUSH2 0xCFD PUSH2 0xCF5 DUP3 PUSH2 0xCD7 JUMP JUMPDEST DUP5 DUP5 SLOAD PUSH2 0xC5C JUMP JUMPDEST DUP3 SSTORE POP POP POP POP JUMP JUMPDEST PUSH0 SWAP1 JUMP JUMPDEST PUSH2 0xD11 PUSH2 0xD05 JUMP JUMPDEST PUSH2 0xD1C DUP2 DUP5 DUP5 PUSH2 0xCE0 JUMP JUMPDEST POP POP POP JUMP JUMPDEST JUMPDEST DUP2 DUP2 LT ISZERO PUSH2 0xD3F JUMPI PUSH2 0xD34 PUSH0 DUP3 PUSH2 0xD09 JUMP JUMPDEST PUSH1 0x1 DUP2 ADD SWAP1 POP PUSH2 0xD22 JUMP JUMPDEST POP POP JUMP JUMPDEST PUSH1 0x1F DUP3 GT ISZERO PUSH2 0xD84 JUMPI PUSH2 0xD55 DUP2 PUSH2 0xC2F JUMP JUMPDEST PUSH2 0xD5E DUP5 PUSH2 0xC41 JUMP JUMPDEST DUP2 ADD PUSH1 0x20 DUP6 LT ISZERO PUSH2 0xD6D JUMPI DUP2 SWAP1 POP JUMPDEST PUSH2 0xD81 PUSH2 0xD79 DUP6 PUSH2 0xC41 JUMP JUMPDEST DUP4 ADD DUP3 PUSH2 0xD21 JUMP JUMPDEST POP POP JUMPDEST POP POP POP JUMP JUMPDEST PUSH0 DUP3 DUP3 SHR SWAP1 POP SWAP3 SWAP2 POP POP JUMP JUMPDEST PUSH0 PUSH2 0xDA4 PUSH0 NOT DUP5 PUSH1 0x8 MUL PUSH2 0xD89 JUMP JUMPDEST NOT DUP1 DUP4 AND SWAP2 POP POP SWAP3 SWAP2 POP POP JUMP JUMPDEST PUSH0 PUSH2 0xDBC DUP4 DUP4 PUSH2 0xD95 JUMP JUMPDEST SWAP2 POP DUP3 PUSH1 0x2 MUL DUP3 OR SWAP1 POP SWAP3 SWAP2 POP POP JUMP JUMPDEST PUSH2 0xDD5 DUP3 PUSH2 0xA84 JUMP JUMPDEST PUSH8 0xFFFFFFFFFFFFFFFF DUP2 GT ISZERO PUSH2 0xDEE JUMPI PUSH2 0xDED PUSH2 0x87A JUMP JUMPDEST JUMPDEST PUSH2 0xDF8 DUP3 SLOAD PUSH2 0xBFF JUMP JUMPDEST PUSH2 0xE03 DUP3 DUP3 DUP6 PUSH2 0xD43 JUMP JUMPDEST PUSH0 PUSH1 0x20 SWAP1 POP PUSH1 0x1F DUP4 GT PUSH1 0x1 DUP2 EQ PUSH2 0xE34 JUMPI PUSH0 DUP5 ISZERO PUSH2 0xE22 JUMPI DUP3 DUP8 ADD MLOAD SWAP1 POP JUMPDEST PUSH2 0xE2C DUP6 DUP3 PUSH2 0xDB1 JUMP JUMPDEST DUP7 SSTORE POP PUSH2 0xE93 JUMP JUMPDEST PUSH1 0x1F NOT DUP5 AND PUSH2 0xE42 DUP7 PUSH2 0xC2F JUMP JUMPDEST PUSH0 JUMPDEST DUP3 DUP2 LT ISZERO PUSH2 0xE69 JUMPI DUP5 DUP10 ADD MLOAD DUP3 SSTORE PUSH1 0x1 DUP3 ADD SWAP2 POP PUSH1 0x20 DUP6 ADD SWAP5 POP PUSH1 0x20 DUP2 ADD SWAP1 POP PUSH2 0xE44 JUMP JUMPDEST DUP7 DUP4 LT ISZERO PUSH2 0xE86 JUMPI DUP5 DUP10 ADD MLOAD PUSH2 0xE82 PUSH1 0x1F DUP10 AND DUP3 PUSH2 0xD95 JUMP JUMPDEST DUP4 SSTORE POP JUMPDEST PUSH1 0x1 PUSH1 0x2 DUP9 MUL ADD DUP9 SSTORE POP POP POP JUMPDEST POP POP POP POP POP POP JUMP JUMPDEST PUSH0 PUSH1 0x40 DUP3 ADD SWAP1 POP PUSH2 0xEAE PUSH0 DUP4 ADD DUP6 PUSH2 0xAE4 JUMP JUMPDEST DUP2 DUP2 SUB PUSH1 0x20 DUP4 ADD MSTORE PUSH2 0xEC0 DUP2 DUP5 PUSH2 0xAAC JUMP JUMPDEST SWAP1 POP SWAP4 SWAP3 POP POP POP JUMP JUMPDEST PUSH32 0x4E487B7100000000000000000000000000000000000000000000000000000000 PUSH0 MSTORE PUSH1 0x11 PUSH1 0x4 MSTORE PUSH1 0x24 PUSH0 REVERT JUMPDEST PUSH0 PUSH2 0xF00 DUP3 PUSH2 0x99E JUMP JUMPDEST SWAP2 POP PUSH32 0xFFFFFFFFFFFFFFFFFFFFFFFFFFFFFFFFFFFFFFFFFFFFFFFFFFFFFFFFFFFFFFFF DUP3 SUB PUSH2 0xF32 JUMPI PUSH2 0xF31 PUSH2 0xEC9 JUMP JUMPDEST JUMPDEST PUSH1 0x1 DUP3 ADD SWAP1 POP SWAP2 SWAP1 POP JUMP JUMPDEST PUSH32 0x4576656E746F206E6F2065786973746500000000000000000000000000000000 PUSH0 DUP3 ADD MSTORE POP JUMP JUMPDEST PUSH0 PUSH2 0xF71 PUSH1 0x10 DUP4 PUSH2 0xA8E JUMP JUMPDEST SWAP2 POP PUSH2 0xF7C DUP3 PUSH2 0xF3D JUMP JUMPDEST PUSH1 0x20 DUP3 ADD SWAP1 POP SWAP2 SWAP1 POP JUMP JUMPDEST PUSH0 PUSH1 0x20 DUP3 ADD SWAP1 POP DUP2 DUP2 SUB PUSH0 DUP4 ADD MSTORE PUSH2 0xF9E DUP2 PUSH2 0xF65 JUMP JUMPDEST SWAP1 POP SWAP2 SWAP1 POP JUMP JUMPDEST PUSH0 PUSH1 0x20 DUP3 ADD SWAP1 POP PUSH2 0xFB8 PUSH0 DUP4 ADD DUP5 PUSH2 0xAE4 JUMP JUMPDEST SWAP3 SWAP2 POP POP JUMP INVALID LOG2 PUSH5 0x6970667358 0x22 SLT KECCAK256 0xBE 0xA8 0xEE TIMESTAMP 0xC1 0xDA DUP7 0xE DELEGATECALL 0xD1 0xED 0xE8 PC 0x4F PUSH6 0x1EF124CC8FFA 0xBF PUSH4 0x202A0644 EXP CALLVALUE TIMESTAMP EXP DUP8 PUSH5 0x736F6C6343 STOP ADDMOD BYTE STOP CALLER "
				},
				"gasEstimates": {
					"creation": {
						"codeDepositCost": "816800",
						"executionCost": "849",
						"totalCost": "817649"
					},
					"external": {
						"createEvent(string,string,uint256)": "infinite",
						"deleteEvent(uint256)": "infinite",
						"getEvent(uint256)": "infinite",
						"updateEvent(uint256,string,string,uint256)": "infinite"
					}
				},
				"methodIdentifiers": {
					"createEvent(string,string,uint256)": "5555fe17",
					"deleteEvent(uint256)": "f8749a58",
					"getEvent(uint256)": "6d1884e0",
					"updateEvent(uint256,string,string,uint256)": "97116bca"
				}
			},
			"storageLayout": {
				"storage": [
					{
						"astId": 17,
						"contract": "AgendaEventos.sol:AgendaEventos",
						"label": "eventos",
						"offset": 0,
						"slot": "0",
						"type": "t_mapping(t_address,t_mapping(t_uint256,t_struct(Evento)10_storage))"
					},
					{
						"astId": 21,
						"contract": "AgendaEventos.sol:AgendaEventos",
						"label": "contadorEventos",
						"offset": 0,
						"slot": "1",
						"type": "t_mapping(t_address,t_uint256)"
					}
				],
				"types": {
					"t_address": {
						"encoding": "inplace",
						"label": "address",
						"numberOfBytes": "20"
					},
					"t_bool": {
						"encoding": "inplace",
						"label": "bool",
						"numberOfBytes": "1"
					},
					"t_mapping(t_address,t_mapping(t_uint256,t_struct(Evento)10_storage))": {
						"encoding": "mapping",
						"key": "t_address",
						"label": "mapping(address => mapping(uint256 => struct AgendaEventos.Evento))",
						"numberOfBytes": "32",
						"value": "t_mapping(t_uint256,t_struct(Evento)10_storage)"
					},
					"t_mapping(t_address,t_uint256)": {
						"encoding": "mapping",
						"key": "t_address",
						"label": "mapping(address => uint256)",
						"numberOfBytes": "32",
						"value": "t_uint256"
					},
					"t_mapping(t_uint256,t_struct(Evento)10_storage)": {
						"encoding": "mapping",
						"key": "t_uint256",
						"label": "mapping(uint256 => struct AgendaEventos.Evento)",
						"numberOfBytes": "32",
						"value": "t_struct(Evento)10_storage"
					},
					"t_string_storage": {
						"encoding": "bytes",
						"label": "string",
						"numberOfBytes": "32"
					},
					"t_struct(Evento)10_storage": {
						"encoding": "inplace",
						"label": "struct AgendaEventos.Evento",
						"members": [
							{
								"astId": 3,
								"contract": "AgendaEventos.sol:AgendaEventos",
								"label": "nombre",
								"offset": 0,
								"slot": "0",
								"type": "t_string_storage"
							},
							{
								"astId": 5,
								"contract": "AgendaEventos.sol:AgendaEventos",
								"label": "descripcion",
								"offset": 0,
								"slot": "1",
								"type": "t_string_storage"
							},
							{
								"astId": 7,
								"contract": "AgendaEventos.sol:AgendaEventos",
								"label": "fecha",
								"offset": 0,
								"slot": "2",
								"type": "t_uint256"
							},
							{
								"astId": 9,
								"contract": "AgendaEventos.sol:AgendaEventos",
								"label": "existe",
								"offset": 0,
								"slot": "3",
								"type": "t_bool"
							}
						],
						"numberOfBytes": "128"
					},
					"t_uint256": {
						"encoding": "inplace",
						"label": "uint256",
						"numberOfBytes": "32"
					}
				}
			},
			"userdoc": {
				"kind": "user",
				"methods": {},
				"version": 1
			}
		}
	}
}