{
	"AgendaEventos.sol": {
		"AgendaEventos": {
			"abi": [
				{
					"anonymous": false,
					"inputs": [
						{
							"indexed": true,
							"internalType": "address",
							"name": "creador",
							"type": "address"
						},
						{
							"indexed": false,
							"internalType": "uint256",
							"name": "id",
							"type": "uint256"
						},
						{
							"indexed": false,
							"internalType": "string",
							"name": "nombre",
							"type": "string"
						}
					],
					"name": "EventoCreado",
					"type": "event"
				},
				{
					"anonymous": false,
					"inputs": [
						{
							"indexed": true,
							"internalType": "address",
							"name": "creador",
							"type": "address"
						},
						{
							"indexed": false,
							"internalType": "uint256",
							"name": "id",
							"type": "uint256"
						}
					],
					"name": "EventoEliminado",
					"type": "event"
				},
				{
					"anonymous": false,
					"inputs": [
						{
							"indexed": true,
							"internalType": "address",
							"name": "creador",
							"type": "address"
						},
						{
							"indexed": false,
							"internalType": "uint256",
							"name": "id",
							"type": "uint256"
						},
						{
							"indexed": false,
							"internalType": "string",
							"name": "nombre",
							"type": "string"
						}
					],
					"name": "EventoModificado",
					"type": "event"
				},
				{
					"inputs": [
						{
							"internalType": "string",
							"name": "nombre",
							"type": "string"
						},
						{
							"internalType": "string",
							"name": "descripcion",
							"type": "string"
						},
						{
							"internalType": "uint256",
							"name": "fecha",
							"type": "uint256"
						}
					],
					"name": "createEvent",
					"outputs": [],
					"stateMutability": "nonpayable",
					"type": "function"
				},
				{
					"inputs": [
						{
							"internalType": "uint256",
							"name": "id",
							"type": "uint256"
						}
					],
					"name": "deleteEvent",
					"outputs": [],
					"stateMutability": "nonpayable",
					"type": "function"
				},
				{
					"inputs": [
						{
							"internalType": "uint256",
							"name": "id",
							"type": "uint256"
						}
					],
					"name": "getEvent",
					"outputs": [
						{
							"internalType": "string",
							"name": "",
							"type": "string"
						},
						{
							"internalType": "string",
							"name": "",
							"type": "string"
						},
						{
							"internalType": "uint256",
							"name": "",
							"type": "uint256"
						}
					],
					"stateMutability": "view",
					"type": "function"
				},
				{
					"inputs": [],
					"name": "listEvents",
					"outputs": [
						{
							"components": [
								{
									"internalType": "string",
									"name": "nombre",
									"type": "string"
								},
								{
									"internalType": "string",
									"name": "descripcion",
									"type": "string"
								},
								{
									"internalType": "uint256",
									"name": "fecha",
									"type": "uint256"
								},
								{
									"internalType": "bool",
									"name": "existe",
									"type": "bool"
								}
							],
							"internalType": "struct AgendaEventos.Evento[]",
							"name": "",
							"type": "tuple[]"
						}
					],
					"stateMutability": "view",
					"type": "function"
				},
				{
					"inputs": [
						{
							"internalType": "uint256",
							"name": "id",
							"type": "uint256"
						},
						{
							"internalType": "string",
							"name": "nombre",
							"type": "string"
						},
						{
							"internalType": "string",
							"name": "descripcion",
							"type": "string"
						},
						{
							"internalType": "uint256",
							"name": "fecha",
							"type": "uint256"
						}
					],
					"name": "updateEvent",
					"outputs": [],
					"stateMutability": "nonpayable",
					"type": "function"
				}
			],
			"devdoc": {
				"kind": "dev",
				"methods": {},
				"version": 1
			},
			"evm": {
				"assembly": "    /* \"AgendaEventos.sol\":60:3043  contract AgendaEventos {... */\n  mstore(0x40, 0x80)\n  callvalue\n  dup1\n  iszero\n  tag_1\n  jumpi\n  revert(0x00, 0x00)\ntag_1:\n  pop\n  dataSize(sub_0)\n  dup1\n  dataOffset(sub_0)\n  0x00\n  codecopy\n  0x00\n  return\nstop\n\nsub_0: assembly {\n        /* \"AgendaEventos.sol\":60:3043  contract AgendaEventos {... */\n      mstore(0x40, 0x80)\n      callvalue\n      dup1\n      iszero\n      tag_1\n      jumpi\n      revert(0x00, 0x00)\n    tag_1:\n      pop\n      jumpi(tag_2, lt(calldatasize, 0x04))\n      shr(0xe0, calldataload(0x00))\n      dup1\n      0x5555fe17\n      eq\n      tag_3\n      jumpi\n      dup1\n      0x55d27a5c\n      eq\n      tag_4\n      jumpi\n      dup1\n      0x6d1884e0\n      eq\n      tag_5\n      jumpi\n      dup1\n      0x97116bca\n      eq\n      tag_6\n      jumpi\n      dup1\n      0xf8749a58\n      eq\n      tag_7\n      jumpi\n    tag_2:\n      revert(0x00, 0x00)\n        /* \"AgendaEventos.sol\":695:1157  function createEvent(string memory nombre, string memory descripcion, uint fecha) public {... */\n    tag_3:\n      tag_8\n      0x04\n      dup1\n      calldatasize\n      sub\n      dup2\n      add\n      swap1\n      tag_9\n      swap2\n      swap1\n      tag_10\n      jump\t// in\n    tag_9:\n      tag_11\n      jump\t// in\n    tag_8:\n      stop\n        /* \"AgendaEventos.sol\":2363:2890  function listEvents() public view returns (Evento[] memory) {... */\n    tag_4:\n      tag_12\n      tag_13\n      jump\t// in\n    tag_12:\n      mload(0x40)\n      tag_14\n      swap2\n      swap1\n      tag_15\n      jump\t// in\n    tag_14:\n      mload(0x40)\n      dup1\n      swap2\n      sub\n      swap1\n      return\n        /* \"AgendaEventos.sol\":1219:1529  function getEvent(uint id) public view returns (string memory, string memory, uint) {... */\n    tag_5:\n      tag_16\n      0x04\n      dup1\n      calldatasize\n      sub\n      dup2\n      add\n      swap1\n      tag_17\n      swap2\n      swap1\n      tag_18\n      jump\t// in\n    tag_17:\n      tag_19\n      jump\t// in\n    tag_16:\n      mload(0x40)\n      tag_20\n      swap4\n      swap3\n      swap2\n      swap1\n      tag_21\n      jump\t// in\n    tag_20:\n      mload(0x40)\n      dup1\n      swap2\n      sub\n      swap1\n      return\n        /* \"AgendaEventos.sol\":1593:1991  function updateEvent(uint id, string memory nombre, string memory descripcion, uint fecha) public {... */\n    tag_6:\n      tag_22\n      0x04\n      dup1\n      calldatasize\n      sub\n      dup2\n      add\n      swap1\n      tag_23\n      swap2\n      swap1\n      tag_24\n      jump\t// in\n    tag_23:\n      tag_25\n      jump\t// in\n    tag_22:\n      stop\n        /* \"AgendaEventos.sol\":2044:2290  function deleteEvent(uint id) public {... */\n    tag_7:\n      tag_26\n      0x04\n      dup1\n      calldatasize\n      sub\n      dup2\n      add\n      swap1\n      tag_27\n      swap2\n      swap1\n      tag_18\n      jump\t// in\n    tag_27:\n      tag_28\n      jump\t// in\n    tag_26:\n      stop\n        /* \"AgendaEventos.sol\":695:1157  function createEvent(string memory nombre, string memory descripcion, uint fecha) public {... */\n    tag_11:\n        /* \"AgendaEventos.sol\":926:966  Evento(nombre, descripcion, fecha, true) */\n      mload(0x40)\n      dup1\n      0x80\n      add\n      0x40\n      mstore\n      dup1\n        /* \"AgendaEventos.sol\":933:939  nombre */\n      dup5\n        /* \"AgendaEventos.sol\":926:966  Evento(nombre, descripcion, fecha, true) */\n      dup2\n      mstore\n      0x20\n      add\n        /* \"AgendaEventos.sol\":941:952  descripcion */\n      dup4\n        /* \"AgendaEventos.sol\":926:966  Evento(nombre, descripcion, fecha, true) */\n      dup2\n      mstore\n      0x20\n      add\n        /* \"AgendaEventos.sol\":954:959  fecha */\n      dup3\n        /* \"AgendaEventos.sol\":926:966  Evento(nombre, descripcion, fecha, true) */\n      dup2\n      mstore\n      0x20\n      add\n        /* \"AgendaEventos.sol\":961:965  true */\n      0x01\n        /* \"AgendaEventos.sol\":926:966  Evento(nombre, descripcion, fecha, true) */\n      iszero\n      iszero\n      dup2\n      mstore\n      pop\n        /* \"AgendaEventos.sol\":875:882  eventos */\n      0x00\n        /* \"AgendaEventos.sol\":875:894  eventos[msg.sender] */\n      0x00\n        /* \"AgendaEventos.sol\":883:893  msg.sender */\n      caller\n        /* \"AgendaEventos.sol\":875:894  eventos[msg.sender] */\n      0xffffffffffffffffffffffffffffffffffffffff\n      and\n      0xffffffffffffffffffffffffffffffffffffffff\n      and\n      dup2\n      mstore\n      0x20\n      add\n      swap1\n      dup2\n      mstore\n      0x20\n      add\n      0x00\n      keccak256\n        /* \"AgendaEventos.sol\":875:923  eventos[msg.sender][contadorEventos[msg.sender]] */\n      0x00\n        /* \"AgendaEventos.sol\":895:910  contadorEventos */\n      0x01\n        /* \"AgendaEventos.sol\":895:922  contadorEventos[msg.sender] */\n      0x00\n        /* \"AgendaEventos.sol\":911:921  msg.sender */\n      caller\n        /* \"AgendaEventos.sol\":895:922  contadorEventos[msg.sender] */\n      0xffffffffffffffffffffffffffffffffffffffff\n      and\n      0xffffffffffffffffffffffffffffffffffffffff\n      and\n      dup2\n      mstore\n      0x20\n      add\n      swap1\n      dup2\n      mstore\n      0x20\n      add\n      0x00\n      keccak256\n      sload\n        /* \"AgendaEventos.sol\":875:923  eventos[msg.sender][contadorEventos[msg.sender]] */\n      dup2\n      mstore\n      0x20\n      add\n      swap1\n      dup2\n      mstore\n      0x20\n      add\n      0x00\n      keccak256\n        /* \"AgendaEventos.sol\":875:966  eventos[msg.sender][contadorEventos[msg.sender]] = Evento(nombre, descripcion, fecha, true) */\n      0x00\n      dup3\n      add\n      mload\n      dup2\n      0x00\n      add\n      swap1\n      dup2\n      tag_30\n      swap2\n      swap1\n      tag_31\n      jump\t// in\n    tag_30:\n      pop\n      0x20\n      dup3\n      add\n      mload\n      dup2\n      0x01\n      add\n      swap1\n      dup2\n      tag_32\n      swap2\n      swap1\n      tag_31\n      jump\t// in\n    tag_32:\n      pop\n      0x40\n      dup3\n      add\n      mload\n      dup2\n      0x02\n      add\n      sstore\n      0x60\n      dup3\n      add\n      mload\n      dup2\n      0x03\n      add\n      exp(0x0100, 0x00)\n      dup2\n      sload\n      dup2\n      0xff\n      mul\n      not\n      and\n      swap1\n      dup4\n      iszero\n      iszero\n      mul\n      or\n      swap1\n      sstore\n      pop\n      swap1\n      pop\n      pop\n        /* \"AgendaEventos.sol\":995:1005  msg.sender */\n      caller\n        /* \"AgendaEventos.sol\":982:1043  EventoCreado(msg.sender, contadorEventos[msg.sender], nombre) */\n      0xffffffffffffffffffffffffffffffffffffffff\n      and\n      0x2d6b28a8aa465ea8ef959ffa368300fb581a01072a789f5dafb1a34f97125b00\n        /* \"AgendaEventos.sol\":1007:1022  contadorEventos */\n      0x01\n        /* \"AgendaEventos.sol\":1007:1034  contadorEventos[msg.sender] */\n      0x00\n        /* \"AgendaEventos.sol\":1023:1033  msg.sender */\n      caller\n        /* \"AgendaEventos.sol\":1007:1034  contadorEventos[msg.sender] */\n      0xffffffffffffffffffffffffffffffffffffffff\n      and\n      0xffffffffffffffffffffffffffffffffffffffff\n      and\n      dup2\n      mstore\n      0x20\n      add\n      swap1\n      dup2\n      mstore\n      0x20\n      add\n      0x00\n      keccak256\n      sload\n        /* \"AgendaEventos.sol\":1036:1042  nombre */\n      dup6\n        /* \"AgendaEventos.sol\":982:1043  EventoCreado(msg.sender, contadorEventos[msg.sender], nombre) */\n      mload(0x40)\n      tag_33\n      swap3\n      swap2\n      swap1\n      tag_34\n      jump\t// in\n    tag_33:\n      mload(0x40)\n      dup1\n      swap2\n      sub\n      swap1\n      log2\n        /* \"AgendaEventos.sol\":1120:1135  contadorEventos */\n      0x01\n        /* \"AgendaEventos.sol\":1120:1147  contadorEventos[msg.sender] */\n      0x00\n        /* \"AgendaEventos.sol\":1136:1146  msg.sender */\n      caller\n        /* \"AgendaEventos.sol\":1120:1147  contadorEventos[msg.sender] */\n      0xffffffffffffffffffffffffffffffffffffffff\n      and\n      0xffffffffffffffffffffffffffffffffffffffff\n      and\n      dup2\n      mstore\n      0x20\n      add\n      swap1\n      dup2\n      mstore\n      0x20\n      add\n      0x00\n      keccak256\n      0x00\n        /* \"AgendaEventos.sol\":1120:1149  contadorEventos[msg.sender]++ */\n      dup2\n      sload\n      dup1\n      swap3\n      swap2\n      swap1\n      tag_35\n      swap1\n      tag_36\n      jump\t// in\n    tag_35:\n      swap2\n      swap1\n      pop\n      sstore\n      pop\n        /* \"AgendaEventos.sol\":695:1157  function createEvent(string memory nombre, string memory descripcion, uint fecha) public {... */\n      pop\n      pop\n      pop\n      jump\t// out\n        /* \"AgendaEventos.sol\":2363:2890  function listEvents() public view returns (Evento[] memory) {... */\n    tag_13:\n        /* \"AgendaEventos.sol\":2406:2421  Evento[] memory */\n      0x60\n        /* \"AgendaEventos.sol\":2490:2505  uint numEventos */\n      0x00\n        /* \"AgendaEventos.sol\":2508:2523  contadorEventos */\n      0x01\n        /* \"AgendaEventos.sol\":2508:2535  contadorEventos[msg.sender] */\n      0x00\n        /* \"AgendaEventos.sol\":2524:2534  msg.sender */\n      caller\n        /* \"AgendaEventos.sol\":2508:2535  contadorEventos[msg.sender] */\n      0xffffffffffffffffffffffffffffffffffffffff\n      and\n      0xffffffffffffffffffffffffffffffffffffffff\n      and\n      dup2\n      mstore\n      0x20\n      add\n      swap1\n      dup2\n      mstore\n      0x20\n      add\n      0x00\n      keccak256\n      sload\n        /* \"AgendaEventos.sol\":2490:2535  uint numEventos = contadorEventos[msg.sender] */\n      swap1\n      pop\n        /* \"AgendaEventos.sol\":2614:2644  Evento[] memory eventosUsuario */\n      0x00\n        /* \"AgendaEventos.sol\":2660:2670  numEventos */\n      dup2\n        /* \"AgendaEventos.sol\":2647:2671  new Evento[](numEventos) */\n      0xffffffffffffffff\n      dup2\n      gt\n      iszero\n      tag_38\n      jumpi\n      tag_39\n      tag_40\n      jump\t// in\n    tag_39:\n    tag_38:\n      mload(0x40)\n      swap1\n      dup1\n      dup3\n      mstore\n      dup1\n      0x20\n      mul\n      0x20\n      add\n      dup3\n      add\n      0x40\n      mstore\n      dup1\n      iszero\n      tag_41\n      jumpi\n      dup2\n      0x20\n      add\n    tag_42:\n      tag_43\n      tag_44\n      jump\t// in\n    tag_43:\n      dup2\n      mstore\n      0x20\n      add\n      swap1\n      0x01\n      swap1\n      sub\n      swap1\n      dup2\n      tag_42\n      jumpi\n      swap1\n      pop\n    tag_41:\n      pop\n        /* \"AgendaEventos.sol\":2614:2671  Evento[] memory eventosUsuario = new Evento[](numEventos) */\n      swap1\n      pop\n        /* \"AgendaEventos.sol\":2747:2753  uint i */\n      0x00\n        /* \"AgendaEventos.sol\":2756:2757  0 */\n      0x00\n        /* \"AgendaEventos.sol\":2747:2757  uint i = 0 */\n      swap1\n      pop\n        /* \"AgendaEventos.sol\":2742:2849  for (uint i = 0; i < numEventos; i++) {... */\n    tag_45:\n        /* \"AgendaEventos.sol\":2763:2773  numEventos */\n      dup3\n        /* \"AgendaEventos.sol\":2759:2760  i */\n      dup2\n        /* \"AgendaEventos.sol\":2759:2773  i < numEventos */\n      lt\n        /* \"AgendaEventos.sol\":2742:2849  for (uint i = 0; i < numEventos; i++) {... */\n      iszero\n      tag_46\n      jumpi\n        /* \"AgendaEventos.sol\":2815:2822  eventos */\n      0x00\n        /* \"AgendaEventos.sol\":2815:2834  eventos[msg.sender] */\n      0x00\n        /* \"AgendaEventos.sol\":2823:2833  msg.sender */\n      caller\n        /* \"AgendaEventos.sol\":2815:2834  eventos[msg.sender] */\n      0xffffffffffffffffffffffffffffffffffffffff\n      and\n      0xffffffffffffffffffffffffffffffffffffffff\n      and\n      dup2\n      mstore\n      0x20\n      add\n      swap1\n      dup2\n      mstore\n      0x20\n      add\n      0x00\n      keccak256\n        /* \"AgendaEventos.sol\":2815:2837  eventos[msg.sender][i] */\n      0x00\n        /* \"AgendaEventos.sol\":2835:2836  i */\n      dup3\n        /* \"AgendaEventos.sol\":2815:2837  eventos[msg.sender][i] */\n      dup2\n      mstore\n      0x20\n      add\n      swap1\n      dup2\n      mstore\n      0x20\n      add\n      0x00\n      keccak256\n        /* \"AgendaEventos.sol\":2795:2837  eventosUsuario[i] = eventos[msg.sender][i] */\n      mload(0x40)\n      dup1\n      0x80\n      add\n      0x40\n      mstore\n      swap1\n      dup2\n      0x00\n      dup3\n      add\n      dup1\n      sload\n      tag_48\n      swap1\n      tag_49\n      jump\t// in\n    tag_48:\n      dup1\n      0x1f\n      add\n      0x20\n      dup1\n      swap2\n      div\n      mul\n      0x20\n      add\n      mload(0x40)\n      swap1\n      dup2\n      add\n      0x40\n      mstore\n      dup1\n      swap3\n      swap2\n      swap1\n      dup2\n      dup2\n      mstore\n      0x20\n      add\n      dup3\n      dup1\n      sload\n      tag_50\n      swap1\n      tag_49\n      jump\t// in\n    tag_50:\n      dup1\n      iszero\n      tag_51\n      jumpi\n      dup1\n      0x1f\n      lt\n      tag_52\n      jumpi\n      0x0100\n      dup1\n      dup4\n      sload\n      div\n      mul\n      dup4\n      mstore\n      swap2\n      0x20\n      add\n      swap2\n      jump(tag_51)\n    tag_52:\n      dup3\n      add\n      swap2\n      swap1\n      0x00\n      mstore\n      keccak256(0x00, 0x20)\n      swap1\n    tag_53:\n      dup2\n      sload\n      dup2\n      mstore\n      swap1\n      0x01\n      add\n      swap1\n      0x20\n      add\n      dup1\n      dup4\n      gt\n      tag_53\n      jumpi\n      dup3\n      swap1\n      sub\n      0x1f\n      and\n      dup3\n      add\n      swap2\n    tag_51:\n      pop\n      pop\n      pop\n      pop\n      pop\n      dup2\n      mstore\n      0x20\n      add\n      0x01\n      dup3\n      add\n      dup1\n      sload\n      tag_54\n      swap1\n      tag_49\n      jump\t// in\n    tag_54:\n      dup1\n      0x1f\n      add\n      0x20\n      dup1\n      swap2\n      div\n      mul\n      0x20\n      add\n      mload(0x40)\n      swap1\n      dup2\n      add\n      0x40\n      mstore\n      dup1\n      swap3\n      swap2\n      swap1\n      dup2\n      dup2\n      mstore\n      0x20\n      add\n      dup3\n      dup1\n      sload\n      tag_55\n      swap1\n      tag_49\n      jump\t// in\n    tag_55:\n      dup1\n      iszero\n      tag_56\n      jumpi\n      dup1\n      0x1f\n      lt\n      tag_57\n      jumpi\n      0x0100\n      dup1\n      dup4\n      sload\n      div\n      mul\n      dup4\n      mstore\n      swap2\n      0x20\n      add\n      swap2\n      jump(tag_56)\n    tag_57:\n      dup3\n      add\n      swap2\n      swap1\n      0x00\n      mstore\n      keccak256(0x00, 0x20)\n      swap1\n    tag_58:\n      dup2\n      sload\n      dup2\n      mstore\n      swap1\n      0x01\n      add\n      swap1\n      0x20\n      add\n      dup1\n      dup4\n      gt\n      tag_58\n      jumpi\n      dup3\n      swap1\n      sub\n      0x1f\n      and\n      dup3\n      add\n      swap2\n    tag_56:\n      pop\n      pop\n      pop\n      pop\n      pop\n      dup2\n      mstore\n      0x20\n      add\n      0x02\n      dup3\n      add\n      sload\n      dup2\n      mstore\n      0x20\n      add\n      0x03\n      dup3\n      add\n      0x00\n      swap1\n      sload\n      swap1\n      0x0100\n      exp\n      swap1\n      div\n      0xff\n      and\n      iszero\n      iszero\n      iszero\n      iszero\n      dup2\n      mstore\n      pop\n      pop\n        /* \"AgendaEventos.sol\":2795:2809  eventosUsuario */\n      dup3\n        /* \"AgendaEventos.sol\":2810:2811  i */\n      dup3\n        /* \"AgendaEventos.sol\":2795:2812  eventosUsuario[i] */\n      dup2\n      mload\n      dup2\n      lt\n      tag_59\n      jumpi\n      tag_60\n      tag_61\n      jump\t// in\n    tag_60:\n    tag_59:\n      0x20\n      mul\n      0x20\n      add\n      add\n        /* \"AgendaEventos.sol\":2795:2837  eventosUsuario[i] = eventos[msg.sender][i] */\n      dup2\n      swap1\n      mstore\n      pop\n        /* \"AgendaEventos.sol\":2775:2778  i++ */\n      dup1\n      dup1\n      0x01\n      add\n      swap2\n      pop\n      pop\n        /* \"AgendaEventos.sol\":2742:2849  for (uint i = 0; i < numEventos; i++) {... */\n      jump(tag_45)\n    tag_46:\n      pop\n        /* \"AgendaEventos.sol\":2868:2882  eventosUsuario */\n      dup1\n        /* \"AgendaEventos.sol\":2861:2882  return eventosUsuario */\n      swap3\n      pop\n      pop\n      pop\n        /* \"AgendaEventos.sol\":2363:2890  function listEvents() public view returns (Evento[] memory) {... */\n      swap1\n      jump\t// out\n        /* \"AgendaEventos.sol\":1219:1529  function getEvent(uint id) public view returns (string memory, string memory, uint) {... */\n    tag_19:\n        /* \"AgendaEventos.sol\":1267:1280  string memory */\n      0x60\n        /* \"AgendaEventos.sol\":1282:1295  string memory */\n      dup1\n        /* \"AgendaEventos.sol\":1297:1301  uint */\n      0x00\n        /* \"AgendaEventos.sol\":1365:1372  eventos */\n      0x00\n        /* \"AgendaEventos.sol\":1365:1384  eventos[msg.sender] */\n      0x00\n        /* \"AgendaEventos.sol\":1373:1383  msg.sender */\n      caller\n        /* \"AgendaEventos.sol\":1365:1384  eventos[msg.sender] */\n      0xffffffffffffffffffffffffffffffffffffffff\n      and\n      0xffffffffffffffffffffffffffffffffffffffff\n      and\n      dup2\n      mstore\n      0x20\n      add\n      swap1\n      dup2\n      mstore\n      0x20\n      add\n      0x00\n      keccak256\n        /* \"AgendaEventos.sol\":1365:1388  eventos[msg.sender][id] */\n      0x00\n        /* \"AgendaEventos.sol\":1385:1387  id */\n      dup6\n        /* \"AgendaEventos.sol\":1365:1388  eventos[msg.sender][id] */\n      dup2\n      mstore\n      0x20\n      add\n      swap1\n      dup2\n      mstore\n      0x20\n      add\n      0x00\n      keccak256\n        /* \"AgendaEventos.sol\":1365:1395  eventos[msg.sender][id].existe */\n      0x03\n      add\n      0x00\n      swap1\n      sload\n      swap1\n      0x0100\n      exp\n      swap1\n      div\n      0xff\n      and\n        /* \"AgendaEventos.sol\":1357:1416  require(eventos[msg.sender][id].existe, \"Evento no existe\") */\n      tag_63\n      jumpi\n      mload(0x40)\n      0x08c379a000000000000000000000000000000000000000000000000000000000\n      dup2\n      mstore\n      0x04\n      add\n      tag_64\n      swap1\n      tag_65\n      jump\t// in\n    tag_64:\n      mload(0x40)\n      dup1\n      swap2\n      sub\n      swap1\n      revert\n    tag_63:\n        /* \"AgendaEventos.sol\":1427:1443  Evento storage e */\n      0x00\n        /* \"AgendaEventos.sol\":1446:1453  eventos */\n      0x00\n        /* \"AgendaEventos.sol\":1446:1465  eventos[msg.sender] */\n      0x00\n        /* \"AgendaEventos.sol\":1454:1464  msg.sender */\n      caller\n        /* \"AgendaEventos.sol\":1446:1465  eventos[msg.sender] */\n      0xffffffffffffffffffffffffffffffffffffffff\n      and\n      0xffffffffffffffffffffffffffffffffffffffff\n      and\n      dup2\n      mstore\n      0x20\n      add\n      swap1\n      dup2\n      mstore\n      0x20\n      add\n      0x00\n      keccak256\n        /* \"AgendaEventos.sol\":1446:1469  eventos[msg.sender][id] */\n      0x00\n        /* \"AgendaEventos.sol\":1466:1468  id */\n      dup7\n        /* \"AgendaEventos.sol\":1446:1469  eventos[msg.sender][id] */\n      dup2\n      mstore\n      0x20\n      add\n      swap1\n      dup2\n      mstore\n      0x20\n      add\n      0x00\n      keccak256\n        /* \"AgendaEventos.sol\":1427:1469  Evento storage e = eventos[msg.sender][id] */\n      swap1\n      pop\n        /* \"AgendaEventos.sol\":1488:1489  e */\n      dup1\n        /* \"AgendaEventos.sol\":1488:1496  e.nombre */\n      0x00\n      add\n        /* \"AgendaEventos.sol\":1498:1499  e */\n      dup2\n        /* \"AgendaEventos.sol\":1498:1511  e.descripcion */\n      0x01\n      add\n        /* \"AgendaEventos.sol\":1513:1514  e */\n      dup3\n        /* \"AgendaEventos.sol\":1513:1520  e.fecha */\n      0x02\n      add\n      sload\n        /* \"AgendaEventos.sol\":1480:1521  return (e.nombre, e.descripcion, e.fecha) */\n      dup3\n      dup1\n      sload\n      tag_66\n      swap1\n      tag_49\n      jump\t// in\n    tag_66:\n      dup1\n      0x1f\n      add\n      0x20\n      dup1\n      swap2\n      div\n      mul\n      0x20\n      add\n      mload(0x40)\n      swap1\n      dup2\n      add\n      0x40\n      mstore\n      dup1\n      swap3\n      swap2\n      swap1\n      dup2\n      dup2\n      mstore\n      0x20\n      add\n      dup3\n      dup1\n      sload\n      tag_67\n      swap1\n      tag_49\n      jump\t// in\n    tag_67:\n      dup1\n      iszero\n      tag_68\n      jumpi\n      dup1\n      0x1f\n      lt\n      tag_69\n      jumpi\n      0x0100\n      dup1\n      dup4\n      sload\n      div\n      mul\n      dup4\n      mstore\n      swap2\n      0x20\n      add\n      swap2\n      jump(tag_68)\n    tag_69:\n      dup3\n      add\n      swap2\n      swap1\n      0x00\n      mstore\n      keccak256(0x00, 0x20)\n      swap1\n    tag_70:\n      dup2\n      sload\n      dup2\n      mstore\n      swap1\n      0x01\n      add\n      swap1\n      0x20\n      add\n      dup1\n      dup4\n      gt\n      tag_70\n      jumpi\n      dup3\n      swap1\n      sub\n      0x1f\n      and\n      dup3\n      add\n      swap2\n    tag_68:\n      pop\n      pop\n      pop\n      pop\n      pop\n      swap3\n      pop\n      dup2\n      dup1\n      sload\n      tag_71\n      swap1\n      tag_49\n      jump\t// in\n    tag_71:\n      dup1\n      0x1f\n      add\n      0x20\n      dup1\n      swap2\n      div\n      mul\n      0x20\n      add\n      mload(0x40)\n      swap1\n      dup2\n      add\n      0x40\n      mstore\n      dup1\n      swap3\n      swap2\n      swap1\n      dup2\n      dup2\n      mstore\n      0x20\n      add\n      dup3\n      dup1\n      sload\n      tag_72\n      swap1\n      tag_49\n      jump\t// in\n    tag_72:\n      dup1\n      iszero\n      tag_73\n      jumpi\n      dup1\n      0x1f\n      lt\n      tag_74\n      jumpi\n      0x0100\n      dup1\n      dup4\n      sload\n      div\n      mul\n      dup4\n      mstore\n      swap2\n      0x20\n      add\n      swap2\n      jump(tag_73)\n    tag_74:\n      dup3\n      add\n      swap2\n      swap1\n      0x00\n      mstore\n      keccak256(0x00, 0x20)\n      swap1\n    tag_75:\n      dup2\n      sload\n      dup2\n      mstore\n      swap1\n      0x01\n      add\n      swap1\n      0x20\n      add\n      dup1\n      dup4\n      gt\n      tag_75\n      jumpi\n      dup3\n      swap1\n      sub\n      0x1f\n      and\n      dup3\n      add\n      swap2\n    tag_73:\n      pop\n      pop\n      pop\n      pop\n      pop\n      swap2\n      pop\n      swap4\n      pop\n      swap4\n      pop\n      swap4\n      pop\n      pop\n        /* \"AgendaEventos.sol\":1219:1529  function getEvent(uint id) public view returns (string memory, string memory, uint) {... */\n      swap2\n      swap4\n      swap1\n      swap3\n      pop\n      jump\t// out\n        /* \"AgendaEventos.sol\":1593:1991  function updateEvent(uint id, string memory nombre, string memory descripcion, uint fecha) public {... */\n    tag_25:\n        /* \"AgendaEventos.sol\":1753:1760  eventos */\n      0x00\n        /* \"AgendaEventos.sol\":1753:1772  eventos[msg.sender] */\n      0x00\n        /* \"AgendaEventos.sol\":1761:1771  msg.sender */\n      caller\n        /* \"AgendaEventos.sol\":1753:1772  eventos[msg.sender] */\n      0xffffffffffffffffffffffffffffffffffffffff\n      and\n      0xffffffffffffffffffffffffffffffffffffffff\n      and\n      dup2\n      mstore\n      0x20\n      add\n      swap1\n      dup2\n      mstore\n      0x20\n      add\n      0x00\n      keccak256\n        /* \"AgendaEventos.sol\":1753:1776  eventos[msg.sender][id] */\n      0x00\n        /* \"AgendaEventos.sol\":1773:1775  id */\n      dup6\n        /* \"AgendaEventos.sol\":1753:1776  eventos[msg.sender][id] */\n      dup2\n      mstore\n      0x20\n      add\n      swap1\n      dup2\n      mstore\n      0x20\n      add\n      0x00\n      keccak256\n        /* \"AgendaEventos.sol\":1753:1783  eventos[msg.sender][id].existe */\n      0x03\n      add\n      0x00\n      swap1\n      sload\n      swap1\n      0x0100\n      exp\n      swap1\n      div\n      0xff\n      and\n        /* \"AgendaEventos.sol\":1745:1804  require(eventos[msg.sender][id].existe, \"Evento no existe\") */\n      tag_77\n      jumpi\n      mload(0x40)\n      0x08c379a000000000000000000000000000000000000000000000000000000000\n      dup2\n      mstore\n      0x04\n      add\n      tag_78\n      swap1\n      tag_65\n      jump\t// in\n    tag_78:\n      mload(0x40)\n      dup1\n      swap2\n      sub\n      swap1\n      revert\n    tag_77:\n        /* \"AgendaEventos.sol\":1887:1927  Evento(nombre, descripcion, fecha, true) */\n      mload(0x40)\n      dup1\n      0x80\n      add\n      0x40\n      mstore\n      dup1\n        /* \"AgendaEventos.sol\":1894:1900  nombre */\n      dup5\n        /* \"AgendaEventos.sol\":1887:1927  Evento(nombre, descripcion, fecha, true) */\n      dup2\n      mstore\n      0x20\n      add\n        /* \"AgendaEventos.sol\":1902:1913  descripcion */\n      dup4\n        /* \"AgendaEventos.sol\":1887:1927  Evento(nombre, descripcion, fecha, true) */\n      dup2\n      mstore\n      0x20\n      add\n        /* \"AgendaEventos.sol\":1915:1920  fecha */\n      dup3\n        /* \"AgendaEventos.sol\":1887:1927  Evento(nombre, descripcion, fecha, true) */\n      dup2\n      mstore\n      0x20\n      add\n        /* \"AgendaEventos.sol\":1922:1926  true */\n      0x01\n        /* \"AgendaEventos.sol\":1887:1927  Evento(nombre, descripcion, fecha, true) */\n      iszero\n      iszero\n      dup2\n      mstore\n      pop\n        /* \"AgendaEventos.sol\":1861:1868  eventos */\n      0x00\n        /* \"AgendaEventos.sol\":1861:1880  eventos[msg.sender] */\n      0x00\n        /* \"AgendaEventos.sol\":1869:1879  msg.sender */\n      caller\n        /* \"AgendaEventos.sol\":1861:1880  eventos[msg.sender] */\n      0xffffffffffffffffffffffffffffffffffffffff\n      and\n      0xffffffffffffffffffffffffffffffffffffffff\n      and\n      dup2\n      mstore\n      0x20\n      add\n      swap1\n      dup2\n      mstore\n      0x20\n      add\n      0x00\n      keccak256\n        /* \"AgendaEventos.sol\":1861:1884  eventos[msg.sender][id] */\n      0x00\n        /* \"AgendaEventos.sol\":1881:1883  id */\n      dup7\n        /* \"AgendaEventos.sol\":1861:1884  eventos[msg.sender][id] */\n      dup2\n      mstore\n      0x20\n      add\n      swap1\n      dup2\n      mstore\n      0x20\n      add\n      0x00\n      keccak256\n        /* \"AgendaEventos.sol\":1861:1927  eventos[msg.sender][id] = Evento(nombre, descripcion, fecha, true) */\n      0x00\n      dup3\n      add\n      mload\n      dup2\n      0x00\n      add\n      swap1\n      dup2\n      tag_79\n      swap2\n      swap1\n      tag_31\n      jump\t// in\n    tag_79:\n      pop\n      0x20\n      dup3\n      add\n      mload\n      dup2\n      0x01\n      add\n      swap1\n      dup2\n      tag_80\n      swap2\n      swap1\n      tag_31\n      jump\t// in\n    tag_80:\n      pop\n      0x40\n      dup3\n      add\n      mload\n      dup2\n      0x02\n      add\n      sstore\n      0x60\n      dup3\n      add\n      mload\n      dup2\n      0x03\n      add\n      exp(0x0100, 0x00)\n      dup2\n      sload\n      dup2\n      0xff\n      mul\n      not\n      and\n      swap1\n      dup4\n      iszero\n      iszero\n      mul\n      or\n      swap1\n      sstore\n      pop\n      swap1\n      pop\n      pop\n        /* \"AgendaEventos.sol\":1960:1970  msg.sender */\n      caller\n        /* \"AgendaEventos.sol\":1943:1983  EventoModificado(msg.sender, id, nombre) */\n      0xffffffffffffffffffffffffffffffffffffffff\n      and\n      0x580f21ba5ac386015e66e7cafbca44f69f33ac115522371f34ff2cee5a0efd22\n        /* \"AgendaEventos.sol\":1972:1974  id */\n      dup6\n        /* \"AgendaEventos.sol\":1976:1982  nombre */\n      dup6\n        /* \"AgendaEventos.sol\":1943:1983  EventoModificado(msg.sender, id, nombre) */\n      mload(0x40)\n      tag_81\n      swap3\n      swap2\n      swap1\n      tag_34\n      jump\t// in\n    tag_81:\n      mload(0x40)\n      dup1\n      swap2\n      sub\n      swap1\n      log2\n        /* \"AgendaEventos.sol\":1593:1991  function updateEvent(uint id, string memory nombre, string memory descripcion, uint fecha) public {... */\n      pop\n      pop\n      pop\n      pop\n      jump\t// out\n        /* \"AgendaEventos.sol\":2044:2290  function deleteEvent(uint id) public {... */\n    tag_28:\n        /* \"AgendaEventos.sol\":2143:2150  eventos */\n      0x00\n        /* \"AgendaEventos.sol\":2143:2162  eventos[msg.sender] */\n      0x00\n        /* \"AgendaEventos.sol\":2151:2161  msg.sender */\n      caller\n        /* \"AgendaEventos.sol\":2143:2162  eventos[msg.sender] */\n      0xffffffffffffffffffffffffffffffffffffffff\n      and\n      0xffffffffffffffffffffffffffffffffffffffff\n      and\n      dup2\n      mstore\n      0x20\n      add\n      swap1\n      dup2\n      mstore\n      0x20\n      add\n      0x00\n      keccak256\n        /* \"AgendaEventos.sol\":2143:2166  eventos[msg.sender][id] */\n      0x00\n        /* \"AgendaEventos.sol\":2163:2165  id */\n      dup3\n        /* \"AgendaEventos.sol\":2143:2166  eventos[msg.sender][id] */\n      dup2\n      mstore\n      0x20\n      add\n      swap1\n      dup2\n      mstore\n      0x20\n      add\n      0x00\n      keccak256\n        /* \"AgendaEventos.sol\":2143:2173  eventos[msg.sender][id].existe */\n      0x03\n      add\n      0x00\n      swap1\n      sload\n      swap1\n      0x0100\n      exp\n      swap1\n      div\n      0xff\n      and\n        /* \"AgendaEventos.sol\":2135:2194  require(eventos[msg.sender][id].existe, \"Evento no existe\") */\n      tag_83\n      jumpi\n      mload(0x40)\n      0x08c379a000000000000000000000000000000000000000000000000000000000\n      dup2\n      mstore\n      0x04\n      add\n      tag_84\n      swap1\n      tag_65\n      jump\t// in\n    tag_84:\n      mload(0x40)\n      dup1\n      swap2\n      sub\n      swap1\n      revert\n    tag_83:\n        /* \"AgendaEventos.sol\":2212:2219  eventos */\n      0x00\n        /* \"AgendaEventos.sol\":2212:2231  eventos[msg.sender] */\n      0x00\n        /* \"AgendaEventos.sol\":2220:2230  msg.sender */\n      caller\n        /* \"AgendaEventos.sol\":2212:2231  eventos[msg.sender] */\n      0xffffffffffffffffffffffffffffffffffffffff\n      and\n      0xffffffffffffffffffffffffffffffffffffffff\n      and\n      dup2\n      mstore\n      0x20\n      add\n      swap1\n      dup2\n      mstore\n      0x20\n      add\n      0x00\n      keccak256\n        /* \"AgendaEventos.sol\":2212:2235  eventos[msg.sender][id] */\n      0x00\n        /* \"AgendaEventos.sol\":2232:2234  id */\n      dup3\n        /* \"AgendaEventos.sol\":2212:2235  eventos[msg.sender][id] */\n      dup2\n      mstore\n      0x20\n      add\n      swap1\n      dup2\n      mstore\n      0x20\n      add\n      0x00\n      keccak256\n      0x00\n        /* \"AgendaEventos.sol\":2205:2235  delete eventos[msg.sender][id] */\n      0x00\n      dup3\n      add\n      0x00\n      tag_85\n      swap2\n      swap1\n      tag_86\n      jump\t// in\n    tag_85:\n      0x01\n      dup3\n      add\n      0x00\n      tag_87\n      swap2\n      swap1\n      tag_86\n      jump\t// in\n    tag_87:\n      0x02\n      dup3\n      add\n      0x00\n      swap1\n      sstore\n      0x03\n      dup3\n      add\n      exp(0x0100, 0x00)\n      dup2\n      sload\n      swap1\n      0xff\n      mul\n      not\n      and\n      swap1\n      sstore\n      pop\n      pop\n        /* \"AgendaEventos.sol\":2267:2277  msg.sender */\n      caller\n        /* \"AgendaEventos.sol\":2251:2282  EventoEliminado(msg.sender, id) */\n      0xffffffffffffffffffffffffffffffffffffffff\n      and\n      0x485a32ab922f212c1c1ef5f52f142ca88fdba8cf46d8dfcda744922c234fb448\n        /* \"AgendaEventos.sol\":2279:2281  id */\n      dup3\n        /* \"AgendaEventos.sol\":2251:2282  EventoEliminado(msg.sender, id) */\n      mload(0x40)\n      tag_88\n      swap2\n      swap1\n      tag_89\n      jump\t// in\n    tag_88:\n      mload(0x40)\n      dup1\n      swap2\n      sub\n      swap1\n      log2\n        /* \"AgendaEventos.sol\":2044:2290  function deleteEvent(uint id) public {... */\n      pop\n      jump\t// out\n    tag_44:\n      mload(0x40)\n      dup1\n      0x80\n      add\n      0x40\n      mstore\n      dup1\n      0x60\n      dup2\n      mstore\n      0x20\n      add\n      0x60\n      dup2\n      mstore\n      0x20\n      add\n      0x00\n      dup2\n      mstore\n      0x20\n      add\n      iszero(iszero(0x00))\n      dup2\n      mstore\n      pop\n      swap1\n      jump\t// out\n    tag_86:\n      pop\n      dup1\n      sload\n      tag_90\n      swap1\n      tag_49\n      jump\t// in\n    tag_90:\n      0x00\n      dup3\n      sstore\n      dup1\n      0x1f\n      lt\n      tag_92\n      jumpi\n      pop\n      jump(tag_91)\n    tag_92:\n      0x1f\n      add\n      0x20\n      swap1\n      div\n      swap1\n      0x00\n      mstore\n      keccak256(0x00, 0x20)\n      swap1\n      dup2\n      add\n      swap1\n      tag_93\n      swap2\n      swap1\n      tag_94\n      jump\t// in\n    tag_93:\n    tag_91:\n      pop\n      jump\t// out\n    tag_94:\n    tag_95:\n      dup1\n      dup3\n      gt\n      iszero\n      tag_96\n      jumpi\n      0x00\n      dup2\n      0x00\n      swap1\n      sstore\n      pop\n      0x01\n      add\n      jump(tag_95)\n    tag_96:\n      pop\n      swap1\n      jump\t// out\n        /* \"#utility.yul\":7:82   */\n    tag_97:\n        /* \"#utility.yul\":40:46   */\n      0x00\n        /* \"#utility.yul\":73:75   */\n      0x40\n        /* \"#utility.yul\":67:76   */\n      mload\n        /* \"#utility.yul\":57:76   */\n      swap1\n      pop\n        /* \"#utility.yul\":7:82   */\n      swap1\n      jump\t// out\n        /* \"#utility.yul\":88:205   */\n    tag_98:\n        /* \"#utility.yul\":197:198   */\n      0x00\n        /* \"#utility.yul\":194:195   */\n      0x00\n        /* \"#utility.yul\":187:199   */\n      revert\n        /* \"#utility.yul\":211:328   */\n    tag_99:\n        /* \"#utility.yul\":320:321   */\n      0x00\n        /* \"#utility.yul\":317:318   */\n      0x00\n        /* \"#utility.yul\":310:322   */\n      revert\n        /* \"#utility.yul\":334:451   */\n    tag_100:\n        /* \"#utility.yul\":443:444   */\n      0x00\n        /* \"#utility.yul\":440:441   */\n      0x00\n        /* \"#utility.yul\":433:445   */\n      revert\n        /* \"#utility.yul\":457:574   */\n    tag_101:\n        /* \"#utility.yul\":566:567   */\n      0x00\n        /* \"#utility.yul\":563:564   */\n      0x00\n        /* \"#utility.yul\":556:568   */\n      revert\n        /* \"#utility.yul\":580:682   */\n    tag_102:\n        /* \"#utility.yul\":621:627   */\n      0x00\n        /* \"#utility.yul\":672:674   */\n      0x1f\n        /* \"#utility.yul\":668:675   */\n      not\n        /* \"#utility.yul\":663:665   */\n      0x1f\n        /* \"#utility.yul\":656:661   */\n      dup4\n        /* \"#utility.yul\":652:666   */\n      add\n        /* \"#utility.yul\":648:676   */\n      and\n        /* \"#utility.yul\":638:676   */\n      swap1\n      pop\n        /* \"#utility.yul\":580:682   */\n      swap2\n      swap1\n      pop\n      jump\t// out\n        /* \"#utility.yul\":688:868   */\n    tag_40:\n        /* \"#utility.yul\":736:813   */\n      0x4e487b7100000000000000000000000000000000000000000000000000000000\n        /* \"#utility.yul\":733:734   */\n      0x00\n        /* \"#utility.yul\":726:814   */\n      mstore\n        /* \"#utility.yul\":833:837   */\n      0x41\n        /* \"#utility.yul\":830:831   */\n      0x04\n        /* \"#utility.yul\":823:838   */\n      mstore\n        /* \"#utility.yul\":857:861   */\n      0x24\n        /* \"#utility.yul\":854:855   */\n      0x00\n        /* \"#utility.yul\":847:862   */\n      revert\n        /* \"#utility.yul\":874:1155   */\n    tag_103:\n        /* \"#utility.yul\":957:984   */\n      tag_157\n        /* \"#utility.yul\":979:983   */\n      dup3\n        /* \"#utility.yul\":957:984   */\n      tag_102\n      jump\t// in\n    tag_157:\n        /* \"#utility.yul\":949:955   */\n      dup2\n        /* \"#utility.yul\":945:985   */\n      add\n        /* \"#utility.yul\":1087:1093   */\n      dup2\n        /* \"#utility.yul\":1075:1085   */\n      dup2\n        /* \"#utility.yul\":1072:1094   */\n      lt\n        /* \"#utility.yul\":1051:1069   */\n      0xffffffffffffffff\n        /* \"#utility.yul\":1039:1049   */\n      dup3\n        /* \"#utility.yul\":1036:1070   */\n      gt\n        /* \"#utility.yul\":1033:1095   */\n      or\n        /* \"#utility.yul\":1030:1118   */\n      iszero\n      tag_158\n      jumpi\n        /* \"#utility.yul\":1098:1116   */\n      tag_159\n      tag_40\n      jump\t// in\n    tag_159:\n        /* \"#utility.yul\":1030:1118   */\n    tag_158:\n        /* \"#utility.yul\":1138:1148   */\n      dup1\n        /* \"#utility.yul\":1134:1136   */\n      0x40\n        /* \"#utility.yul\":1127:1149   */\n      mstore\n        /* \"#utility.yul\":917:1155   */\n      pop\n        /* \"#utility.yul\":874:1155   */\n      pop\n      pop\n      jump\t// out\n        /* \"#utility.yul\":1161:1290   */\n    tag_104:\n        /* \"#utility.yul\":1195:1201   */\n      0x00\n        /* \"#utility.yul\":1222:1242   */\n      tag_161\n      tag_97\n      jump\t// in\n    tag_161:\n        /* \"#utility.yul\":1212:1242   */\n      swap1\n      pop\n        /* \"#utility.yul\":1251:1284   */\n      tag_162\n        /* \"#utility.yul\":1279:1283   */\n      dup3\n        /* \"#utility.yul\":1271:1277   */\n      dup3\n        /* \"#utility.yul\":1251:1284   */\n      tag_103\n      jump\t// in\n    tag_162:\n        /* \"#utility.yul\":1161:1290   */\n      swap2\n      swap1\n      pop\n      jump\t// out\n        /* \"#utility.yul\":1296:1604   */\n    tag_105:\n        /* \"#utility.yul\":1358:1362   */\n      0x00\n        /* \"#utility.yul\":1448:1466   */\n      0xffffffffffffffff\n        /* \"#utility.yul\":1440:1446   */\n      dup3\n        /* \"#utility.yul\":1437:1467   */\n      gt\n        /* \"#utility.yul\":1434:1490   */\n      iszero\n      tag_164\n      jumpi\n        /* \"#utility.yul\":1470:1488   */\n      tag_165\n      tag_40\n      jump\t// in\n    tag_165:\n        /* \"#utility.yul\":1434:1490   */\n    tag_164:\n        /* \"#utility.yul\":1508:1537   */\n      tag_166\n        /* \"#utility.yul\":1530:1536   */\n      dup3\n        /* \"#utility.yul\":1508:1537   */\n      tag_102\n      jump\t// in\n    tag_166:\n        /* \"#utility.yul\":1500:1537   */\n      swap1\n      pop\n        /* \"#utility.yul\":1592:1596   */\n      0x20\n        /* \"#utility.yul\":1586:1590   */\n      dup2\n        /* \"#utility.yul\":1582:1597   */\n      add\n        /* \"#utility.yul\":1574:1597   */\n      swap1\n      pop\n        /* \"#utility.yul\":1296:1604   */\n      swap2\n      swap1\n      pop\n      jump\t// out\n        /* \"#utility.yul\":1610:1758   */\n    tag_106:\n        /* \"#utility.yul\":1708:1714   */\n      dup3\n        /* \"#utility.yul\":1703:1706   */\n      dup2\n        /* \"#utility.yul\":1698:1701   */\n      dup4\n        /* \"#utility.yul\":1685:1715   */\n      calldatacopy\n        /* \"#utility.yul\":1749:1750   */\n      0x00\n        /* \"#utility.yul\":1740:1746   */\n      dup4\n        /* \"#utility.yul\":1735:1738   */\n      dup4\n        /* \"#utility.yul\":1731:1747   */\n      add\n        /* \"#utility.yul\":1724:1751   */\n      mstore\n        /* \"#utility.yul\":1610:1758   */\n      pop\n      pop\n      pop\n      jump\t// out\n        /* \"#utility.yul\":1764:2189   */\n    tag_107:\n        /* \"#utility.yul\":1842:1847   */\n      0x00\n        /* \"#utility.yul\":1867:1933   */\n      tag_169\n        /* \"#utility.yul\":1883:1932   */\n      tag_170\n        /* \"#utility.yul\":1925:1931   */\n      dup5\n        /* \"#utility.yul\":1883:1932   */\n      tag_105\n      jump\t// in\n    tag_170:\n        /* \"#utility.yul\":1867:1933   */\n      tag_104\n      jump\t// in\n    tag_169:\n        /* \"#utility.yul\":1858:1933   */\n      swap1\n      pop\n        /* \"#utility.yul\":1956:1962   */\n      dup3\n        /* \"#utility.yul\":1949:1954   */\n      dup2\n        /* \"#utility.yul\":1942:1963   */\n      mstore\n        /* \"#utility.yul\":1994:1998   */\n      0x20\n        /* \"#utility.yul\":1987:1992   */\n      dup2\n        /* \"#utility.yul\":1983:1999   */\n      add\n        /* \"#utility.yul\":2032:2035   */\n      dup5\n        /* \"#utility.yul\":2023:2029   */\n      dup5\n        /* \"#utility.yul\":2018:2021   */\n      dup5\n        /* \"#utility.yul\":2014:2030   */\n      add\n        /* \"#utility.yul\":2011:2036   */\n      gt\n        /* \"#utility.yul\":2008:2120   */\n      iszero\n      tag_171\n      jumpi\n        /* \"#utility.yul\":2039:2118   */\n      tag_172\n      tag_101\n      jump\t// in\n    tag_172:\n        /* \"#utility.yul\":2008:2120   */\n    tag_171:\n        /* \"#utility.yul\":2129:2183   */\n      tag_173\n        /* \"#utility.yul\":2176:2182   */\n      dup5\n        /* \"#utility.yul\":2171:2174   */\n      dup3\n        /* \"#utility.yul\":2166:2169   */\n      dup6\n        /* \"#utility.yul\":2129:2183   */\n      tag_106\n      jump\t// in\n    tag_173:\n        /* \"#utility.yul\":1848:2189   */\n      pop\n        /* \"#utility.yul\":1764:2189   */\n      swap4\n      swap3\n      pop\n      pop\n      pop\n      jump\t// out\n        /* \"#utility.yul\":2209:2549   */\n    tag_108:\n        /* \"#utility.yul\":2265:2270   */\n      0x00\n        /* \"#utility.yul\":2314:2317   */\n      dup3\n        /* \"#utility.yul\":2307:2311   */\n      0x1f\n        /* \"#utility.yul\":2299:2305   */\n      dup4\n        /* \"#utility.yul\":2295:2312   */\n      add\n        /* \"#utility.yul\":2291:2318   */\n      slt\n        /* \"#utility.yul\":2281:2403   */\n      tag_175\n      jumpi\n        /* \"#utility.yul\":2322:2401   */\n      tag_176\n      tag_100\n      jump\t// in\n    tag_176:\n        /* \"#utility.yul\":2281:2403   */\n    tag_175:\n        /* \"#utility.yul\":2439:2445   */\n      dup2\n        /* \"#utility.yul\":2426:2446   */\n      calldataload\n        /* \"#utility.yul\":2464:2543   */\n      tag_177\n        /* \"#utility.yul\":2539:2542   */\n      dup5\n        /* \"#utility.yul\":2531:2537   */\n      dup3\n        /* \"#utility.yul\":2524:2528   */\n      0x20\n        /* \"#utility.yul\":2516:2522   */\n      dup7\n        /* \"#utility.yul\":2512:2529   */\n      add\n        /* \"#utility.yul\":2464:2543   */\n      tag_107\n      jump\t// in\n    tag_177:\n        /* \"#utility.yul\":2455:2543   */\n      swap2\n      pop\n        /* \"#utility.yul\":2271:2549   */\n      pop\n        /* \"#utility.yul\":2209:2549   */\n      swap3\n      swap2\n      pop\n      pop\n      jump\t// out\n        /* \"#utility.yul\":2555:2632   */\n    tag_109:\n        /* \"#utility.yul\":2592:2599   */\n      0x00\n        /* \"#utility.yul\":2621:2626   */\n      dup2\n        /* \"#utility.yul\":2610:2626   */\n      swap1\n      pop\n        /* \"#utility.yul\":2555:2632   */\n      swap2\n      swap1\n      pop\n      jump\t// out\n        /* \"#utility.yul\":2638:2760   */\n    tag_110:\n        /* \"#utility.yul\":2711:2735   */\n      tag_180\n        /* \"#utility.yul\":2729:2734   */\n      dup2\n        /* \"#utility.yul\":2711:2735   */\n      tag_109\n      jump\t// in\n    tag_180:\n        /* \"#utility.yul\":2704:2709   */\n      dup2\n        /* \"#utility.yul\":2701:2736   */\n      eq\n        /* \"#utility.yul\":2691:2754   */\n      tag_181\n      jumpi\n        /* \"#utility.yul\":2750:2751   */\n      0x00\n        /* \"#utility.yul\":2747:2748   */\n      0x00\n        /* \"#utility.yul\":2740:2752   */\n      revert\n        /* \"#utility.yul\":2691:2754   */\n    tag_181:\n        /* \"#utility.yul\":2638:2760   */\n      pop\n      jump\t// out\n        /* \"#utility.yul\":2766:2905   */\n    tag_111:\n        /* \"#utility.yul\":2812:2817   */\n      0x00\n        /* \"#utility.yul\":2850:2856   */\n      dup2\n        /* \"#utility.yul\":2837:2857   */\n      calldataload\n        /* \"#utility.yul\":2828:2857   */\n      swap1\n      pop\n        /* \"#utility.yul\":2866:2899   */\n      tag_183\n        /* \"#utility.yul\":2893:2898   */\n      dup2\n        /* \"#utility.yul\":2866:2899   */\n      tag_110\n      jump\t// in\n    tag_183:\n        /* \"#utility.yul\":2766:2905   */\n      swap3\n      swap2\n      pop\n      pop\n      jump\t// out\n        /* \"#utility.yul\":2911:3890   */\n    tag_10:\n        /* \"#utility.yul\":3008:3014   */\n      0x00\n        /* \"#utility.yul\":3016:3022   */\n      0x00\n        /* \"#utility.yul\":3024:3030   */\n      0x00\n        /* \"#utility.yul\":3073:3075   */\n      0x60\n        /* \"#utility.yul\":3061:3070   */\n      dup5\n        /* \"#utility.yul\":3052:3059   */\n      dup7\n        /* \"#utility.yul\":3048:3071   */\n      sub\n        /* \"#utility.yul\":3044:3076   */\n      slt\n        /* \"#utility.yul\":3041:3160   */\n      iszero\n      tag_185\n      jumpi\n        /* \"#utility.yul\":3079:3158   */\n      tag_186\n      tag_98\n      jump\t// in\n    tag_186:\n        /* \"#utility.yul\":3041:3160   */\n    tag_185:\n        /* \"#utility.yul\":3227:3228   */\n      0x00\n        /* \"#utility.yul\":3216:3225   */\n      dup5\n        /* \"#utility.yul\":3212:3229   */\n      add\n        /* \"#utility.yul\":3199:3230   */\n      calldataload\n        /* \"#utility.yul\":3257:3275   */\n      0xffffffffffffffff\n        /* \"#utility.yul\":3249:3255   */\n      dup2\n        /* \"#utility.yul\":3246:3276   */\n      gt\n        /* \"#utility.yul\":3243:3360   */\n      iszero\n      tag_187\n      jumpi\n        /* \"#utility.yul\":3279:3358   */\n      tag_188\n      tag_99\n      jump\t// in\n    tag_188:\n        /* \"#utility.yul\":3243:3360   */\n    tag_187:\n        /* \"#utility.yul\":3384:3447   */\n      tag_189\n        /* \"#utility.yul\":3439:3446   */\n      dup7\n        /* \"#utility.yul\":3430:3436   */\n      dup3\n        /* \"#utility.yul\":3419:3428   */\n      dup8\n        /* \"#utility.yul\":3415:3437   */\n      add\n        /* \"#utility.yul\":3384:3447   */\n      tag_108\n      jump\t// in\n    tag_189:\n        /* \"#utility.yul\":3374:3447   */\n      swap4\n      pop\n        /* \"#utility.yul\":3170:3457   */\n      pop\n        /* \"#utility.yul\":3524:3526   */\n      0x20\n        /* \"#utility.yul\":3513:3522   */\n      dup5\n        /* \"#utility.yul\":3509:3527   */\n      add\n        /* \"#utility.yul\":3496:3528   */\n      calldataload\n        /* \"#utility.yul\":3555:3573   */\n      0xffffffffffffffff\n        /* \"#utility.yul\":3547:3553   */\n      dup2\n        /* \"#utility.yul\":3544:3574   */\n      gt\n        /* \"#utility.yul\":3541:3658   */\n      iszero\n      tag_190\n      jumpi\n        /* \"#utility.yul\":3577:3656   */\n      tag_191\n      tag_99\n      jump\t// in\n    tag_191:\n        /* \"#utility.yul\":3541:3658   */\n    tag_190:\n        /* \"#utility.yul\":3682:3745   */\n      tag_192\n        /* \"#utility.yul\":3737:3744   */\n      dup7\n        /* \"#utility.yul\":3728:3734   */\n      dup3\n        /* \"#utility.yul\":3717:3726   */\n      dup8\n        /* \"#utility.yul\":3713:3735   */\n      add\n        /* \"#utility.yul\":3682:3745   */\n      tag_108\n      jump\t// in\n    tag_192:\n        /* \"#utility.yul\":3672:3745   */\n      swap3\n      pop\n        /* \"#utility.yul\":3467:3755   */\n      pop\n        /* \"#utility.yul\":3794:3796   */\n      0x40\n        /* \"#utility.yul\":3820:3873   */\n      tag_193\n        /* \"#utility.yul\":3865:3872   */\n      dup7\n        /* \"#utility.yul\":3856:3862   */\n      dup3\n        /* \"#utility.yul\":3845:3854   */\n      dup8\n        /* \"#utility.yul\":3841:3863   */\n      add\n        /* \"#utility.yul\":3820:3873   */\n      tag_111\n      jump\t// in\n    tag_193:\n        /* \"#utility.yul\":3810:3873   */\n      swap2\n      pop\n        /* \"#utility.yul\":3765:3883   */\n      pop\n        /* \"#utility.yul\":2911:3890   */\n      swap3\n      pop\n      swap3\n      pop\n      swap3\n      jump\t// out\n        /* \"#utility.yul\":3896:4032   */\n    tag_112:\n        /* \"#utility.yul\":3985:3991   */\n      0x00\n        /* \"#utility.yul\":4019:4024   */\n      dup2\n        /* \"#utility.yul\":4013:4025   */\n      mload\n        /* \"#utility.yul\":4003:4025   */\n      swap1\n      pop\n        /* \"#utility.yul\":3896:4032   */\n      swap2\n      swap1\n      pop\n      jump\t// out\n        /* \"#utility.yul\":4038:4244   */\n    tag_113:\n        /* \"#utility.yul\":4159:4170   */\n      0x00\n        /* \"#utility.yul\":4193:4199   */\n      dup3\n        /* \"#utility.yul\":4188:4191   */\n      dup3\n        /* \"#utility.yul\":4181:4200   */\n      mstore\n        /* \"#utility.yul\":4233:4237   */\n      0x20\n        /* \"#utility.yul\":4228:4231   */\n      dup3\n        /* \"#utility.yul\":4224:4238   */\n      add\n        /* \"#utility.yul\":4209:4238   */\n      swap1\n      pop\n        /* \"#utility.yul\":4038:4244   */\n      swap3\n      swap2\n      pop\n      pop\n      jump\t// out\n        /* \"#utility.yul\":4250:4404   */\n    tag_114:\n        /* \"#utility.yul\":4339:4343   */\n      0x00\n        /* \"#utility.yul\":4362:4365   */\n      dup2\n        /* \"#utility.yul\":4354:4365   */\n      swap1\n      pop\n        /* \"#utility.yul\":4392:4396   */\n      0x20\n        /* \"#utility.yul\":4387:4390   */\n      dup3\n        /* \"#utility.yul\":4383:4397   */\n      add\n        /* \"#utility.yul\":4375:4397   */\n      swap1\n      pop\n        /* \"#utility.yul\":4250:4404   */\n      swap2\n      swap1\n      pop\n      jump\t// out\n        /* \"#utility.yul\":4410:4509   */\n    tag_115:\n        /* \"#utility.yul\":4462:4468   */\n      0x00\n        /* \"#utility.yul\":4496:4501   */\n      dup2\n        /* \"#utility.yul\":4490:4502   */\n      mload\n        /* \"#utility.yul\":4480:4502   */\n      swap1\n      pop\n        /* \"#utility.yul\":4410:4509   */\n      swap2\n      swap1\n      pop\n      jump\t// out\n        /* \"#utility.yul\":4515:4674   */\n    tag_116:\n        /* \"#utility.yul\":4589:4600   */\n      0x00\n        /* \"#utility.yul\":4623:4629   */\n      dup3\n        /* \"#utility.yul\":4618:4621   */\n      dup3\n        /* \"#utility.yul\":4611:4630   */\n      mstore\n        /* \"#utility.yul\":4663:4667   */\n      0x20\n        /* \"#utility.yul\":4658:4661   */\n      dup3\n        /* \"#utility.yul\":4654:4668   */\n      add\n        /* \"#utility.yul\":4639:4668   */\n      swap1\n      pop\n        /* \"#utility.yul\":4515:4674   */\n      swap3\n      swap2\n      pop\n      pop\n      jump\t// out\n        /* \"#utility.yul\":4680:4819   */\n    tag_117:\n        /* \"#utility.yul\":4769:4775   */\n      dup3\n        /* \"#utility.yul\":4764:4767   */\n      dup2\n        /* \"#utility.yul\":4759:4762   */\n      dup4\n        /* \"#utility.yul\":4753:4776   */\n      mcopy\n        /* \"#utility.yul\":4810:4811   */\n      0x00\n        /* \"#utility.yul\":4801:4807   */\n      dup4\n        /* \"#utility.yul\":4796:4799   */\n      dup4\n        /* \"#utility.yul\":4792:4808   */\n      add\n        /* \"#utility.yul\":4785:4812   */\n      mstore\n        /* \"#utility.yul\":4680:4819   */\n      pop\n      pop\n      pop\n      jump\t// out\n        /* \"#utility.yul\":4825:5182   */\n    tag_118:\n        /* \"#utility.yul\":4903:4906   */\n      0x00\n        /* \"#utility.yul\":4931:4970   */\n      tag_201\n        /* \"#utility.yul\":4964:4969   */\n      dup3\n        /* \"#utility.yul\":4931:4970   */\n      tag_115\n      jump\t// in\n    tag_201:\n        /* \"#utility.yul\":4986:5047   */\n      tag_202\n        /* \"#utility.yul\":5040:5046   */\n      dup2\n        /* \"#utility.yul\":5035:5038   */\n      dup6\n        /* \"#utility.yul\":4986:5047   */\n      tag_116\n      jump\t// in\n    tag_202:\n        /* \"#utility.yul\":4979:5047   */\n      swap4\n      pop\n        /* \"#utility.yul\":5056:5121   */\n      tag_203\n        /* \"#utility.yul\":5114:5120   */\n      dup2\n        /* \"#utility.yul\":5109:5112   */\n      dup6\n        /* \"#utility.yul\":5102:5106   */\n      0x20\n        /* \"#utility.yul\":5095:5100   */\n      dup7\n        /* \"#utility.yul\":5091:5107   */\n      add\n        /* \"#utility.yul\":5056:5121   */\n      tag_117\n      jump\t// in\n    tag_203:\n        /* \"#utility.yul\":5146:5175   */\n      tag_204\n        /* \"#utility.yul\":5168:5174   */\n      dup2\n        /* \"#utility.yul\":5146:5175   */\n      tag_102\n      jump\t// in\n    tag_204:\n        /* \"#utility.yul\":5141:5144   */\n      dup5\n        /* \"#utility.yul\":5137:5176   */\n      add\n        /* \"#utility.yul\":5130:5176   */\n      swap2\n      pop\n        /* \"#utility.yul\":4907:5182   */\n      pop\n        /* \"#utility.yul\":4825:5182   */\n      swap3\n      swap2\n      pop\n      pop\n      jump\t// out\n        /* \"#utility.yul\":5188:5296   */\n    tag_119:\n        /* \"#utility.yul\":5265:5289   */\n      tag_206\n        /* \"#utility.yul\":5283:5288   */\n      dup2\n        /* \"#utility.yul\":5265:5289   */\n      tag_109\n      jump\t// in\n    tag_206:\n        /* \"#utility.yul\":5260:5263   */\n      dup3\n        /* \"#utility.yul\":5253:5290   */\n      mstore\n        /* \"#utility.yul\":5188:5296   */\n      pop\n      pop\n      jump\t// out\n        /* \"#utility.yul\":5302:5392   */\n    tag_120:\n        /* \"#utility.yul\":5336:5343   */\n      0x00\n        /* \"#utility.yul\":5379:5384   */\n      dup2\n        /* \"#utility.yul\":5372:5385   */\n      iszero\n        /* \"#utility.yul\":5365:5386   */\n      iszero\n        /* \"#utility.yul\":5354:5386   */\n      swap1\n      pop\n        /* \"#utility.yul\":5302:5392   */\n      swap2\n      swap1\n      pop\n      jump\t// out\n        /* \"#utility.yul\":5398:5497   */\n    tag_121:\n        /* \"#utility.yul\":5469:5490   */\n      tag_209\n        /* \"#utility.yul\":5484:5489   */\n      dup2\n        /* \"#utility.yul\":5469:5490   */\n      tag_120\n      jump\t// in\n    tag_209:\n        /* \"#utility.yul\":5464:5467   */\n      dup3\n        /* \"#utility.yul\":5457:5491   */\n      mstore\n        /* \"#utility.yul\":5398:5497   */\n      pop\n      pop\n      jump\t// out\n        /* \"#utility.yul\":5569:6584   */\n    tag_122:\n        /* \"#utility.yul\":5672:5675   */\n      0x00\n        /* \"#utility.yul\":5708:5712   */\n      0x80\n        /* \"#utility.yul\":5703:5706   */\n      dup4\n        /* \"#utility.yul\":5699:5713   */\n      add\n        /* \"#utility.yul\":5797:5801   */\n      0x00\n        /* \"#utility.yul\":5790:5795   */\n      dup4\n        /* \"#utility.yul\":5786:5802   */\n      add\n        /* \"#utility.yul\":5780:5803   */\n      mload\n        /* \"#utility.yul\":5850:5853   */\n      dup5\n        /* \"#utility.yul\":5844:5848   */\n      dup3\n        /* \"#utility.yul\":5840:5854   */\n      sub\n        /* \"#utility.yul\":5833:5837   */\n      0x00\n        /* \"#utility.yul\":5828:5831   */\n      dup7\n        /* \"#utility.yul\":5824:5838   */\n      add\n        /* \"#utility.yul\":5817:5855   */\n      mstore\n        /* \"#utility.yul\":5876:5949   */\n      tag_211\n        /* \"#utility.yul\":5944:5948   */\n      dup3\n        /* \"#utility.yul\":5930:5942   */\n      dup3\n        /* \"#utility.yul\":5876:5949   */\n      tag_118\n      jump\t// in\n    tag_211:\n        /* \"#utility.yul\":5868:5949   */\n      swap2\n      pop\n        /* \"#utility.yul\":5723:5960   */\n      pop\n        /* \"#utility.yul\":6049:6053   */\n      0x20\n        /* \"#utility.yul\":6042:6047   */\n      dup4\n        /* \"#utility.yul\":6038:6054   */\n      add\n        /* \"#utility.yul\":6032:6055   */\n      mload\n        /* \"#utility.yul\":6102:6105   */\n      dup5\n        /* \"#utility.yul\":6096:6100   */\n      dup3\n        /* \"#utility.yul\":6092:6106   */\n      sub\n        /* \"#utility.yul\":6085:6089   */\n      0x20\n        /* \"#utility.yul\":6080:6083   */\n      dup7\n        /* \"#utility.yul\":6076:6090   */\n      add\n        /* \"#utility.yul\":6069:6107   */\n      mstore\n        /* \"#utility.yul\":6128:6201   */\n      tag_212\n        /* \"#utility.yul\":6196:6200   */\n      dup3\n        /* \"#utility.yul\":6182:6194   */\n      dup3\n        /* \"#utility.yul\":6128:6201   */\n      tag_118\n      jump\t// in\n    tag_212:\n        /* \"#utility.yul\":6120:6201   */\n      swap2\n      pop\n        /* \"#utility.yul\":5970:6212   */\n      pop\n        /* \"#utility.yul\":6295:6299   */\n      0x40\n        /* \"#utility.yul\":6288:6293   */\n      dup4\n        /* \"#utility.yul\":6284:6300   */\n      add\n        /* \"#utility.yul\":6278:6301   */\n      mload\n        /* \"#utility.yul\":6314:6377   */\n      tag_213\n        /* \"#utility.yul\":6371:6375   */\n      0x40\n        /* \"#utility.yul\":6366:6369   */\n      dup7\n        /* \"#utility.yul\":6362:6376   */\n      add\n        /* \"#utility.yul\":6348:6360   */\n      dup3\n        /* \"#utility.yul\":6314:6377   */\n      tag_119\n      jump\t// in\n    tag_213:\n        /* \"#utility.yul\":6222:6387   */\n      pop\n        /* \"#utility.yul\":6471:6475   */\n      0x60\n        /* \"#utility.yul\":6464:6469   */\n      dup4\n        /* \"#utility.yul\":6460:6476   */\n      add\n        /* \"#utility.yul\":6454:6477   */\n      mload\n        /* \"#utility.yul\":6490:6547   */\n      tag_214\n        /* \"#utility.yul\":6541:6545   */\n      0x60\n        /* \"#utility.yul\":6536:6539   */\n      dup7\n        /* \"#utility.yul\":6532:6546   */\n      add\n        /* \"#utility.yul\":6518:6530   */\n      dup3\n        /* \"#utility.yul\":6490:6547   */\n      tag_121\n      jump\t// in\n    tag_214:\n        /* \"#utility.yul\":6397:6557   */\n      pop\n        /* \"#utility.yul\":6574:6578   */\n      dup1\n        /* \"#utility.yul\":6567:6578   */\n      swap2\n      pop\n        /* \"#utility.yul\":5677:6584   */\n      pop\n        /* \"#utility.yul\":5569:6584   */\n      swap3\n      swap2\n      pop\n      pop\n      jump\t// out\n        /* \"#utility.yul\":6590:6834   */\n    tag_123:\n        /* \"#utility.yul\":6703:6713   */\n      0x00\n        /* \"#utility.yul\":6738:6828   */\n      tag_216\n        /* \"#utility.yul\":6824:6827   */\n      dup4\n        /* \"#utility.yul\":6816:6822   */\n      dup4\n        /* \"#utility.yul\":6738:6828   */\n      tag_122\n      jump\t// in\n    tag_216:\n        /* \"#utility.yul\":6724:6828   */\n      swap1\n      pop\n        /* \"#utility.yul\":6590:6834   */\n      swap3\n      swap2\n      pop\n      pop\n      jump\t// out\n        /* \"#utility.yul\":6840:6975   */\n    tag_124:\n        /* \"#utility.yul\":6932:6936   */\n      0x00\n        /* \"#utility.yul\":6964:6968   */\n      0x20\n        /* \"#utility.yul\":6959:6962   */\n      dup3\n        /* \"#utility.yul\":6955:6969   */\n      add\n        /* \"#utility.yul\":6947:6969   */\n      swap1\n      pop\n        /* \"#utility.yul\":6840:6975   */\n      swap2\n      swap1\n      pop\n      jump\t// out\n        /* \"#utility.yul\":7051:8138   */\n    tag_125:\n        /* \"#utility.yul\":7214:7217   */\n      0x00\n        /* \"#utility.yul\":7243:7319   */\n      tag_219\n        /* \"#utility.yul\":7313:7318   */\n      dup3\n        /* \"#utility.yul\":7243:7319   */\n      tag_112\n      jump\t// in\n    tag_219:\n        /* \"#utility.yul\":7335:7443   */\n      tag_220\n        /* \"#utility.yul\":7436:7442   */\n      dup2\n        /* \"#utility.yul\":7431:7434   */\n      dup6\n        /* \"#utility.yul\":7335:7443   */\n      tag_113\n      jump\t// in\n    tag_220:\n        /* \"#utility.yul\":7328:7443   */\n      swap4\n      pop\n        /* \"#utility.yul\":7469:7472   */\n      dup4\n        /* \"#utility.yul\":7514:7518   */\n      0x20\n        /* \"#utility.yul\":7506:7512   */\n      dup3\n        /* \"#utility.yul\":7502:7519   */\n      mul\n        /* \"#utility.yul\":7497:7500   */\n      dup6\n        /* \"#utility.yul\":7493:7520   */\n      add\n        /* \"#utility.yul\":7544:7622   */\n      tag_221\n        /* \"#utility.yul\":7616:7621   */\n      dup6\n        /* \"#utility.yul\":7544:7622   */\n      tag_114\n      jump\t// in\n    tag_221:\n        /* \"#utility.yul\":7645:7652   */\n      dup1\n        /* \"#utility.yul\":7676:7677   */\n      0x00\n        /* \"#utility.yul\":7661:8093   */\n    tag_222:\n        /* \"#utility.yul\":7686:7692   */\n      dup6\n        /* \"#utility.yul\":7683:7684   */\n      dup2\n        /* \"#utility.yul\":7680:7693   */\n      lt\n        /* \"#utility.yul\":7661:8093   */\n      iszero\n      tag_224\n      jumpi\n        /* \"#utility.yul\":7757:7766   */\n      dup5\n        /* \"#utility.yul\":7751:7755   */\n      dup5\n        /* \"#utility.yul\":7747:7767   */\n      sub\n        /* \"#utility.yul\":7742:7745   */\n      dup10\n        /* \"#utility.yul\":7735:7768   */\n      mstore\n        /* \"#utility.yul\":7808:7814   */\n      dup2\n        /* \"#utility.yul\":7802:7815   */\n      mload\n        /* \"#utility.yul\":7836:7944   */\n      tag_225\n        /* \"#utility.yul\":7939:7943   */\n      dup6\n        /* \"#utility.yul\":7924:7937   */\n      dup3\n        /* \"#utility.yul\":7836:7944   */\n      tag_123\n      jump\t// in\n    tag_225:\n        /* \"#utility.yul\":7828:7944   */\n      swap5\n      pop\n        /* \"#utility.yul\":7967:8049   */\n      tag_226\n        /* \"#utility.yul\":8042:8048   */\n      dup4\n        /* \"#utility.yul\":7967:8049   */\n      tag_124\n      jump\t// in\n    tag_226:\n        /* \"#utility.yul\":7957:8049   */\n      swap3\n      pop\n        /* \"#utility.yul\":8078:8082   */\n      0x20\n        /* \"#utility.yul\":8073:8076   */\n      dup11\n        /* \"#utility.yul\":8069:8083   */\n      add\n        /* \"#utility.yul\":8062:8083   */\n      swap10\n      pop\n        /* \"#utility.yul\":7721:8093   */\n      pop\n        /* \"#utility.yul\":7708:7709   */\n      0x01\n        /* \"#utility.yul\":7705:7706   */\n      dup2\n        /* \"#utility.yul\":7701:7710   */\n      add\n        /* \"#utility.yul\":7696:7710   */\n      swap1\n      pop\n        /* \"#utility.yul\":7661:8093   */\n      jump(tag_222)\n    tag_224:\n        /* \"#utility.yul\":7665:7679   */\n      pop\n        /* \"#utility.yul\":8109:8113   */\n      dup3\n        /* \"#utility.yul\":8102:8113   */\n      swap8\n      pop\n        /* \"#utility.yul\":8129:8132   */\n      dup8\n        /* \"#utility.yul\":8122:8132   */\n      swap6\n      pop\n        /* \"#utility.yul\":7219:8138   */\n      pop\n      pop\n      pop\n      pop\n      pop\n        /* \"#utility.yul\":7051:8138   */\n      swap3\n      swap2\n      pop\n      pop\n      jump\t// out\n        /* \"#utility.yul\":8144:8605   */\n    tag_15:\n        /* \"#utility.yul\":8331:8335   */\n      0x00\n        /* \"#utility.yul\":8369:8371   */\n      0x20\n        /* \"#utility.yul\":8358:8367   */\n      dup3\n        /* \"#utility.yul\":8354:8372   */\n      add\n        /* \"#utility.yul\":8346:8372   */\n      swap1\n      pop\n        /* \"#utility.yul\":8418:8427   */\n      dup2\n        /* \"#utility.yul\":8412:8416   */\n      dup2\n        /* \"#utility.yul\":8408:8428   */\n      sub\n        /* \"#utility.yul\":8404:8405   */\n      0x00\n        /* \"#utility.yul\":8393:8402   */\n      dup4\n        /* \"#utility.yul\":8389:8406   */\n      add\n        /* \"#utility.yul\":8382:8429   */\n      mstore\n        /* \"#utility.yul\":8446:8598   */\n      tag_228\n        /* \"#utility.yul\":8593:8597   */\n      dup2\n        /* \"#utility.yul\":8584:8590   */\n      dup5\n        /* \"#utility.yul\":8446:8598   */\n      tag_125\n      jump\t// in\n    tag_228:\n        /* \"#utility.yul\":8438:8598   */\n      swap1\n      pop\n        /* \"#utility.yul\":8144:8605   */\n      swap3\n      swap2\n      pop\n      pop\n      jump\t// out\n        /* \"#utility.yul\":8611:8940   */\n    tag_18:\n        /* \"#utility.yul\":8670:8676   */\n      0x00\n        /* \"#utility.yul\":8719:8721   */\n      0x20\n        /* \"#utility.yul\":8707:8716   */\n      dup3\n        /* \"#utility.yul\":8698:8705   */\n      dup5\n        /* \"#utility.yul\":8694:8717   */\n      sub\n        /* \"#utility.yul\":8690:8722   */\n      slt\n        /* \"#utility.yul\":8687:8806   */\n      iszero\n      tag_230\n      jumpi\n        /* \"#utility.yul\":8725:8804   */\n      tag_231\n      tag_98\n      jump\t// in\n    tag_231:\n        /* \"#utility.yul\":8687:8806   */\n    tag_230:\n        /* \"#utility.yul\":8845:8846   */\n      0x00\n        /* \"#utility.yul\":8870:8923   */\n      tag_232\n        /* \"#utility.yul\":8915:8922   */\n      dup5\n        /* \"#utility.yul\":8906:8912   */\n      dup3\n        /* \"#utility.yul\":8895:8904   */\n      dup6\n        /* \"#utility.yul\":8891:8913   */\n      add\n        /* \"#utility.yul\":8870:8923   */\n      tag_111\n      jump\t// in\n    tag_232:\n        /* \"#utility.yul\":8860:8923   */\n      swap2\n      pop\n        /* \"#utility.yul\":8816:8933   */\n      pop\n        /* \"#utility.yul\":8611:8940   */\n      swap3\n      swap2\n      pop\n      pop\n      jump\t// out\n        /* \"#utility.yul\":8946:9115   */\n    tag_126:\n        /* \"#utility.yul\":9030:9041   */\n      0x00\n        /* \"#utility.yul\":9064:9070   */\n      dup3\n        /* \"#utility.yul\":9059:9062   */\n      dup3\n        /* \"#utility.yul\":9052:9071   */\n      mstore\n        /* \"#utility.yul\":9104:9108   */\n      0x20\n        /* \"#utility.yul\":9099:9102   */\n      dup3\n        /* \"#utility.yul\":9095:9109   */\n      add\n        /* \"#utility.yul\":9080:9109   */\n      swap1\n      pop\n        /* \"#utility.yul\":8946:9115   */\n      swap3\n      swap2\n      pop\n      pop\n      jump\t// out\n        /* \"#utility.yul\":9121:9498   */\n    tag_127:\n        /* \"#utility.yul\":9209:9212   */\n      0x00\n        /* \"#utility.yul\":9237:9276   */\n      tag_235\n        /* \"#utility.yul\":9270:9275   */\n      dup3\n        /* \"#utility.yul\":9237:9276   */\n      tag_115\n      jump\t// in\n    tag_235:\n        /* \"#utility.yul\":9292:9363   */\n      tag_236\n        /* \"#utility.yul\":9356:9362   */\n      dup2\n        /* \"#utility.yul\":9351:9354   */\n      dup6\n        /* \"#utility.yul\":9292:9363   */\n      tag_126\n      jump\t// in\n    tag_236:\n        /* \"#utility.yul\":9285:9363   */\n      swap4\n      pop\n        /* \"#utility.yul\":9372:9437   */\n      tag_237\n        /* \"#utility.yul\":9430:9436   */\n      dup2\n        /* \"#utility.yul\":9425:9428   */\n      dup6\n        /* \"#utility.yul\":9418:9422   */\n      0x20\n        /* \"#utility.yul\":9411:9416   */\n      dup7\n        /* \"#utility.yul\":9407:9423   */\n      add\n        /* \"#utility.yul\":9372:9437   */\n      tag_117\n      jump\t// in\n    tag_237:\n        /* \"#utility.yul\":9462:9491   */\n      tag_238\n        /* \"#utility.yul\":9484:9490   */\n      dup2\n        /* \"#utility.yul\":9462:9491   */\n      tag_102\n      jump\t// in\n    tag_238:\n        /* \"#utility.yul\":9457:9460   */\n      dup5\n        /* \"#utility.yul\":9453:9492   */\n      add\n        /* \"#utility.yul\":9446:9492   */\n      swap2\n      pop\n        /* \"#utility.yul\":9213:9498   */\n      pop\n        /* \"#utility.yul\":9121:9498   */\n      swap3\n      swap2\n      pop\n      pop\n      jump\t// out\n        /* \"#utility.yul\":9504:9622   */\n    tag_128:\n        /* \"#utility.yul\":9591:9615   */\n      tag_240\n        /* \"#utility.yul\":9609:9614   */\n      dup2\n        /* \"#utility.yul\":9591:9615   */\n      tag_109\n      jump\t// in\n    tag_240:\n        /* \"#utility.yul\":9586:9589   */\n      dup3\n        /* \"#utility.yul\":9579:9616   */\n      mstore\n        /* \"#utility.yul\":9504:9622   */\n      pop\n      pop\n      jump\t// out\n        /* \"#utility.yul\":9628:10252   */\n    tag_21:\n        /* \"#utility.yul\":9817:9821   */\n      0x00\n        /* \"#utility.yul\":9855:9857   */\n      0x60\n        /* \"#utility.yul\":9844:9853   */\n      dup3\n        /* \"#utility.yul\":9840:9858   */\n      add\n        /* \"#utility.yul\":9832:9858   */\n      swap1\n      pop\n        /* \"#utility.yul\":9904:9913   */\n      dup2\n        /* \"#utility.yul\":9898:9902   */\n      dup2\n        /* \"#utility.yul\":9894:9914   */\n      sub\n        /* \"#utility.yul\":9890:9891   */\n      0x00\n        /* \"#utility.yul\":9879:9888   */\n      dup4\n        /* \"#utility.yul\":9875:9892   */\n      add\n        /* \"#utility.yul\":9868:9915   */\n      mstore\n        /* \"#utility.yul\":9932:10010   */\n      tag_242\n        /* \"#utility.yul\":10005:10009   */\n      dup2\n        /* \"#utility.yul\":9996:10002   */\n      dup7\n        /* \"#utility.yul\":9932:10010   */\n      tag_127\n      jump\t// in\n    tag_242:\n        /* \"#utility.yul\":9924:10010   */\n      swap1\n      pop\n        /* \"#utility.yul\":10057:10066   */\n      dup2\n        /* \"#utility.yul\":10051:10055   */\n      dup2\n        /* \"#utility.yul\":10047:10067   */\n      sub\n        /* \"#utility.yul\":10042:10044   */\n      0x20\n        /* \"#utility.yul\":10031:10040   */\n      dup4\n        /* \"#utility.yul\":10027:10045   */\n      add\n        /* \"#utility.yul\":10020:10068   */\n      mstore\n        /* \"#utility.yul\":10085:10163   */\n      tag_243\n        /* \"#utility.yul\":10158:10162   */\n      dup2\n        /* \"#utility.yul\":10149:10155   */\n      dup6\n        /* \"#utility.yul\":10085:10163   */\n      tag_127\n      jump\t// in\n    tag_243:\n        /* \"#utility.yul\":10077:10163   */\n      swap1\n      pop\n        /* \"#utility.yul\":10173:10245   */\n      tag_244\n        /* \"#utility.yul\":10241:10243   */\n      0x40\n        /* \"#utility.yul\":10230:10239   */\n      dup4\n        /* \"#utility.yul\":10226:10244   */\n      add\n        /* \"#utility.yul\":10217:10223   */\n      dup5\n        /* \"#utility.yul\":10173:10245   */\n      tag_128\n      jump\t// in\n    tag_244:\n        /* \"#utility.yul\":9628:10252   */\n      swap5\n      swap4\n      pop\n      pop\n      pop\n      pop\n      jump\t// out\n        /* \"#utility.yul\":10258:11383   */\n    tag_24:\n        /* \"#utility.yul\":10364:10370   */\n      0x00\n        /* \"#utility.yul\":10372:10378   */\n      0x00\n        /* \"#utility.yul\":10380:10386   */\n      0x00\n        /* \"#utility.yul\":10388:10394   */\n      0x00\n        /* \"#utility.yul\":10437:10440   */\n      0x80\n        /* \"#utility.yul\":10425:10434   */\n      dup6\n        /* \"#utility.yul\":10416:10423   */\n      dup8\n        /* \"#utility.yul\":10412:10435   */\n      sub\n        /* \"#utility.yul\":10408:10441   */\n      slt\n        /* \"#utility.yul\":10405:10525   */\n      iszero\n      tag_246\n      jumpi\n        /* \"#utility.yul\":10444:10523   */\n      tag_247\n      tag_98\n      jump\t// in\n    tag_247:\n        /* \"#utility.yul\":10405:10525   */\n    tag_246:\n        /* \"#utility.yul\":10564:10565   */\n      0x00\n        /* \"#utility.yul\":10589:10642   */\n      tag_248\n        /* \"#utility.yul\":10634:10641   */\n      dup8\n        /* \"#utility.yul\":10625:10631   */\n      dup3\n        /* \"#utility.yul\":10614:10623   */\n      dup9\n        /* \"#utility.yul\":10610:10632   */\n      add\n        /* \"#utility.yul\":10589:10642   */\n      tag_111\n      jump\t// in\n    tag_248:\n        /* \"#utility.yul\":10579:10642   */\n      swap5\n      pop\n        /* \"#utility.yul\":10535:10652   */\n      pop\n        /* \"#utility.yul\":10719:10721   */\n      0x20\n        /* \"#utility.yul\":10708:10717   */\n      dup6\n        /* \"#utility.yul\":10704:10722   */\n      add\n        /* \"#utility.yul\":10691:10723   */\n      calldataload\n        /* \"#utility.yul\":10750:10768   */\n      0xffffffffffffffff\n        /* \"#utility.yul\":10742:10748   */\n      dup2\n        /* \"#utility.yul\":10739:10769   */\n      gt\n        /* \"#utility.yul\":10736:10853   */\n      iszero\n      tag_249\n      jumpi\n        /* \"#utility.yul\":10772:10851   */\n      tag_250\n      tag_99\n      jump\t// in\n    tag_250:\n        /* \"#utility.yul\":10736:10853   */\n    tag_249:\n        /* \"#utility.yul\":10877:10940   */\n      tag_251\n        /* \"#utility.yul\":10932:10939   */\n      dup8\n        /* \"#utility.yul\":10923:10929   */\n      dup3\n        /* \"#utility.yul\":10912:10921   */\n      dup9\n        /* \"#utility.yul\":10908:10930   */\n      add\n        /* \"#utility.yul\":10877:10940   */\n      tag_108\n      jump\t// in\n    tag_251:\n        /* \"#utility.yul\":10867:10940   */\n      swap4\n      pop\n        /* \"#utility.yul\":10662:10950   */\n      pop\n        /* \"#utility.yul\":11017:11019   */\n      0x40\n        /* \"#utility.yul\":11006:11015   */\n      dup6\n        /* \"#utility.yul\":11002:11020   */\n      add\n        /* \"#utility.yul\":10989:11021   */\n      calldataload\n        /* \"#utility.yul\":11048:11066   */\n      0xffffffffffffffff\n        /* \"#utility.yul\":11040:11046   */\n      dup2\n        /* \"#utility.yul\":11037:11067   */\n      gt\n        /* \"#utility.yul\":11034:11151   */\n      iszero\n      tag_252\n      jumpi\n        /* \"#utility.yul\":11070:11149   */\n      tag_253\n      tag_99\n      jump\t// in\n    tag_253:\n        /* \"#utility.yul\":11034:11151   */\n    tag_252:\n        /* \"#utility.yul\":11175:11238   */\n      tag_254\n        /* \"#utility.yul\":11230:11237   */\n      dup8\n        /* \"#utility.yul\":11221:11227   */\n      dup3\n        /* \"#utility.yul\":11210:11219   */\n      dup9\n        /* \"#utility.yul\":11206:11228   */\n      add\n        /* \"#utility.yul\":11175:11238   */\n      tag_108\n      jump\t// in\n    tag_254:\n        /* \"#utility.yul\":11165:11238   */\n      swap3\n      pop\n        /* \"#utility.yul\":10960:11248   */\n      pop\n        /* \"#utility.yul\":11287:11289   */\n      0x60\n        /* \"#utility.yul\":11313:11366   */\n      tag_255\n        /* \"#utility.yul\":11358:11365   */\n      dup8\n        /* \"#utility.yul\":11349:11355   */\n      dup3\n        /* \"#utility.yul\":11338:11347   */\n      dup9\n        /* \"#utility.yul\":11334:11356   */\n      add\n        /* \"#utility.yul\":11313:11366   */\n      tag_111\n      jump\t// in\n    tag_255:\n        /* \"#utility.yul\":11303:11366   */\n      swap2\n      pop\n        /* \"#utility.yul\":11258:11376   */\n      pop\n        /* \"#utility.yul\":10258:11383   */\n      swap3\n      swap6\n      swap2\n      swap5\n      pop\n      swap3\n      pop\n      jump\t// out\n        /* \"#utility.yul\":11389:11569   */\n    tag_129:\n        /* \"#utility.yul\":11437:11514   */\n      0x4e487b7100000000000000000000000000000000000000000000000000000000\n        /* \"#utility.yul\":11434:11435   */\n      0x00\n        /* \"#utility.yul\":11427:11515   */\n      mstore\n        /* \"#utility.yul\":11534:11538   */\n      0x22\n        /* \"#utility.yul\":11531:11532   */\n      0x04\n        /* \"#utility.yul\":11524:11539   */\n      mstore\n        /* \"#utility.yul\":11558:11562   */\n      0x24\n        /* \"#utility.yul\":11555:11556   */\n      0x00\n        /* \"#utility.yul\":11548:11563   */\n      revert\n        /* \"#utility.yul\":11575:11895   */\n    tag_49:\n        /* \"#utility.yul\":11619:11625   */\n      0x00\n        /* \"#utility.yul\":11656:11657   */\n      0x02\n        /* \"#utility.yul\":11650:11654   */\n      dup3\n        /* \"#utility.yul\":11646:11658   */\n      div\n        /* \"#utility.yul\":11636:11658   */\n      swap1\n      pop\n        /* \"#utility.yul\":11703:11704   */\n      0x01\n        /* \"#utility.yul\":11697:11701   */\n      dup3\n        /* \"#utility.yul\":11693:11705   */\n      and\n        /* \"#utility.yul\":11724:11742   */\n      dup1\n        /* \"#utility.yul\":11714:11795   */\n      tag_258\n      jumpi\n        /* \"#utility.yul\":11780:11784   */\n      0x7f\n        /* \"#utility.yul\":11772:11778   */\n      dup3\n        /* \"#utility.yul\":11768:11785   */\n      and\n        /* \"#utility.yul\":11758:11785   */\n      swap2\n      pop\n        /* \"#utility.yul\":11714:11795   */\n    tag_258:\n        /* \"#utility.yul\":11842:11844   */\n      0x20\n        /* \"#utility.yul\":11834:11840   */\n      dup3\n        /* \"#utility.yul\":11831:11845   */\n      lt\n        /* \"#utility.yul\":11811:11829   */\n      dup2\n        /* \"#utility.yul\":11808:11846   */\n      sub\n        /* \"#utility.yul\":11805:11889   */\n      tag_259\n      jumpi\n        /* \"#utility.yul\":11861:11879   */\n      tag_260\n      tag_129\n      jump\t// in\n    tag_260:\n        /* \"#utility.yul\":11805:11889   */\n    tag_259:\n        /* \"#utility.yul\":11626:11895   */\n      pop\n        /* \"#utility.yul\":11575:11895   */\n      swap2\n      swap1\n      pop\n      jump\t// out\n        /* \"#utility.yul\":11901:12042   */\n    tag_130:\n        /* \"#utility.yul\":11950:11954   */\n      0x00\n        /* \"#utility.yul\":11973:11976   */\n      dup2\n        /* \"#utility.yul\":11965:11976   */\n      swap1\n      pop\n        /* \"#utility.yul\":11996:11999   */\n      dup2\n        /* \"#utility.yul\":11993:11994   */\n      0x00\n        /* \"#utility.yul\":11986:12000   */\n      mstore\n        /* \"#utility.yul\":12030:12034   */\n      0x20\n        /* \"#utility.yul\":12027:12028   */\n      0x00\n        /* \"#utility.yul\":12017:12035   */\n      keccak256\n        /* \"#utility.yul\":12009:12035   */\n      swap1\n      pop\n        /* \"#utility.yul\":11901:12042   */\n      swap2\n      swap1\n      pop\n      jump\t// out\n        /* \"#utility.yul\":12048:12141   */\n    tag_131:\n        /* \"#utility.yul\":12085:12091   */\n      0x00\n        /* \"#utility.yul\":12132:12134   */\n      0x20\n        /* \"#utility.yul\":12127:12129   */\n      0x1f\n        /* \"#utility.yul\":12120:12125   */\n      dup4\n        /* \"#utility.yul\":12116:12130   */\n      add\n        /* \"#utility.yul\":12112:12135   */\n      div\n        /* \"#utility.yul\":12102:12135   */\n      swap1\n      pop\n        /* \"#utility.yul\":12048:12141   */\n      swap2\n      swap1\n      pop\n      jump\t// out\n        /* \"#utility.yul\":12147:12254   */\n    tag_132:\n        /* \"#utility.yul\":12191:12199   */\n      0x00\n        /* \"#utility.yul\":12241:12246   */\n      dup3\n        /* \"#utility.yul\":12235:12239   */\n      dup3\n        /* \"#utility.yul\":12231:12247   */\n      shl\n        /* \"#utility.yul\":12210:12247   */\n      swap1\n      pop\n        /* \"#utility.yul\":12147:12254   */\n      swap3\n      swap2\n      pop\n      pop\n      jump\t// out\n        /* \"#utility.yul\":12260:12653   */\n    tag_133:\n        /* \"#utility.yul\":12329:12335   */\n      0x00\n        /* \"#utility.yul\":12379:12380   */\n      0x08\n        /* \"#utility.yul\":12367:12377   */\n      dup4\n        /* \"#utility.yul\":12363:12381   */\n      mul\n        /* \"#utility.yul\":12402:12499   */\n      tag_265\n        /* \"#utility.yul\":12432:12498   */\n      0xffffffffffffffffffffffffffffffffffffffffffffffffffffffffffffffff\n        /* \"#utility.yul\":12421:12430   */\n      dup3\n        /* \"#utility.yul\":12402:12499   */\n      tag_132\n      jump\t// in\n    tag_265:\n        /* \"#utility.yul\":12520:12559   */\n      tag_266\n        /* \"#utility.yul\":12550:12558   */\n      dup7\n        /* \"#utility.yul\":12539:12548   */\n      dup4\n        /* \"#utility.yul\":12520:12559   */\n      tag_132\n      jump\t// in\n    tag_266:\n        /* \"#utility.yul\":12508:12559   */\n      swap6\n      pop\n        /* \"#utility.yul\":12592:12596   */\n      dup1\n        /* \"#utility.yul\":12588:12597   */\n      not\n        /* \"#utility.yul\":12581:12586   */\n      dup5\n        /* \"#utility.yul\":12577:12598   */\n      and\n        /* \"#utility.yul\":12568:12598   */\n      swap4\n      pop\n        /* \"#utility.yul\":12641:12645   */\n      dup1\n        /* \"#utility.yul\":12631:12639   */\n      dup7\n        /* \"#utility.yul\":12627:12646   */\n      and\n        /* \"#utility.yul\":12620:12625   */\n      dup5\n        /* \"#utility.yul\":12617:12647   */\n      or\n        /* \"#utility.yul\":12607:12647   */\n      swap3\n      pop\n        /* \"#utility.yul\":12336:12653   */\n      pop\n      pop\n        /* \"#utility.yul\":12260:12653   */\n      swap4\n      swap3\n      pop\n      pop\n      pop\n      jump\t// out\n        /* \"#utility.yul\":12659:12719   */\n    tag_134:\n        /* \"#utility.yul\":12687:12690   */\n      0x00\n        /* \"#utility.yul\":12708:12713   */\n      dup2\n        /* \"#utility.yul\":12701:12713   */\n      swap1\n      pop\n        /* \"#utility.yul\":12659:12719   */\n      swap2\n      swap1\n      pop\n      jump\t// out\n        /* \"#utility.yul\":12725:12867   */\n    tag_135:\n        /* \"#utility.yul\":12775:12784   */\n      0x00\n        /* \"#utility.yul\":12808:12861   */\n      tag_269\n        /* \"#utility.yul\":12826:12860   */\n      tag_270\n        /* \"#utility.yul\":12835:12859   */\n      tag_271\n        /* \"#utility.yul\":12853:12858   */\n      dup5\n        /* \"#utility.yul\":12835:12859   */\n      tag_109\n      jump\t// in\n    tag_271:\n        /* \"#utility.yul\":12826:12860   */\n      tag_134\n      jump\t// in\n    tag_270:\n        /* \"#utility.yul\":12808:12861   */\n      tag_109\n      jump\t// in\n    tag_269:\n        /* \"#utility.yul\":12795:12861   */\n      swap1\n      pop\n        /* \"#utility.yul\":12725:12867   */\n      swap2\n      swap1\n      pop\n      jump\t// out\n        /* \"#utility.yul\":12873:12948   */\n    tag_136:\n        /* \"#utility.yul\":12916:12919   */\n      0x00\n        /* \"#utility.yul\":12937:12942   */\n      dup2\n        /* \"#utility.yul\":12930:12942   */\n      swap1\n      pop\n        /* \"#utility.yul\":12873:12948   */\n      swap2\n      swap1\n      pop\n      jump\t// out\n        /* \"#utility.yul\":12954:13223   */\n    tag_137:\n        /* \"#utility.yul\":13064:13103   */\n      tag_274\n        /* \"#utility.yul\":13095:13102   */\n      dup4\n        /* \"#utility.yul\":13064:13103   */\n      tag_135\n      jump\t// in\n    tag_274:\n        /* \"#utility.yul\":13125:13216   */\n      tag_275\n        /* \"#utility.yul\":13174:13215   */\n      tag_276\n        /* \"#utility.yul\":13198:13214   */\n      dup3\n        /* \"#utility.yul\":13174:13215   */\n      tag_136\n      jump\t// in\n    tag_276:\n        /* \"#utility.yul\":13166:13172   */\n      dup5\n        /* \"#utility.yul\":13159:13163   */\n      dup5\n        /* \"#utility.yul\":13153:13164   */\n      sload\n        /* \"#utility.yul\":13125:13216   */\n      tag_133\n      jump\t// in\n    tag_275:\n        /* \"#utility.yul\":13119:13123   */\n      dup3\n        /* \"#utility.yul\":13112:13217   */\n      sstore\n        /* \"#utility.yul\":13030:13223   */\n      pop\n        /* \"#utility.yul\":12954:13223   */\n      pop\n      pop\n      pop\n      jump\t// out\n        /* \"#utility.yul\":13229:13302   */\n    tag_138:\n        /* \"#utility.yul\":13274:13277   */\n      0x00\n        /* \"#utility.yul\":13295:13296   */\n      0x00\n        /* \"#utility.yul\":13288:13296   */\n      swap1\n      pop\n        /* \"#utility.yul\":13229:13302   */\n      swap1\n      jump\t// out\n        /* \"#utility.yul\":13308:13497   */\n    tag_139:\n        /* \"#utility.yul\":13385:13417   */\n      tag_279\n      tag_138\n      jump\t// in\n    tag_279:\n        /* \"#utility.yul\":13426:13491   */\n      tag_280\n        /* \"#utility.yul\":13484:13490   */\n      dup2\n        /* \"#utility.yul\":13476:13482   */\n      dup5\n        /* \"#utility.yul\":13470:13474   */\n      dup5\n        /* \"#utility.yul\":13426:13491   */\n      tag_137\n      jump\t// in\n    tag_280:\n        /* \"#utility.yul\":13361:13497   */\n      pop\n        /* \"#utility.yul\":13308:13497   */\n      pop\n      pop\n      jump\t// out\n        /* \"#utility.yul\":13503:13689   */\n    tag_140:\n        /* \"#utility.yul\":13563:13683   */\n    tag_282:\n        /* \"#utility.yul\":13580:13583   */\n      dup2\n        /* \"#utility.yul\":13573:13578   */\n      dup2\n        /* \"#utility.yul\":13570:13584   */\n      lt\n        /* \"#utility.yul\":13563:13683   */\n      iszero\n      tag_284\n      jumpi\n        /* \"#utility.yul\":13634:13673   */\n      tag_285\n        /* \"#utility.yul\":13671:13672   */\n      0x00\n        /* \"#utility.yul\":13664:13669   */\n      dup3\n        /* \"#utility.yul\":13634:13673   */\n      tag_139\n      jump\t// in\n    tag_285:\n        /* \"#utility.yul\":13607:13608   */\n      0x01\n        /* \"#utility.yul\":13600:13605   */\n      dup2\n        /* \"#utility.yul\":13596:13609   */\n      add\n        /* \"#utility.yul\":13587:13609   */\n      swap1\n      pop\n        /* \"#utility.yul\":13563:13683   */\n      jump(tag_282)\n    tag_284:\n        /* \"#utility.yul\":13503:13689   */\n      pop\n      pop\n      jump\t// out\n        /* \"#utility.yul\":13695:14238   */\n    tag_141:\n        /* \"#utility.yul\":13796:13798   */\n      0x1f\n        /* \"#utility.yul\":13791:13794   */\n      dup3\n        /* \"#utility.yul\":13788:13799   */\n      gt\n        /* \"#utility.yul\":13785:14231   */\n      iszero\n      tag_287\n      jumpi\n        /* \"#utility.yul\":13830:13868   */\n      tag_288\n        /* \"#utility.yul\":13862:13867   */\n      dup2\n        /* \"#utility.yul\":13830:13868   */\n      tag_130\n      jump\t// in\n    tag_288:\n        /* \"#utility.yul\":13914:13943   */\n      tag_289\n        /* \"#utility.yul\":13932:13942   */\n      dup5\n        /* \"#utility.yul\":13914:13943   */\n      tag_131\n      jump\t// in\n    tag_289:\n        /* \"#utility.yul\":13904:13912   */\n      dup2\n        /* \"#utility.yul\":13900:13944   */\n      add\n        /* \"#utility.yul\":14097:14099   */\n      0x20\n        /* \"#utility.yul\":14085:14095   */\n      dup6\n        /* \"#utility.yul\":14082:14100   */\n      lt\n        /* \"#utility.yul\":14079:14128   */\n      iszero\n      tag_290\n      jumpi\n        /* \"#utility.yul\":14118:14126   */\n      dup2\n        /* \"#utility.yul\":14103:14126   */\n      swap1\n      pop\n        /* \"#utility.yul\":14079:14128   */\n    tag_290:\n        /* \"#utility.yul\":14141:14221   */\n      tag_291\n        /* \"#utility.yul\":14197:14219   */\n      tag_292\n        /* \"#utility.yul\":14215:14218   */\n      dup6\n        /* \"#utility.yul\":14197:14219   */\n      tag_131\n      jump\t// in\n    tag_292:\n        /* \"#utility.yul\":14187:14195   */\n      dup4\n        /* \"#utility.yul\":14183:14220   */\n      add\n        /* \"#utility.yul\":14170:14181   */\n      dup3\n        /* \"#utility.yul\":14141:14221   */\n      tag_140\n      jump\t// in\n    tag_291:\n        /* \"#utility.yul\":13800:14231   */\n      pop\n      pop\n        /* \"#utility.yul\":13785:14231   */\n    tag_287:\n        /* \"#utility.yul\":13695:14238   */\n      pop\n      pop\n      pop\n      jump\t// out\n        /* \"#utility.yul\":14244:14361   */\n    tag_142:\n        /* \"#utility.yul\":14298:14306   */\n      0x00\n        /* \"#utility.yul\":14348:14353   */\n      dup3\n        /* \"#utility.yul\":14342:14346   */\n      dup3\n        /* \"#utility.yul\":14338:14354   */\n      shr\n        /* \"#utility.yul\":14317:14354   */\n      swap1\n      pop\n        /* \"#utility.yul\":14244:14361   */\n      swap3\n      swap2\n      pop\n      pop\n      jump\t// out\n        /* \"#utility.yul\":14367:14536   */\n    tag_143:\n        /* \"#utility.yul\":14411:14417   */\n      0x00\n        /* \"#utility.yul\":14444:14495   */\n      tag_295\n        /* \"#utility.yul\":14492:14493   */\n      0x00\n        /* \"#utility.yul\":14488:14494   */\n      not\n        /* \"#utility.yul\":14480:14485   */\n      dup5\n        /* \"#utility.yul\":14477:14478   */\n      0x08\n        /* \"#utility.yul\":14473:14486   */\n      mul\n        /* \"#utility.yul\":14444:14495   */\n      tag_142\n      jump\t// in\n    tag_295:\n        /* \"#utility.yul\":14440:14496   */\n      not\n        /* \"#utility.yul\":14525:14529   */\n      dup1\n        /* \"#utility.yul\":14519:14523   */\n      dup4\n        /* \"#utility.yul\":14515:14530   */\n      and\n        /* \"#utility.yul\":14505:14530   */\n      swap2\n      pop\n        /* \"#utility.yul\":14418:14536   */\n      pop\n        /* \"#utility.yul\":14367:14536   */\n      swap3\n      swap2\n      pop\n      pop\n      jump\t// out\n        /* \"#utility.yul\":14541:14836   */\n    tag_144:\n        /* \"#utility.yul\":14617:14621   */\n      0x00\n        /* \"#utility.yul\":14763:14792   */\n      tag_297\n        /* \"#utility.yul\":14788:14791   */\n      dup4\n        /* \"#utility.yul\":14782:14786   */\n      dup4\n        /* \"#utility.yul\":14763:14792   */\n      tag_143\n      jump\t// in\n    tag_297:\n        /* \"#utility.yul\":14755:14792   */\n      swap2\n      pop\n        /* \"#utility.yul\":14825:14828   */\n      dup3\n        /* \"#utility.yul\":14822:14823   */\n      0x02\n        /* \"#utility.yul\":14818:14829   */\n      mul\n        /* \"#utility.yul\":14812:14816   */\n      dup3\n        /* \"#utility.yul\":14809:14830   */\n      or\n        /* \"#utility.yul\":14801:14830   */\n      swap1\n      pop\n        /* \"#utility.yul\":14541:14836   */\n      swap3\n      swap2\n      pop\n      pop\n      jump\t// out\n        /* \"#utility.yul\":14841:16236   */\n    tag_31:\n        /* \"#utility.yul\":14958:14995   */\n      tag_299\n        /* \"#utility.yul\":14991:14994   */\n      dup3\n        /* \"#utility.yul\":14958:14995   */\n      tag_115\n      jump\t// in\n    tag_299:\n        /* \"#utility.yul\":15060:15078   */\n      0xffffffffffffffff\n        /* \"#utility.yul\":15052:15058   */\n      dup2\n        /* \"#utility.yul\":15049:15079   */\n      gt\n        /* \"#utility.yul\":15046:15102   */\n      iszero\n      tag_300\n      jumpi\n        /* \"#utility.yul\":15082:15100   */\n      tag_301\n      tag_40\n      jump\t// in\n    tag_301:\n        /* \"#utility.yul\":15046:15102   */\n    tag_300:\n        /* \"#utility.yul\":15126:15164   */\n      tag_302\n        /* \"#utility.yul\":15158:15162   */\n      dup3\n        /* \"#utility.yul\":15152:15163   */\n      sload\n        /* \"#utility.yul\":15126:15164   */\n      tag_49\n      jump\t// in\n    tag_302:\n        /* \"#utility.yul\":15211:15278   */\n      tag_303\n        /* \"#utility.yul\":15271:15277   */\n      dup3\n        /* \"#utility.yul\":15263:15269   */\n      dup3\n        /* \"#utility.yul\":15257:15261   */\n      dup6\n        /* \"#utility.yul\":15211:15278   */\n      tag_141\n      jump\t// in\n    tag_303:\n        /* \"#utility.yul\":15305:15306   */\n      0x00\n        /* \"#utility.yul\":15329:15333   */\n      0x20\n        /* \"#utility.yul\":15316:15333   */\n      swap1\n      pop\n        /* \"#utility.yul\":15361:15363   */\n      0x1f\n        /* \"#utility.yul\":15353:15359   */\n      dup4\n        /* \"#utility.yul\":15350:15364   */\n      gt\n        /* \"#utility.yul\":15378:15379   */\n      0x01\n        /* \"#utility.yul\":15373:15991   */\n      dup2\n      eq\n      tag_305\n      jumpi\n        /* \"#utility.yul\":16035:16036   */\n      0x00\n        /* \"#utility.yul\":16052:16058   */\n      dup5\n        /* \"#utility.yul\":16049:16126   */\n      iszero\n      tag_306\n      jumpi\n        /* \"#utility.yul\":16101:16110   */\n      dup3\n        /* \"#utility.yul\":16096:16099   */\n      dup8\n        /* \"#utility.yul\":16092:16111   */\n      add\n        /* \"#utility.yul\":16086:16112   */\n      mload\n        /* \"#utility.yul\":16077:16112   */\n      swap1\n      pop\n        /* \"#utility.yul\":16049:16126   */\n    tag_306:\n        /* \"#utility.yul\":16152:16219   */\n      tag_307\n        /* \"#utility.yul\":16212:16218   */\n      dup6\n        /* \"#utility.yul\":16205:16210   */\n      dup3\n        /* \"#utility.yul\":16152:16219   */\n      tag_144\n      jump\t// in\n    tag_307:\n        /* \"#utility.yul\":16146:16150   */\n      dup7\n        /* \"#utility.yul\":16139:16220   */\n      sstore\n        /* \"#utility.yul\":16008:16230   */\n      pop\n        /* \"#utility.yul\":15343:16230   */\n      jump(tag_304)\n        /* \"#utility.yul\":15373:15991   */\n    tag_305:\n        /* \"#utility.yul\":15425:15429   */\n      0x1f\n        /* \"#utility.yul\":15421:15430   */\n      not\n        /* \"#utility.yul\":15413:15419   */\n      dup5\n        /* \"#utility.yul\":15409:15431   */\n      and\n        /* \"#utility.yul\":15459:15496   */\n      tag_308\n        /* \"#utility.yul\":15491:15495   */\n      dup7\n        /* \"#utility.yul\":15459:15496   */\n      tag_130\n      jump\t// in\n    tag_308:\n        /* \"#utility.yul\":15518:15519   */\n      0x00\n        /* \"#utility.yul\":15532:15740   */\n    tag_309:\n        /* \"#utility.yul\":15546:15553   */\n      dup3\n        /* \"#utility.yul\":15543:15544   */\n      dup2\n        /* \"#utility.yul\":15540:15554   */\n      lt\n        /* \"#utility.yul\":15532:15740   */\n      iszero\n      tag_311\n      jumpi\n        /* \"#utility.yul\":15625:15634   */\n      dup5\n        /* \"#utility.yul\":15620:15623   */\n      dup10\n        /* \"#utility.yul\":15616:15635   */\n      add\n        /* \"#utility.yul\":15610:15636   */\n      mload\n        /* \"#utility.yul\":15602:15608   */\n      dup3\n        /* \"#utility.yul\":15595:15637   */\n      sstore\n        /* \"#utility.yul\":15676:15677   */\n      0x01\n        /* \"#utility.yul\":15668:15674   */\n      dup3\n        /* \"#utility.yul\":15664:15678   */\n      add\n        /* \"#utility.yul\":15654:15678   */\n      swap2\n      pop\n        /* \"#utility.yul\":15723:15725   */\n      0x20\n        /* \"#utility.yul\":15712:15721   */\n      dup6\n        /* \"#utility.yul\":15708:15726   */\n      add\n        /* \"#utility.yul\":15695:15726   */\n      swap5\n      pop\n        /* \"#utility.yul\":15569:15573   */\n      0x20\n        /* \"#utility.yul\":15566:15567   */\n      dup2\n        /* \"#utility.yul\":15562:15574   */\n      add\n        /* \"#utility.yul\":15557:15574   */\n      swap1\n      pop\n        /* \"#utility.yul\":15532:15740   */\n      jump(tag_309)\n    tag_311:\n        /* \"#utility.yul\":15768:15774   */\n      dup7\n        /* \"#utility.yul\":15759:15766   */\n      dup4\n        /* \"#utility.yul\":15756:15775   */\n      lt\n        /* \"#utility.yul\":15753:15932   */\n      iszero\n      tag_312\n      jumpi\n        /* \"#utility.yul\":15826:15835   */\n      dup5\n        /* \"#utility.yul\":15821:15824   */\n      dup10\n        /* \"#utility.yul\":15817:15836   */\n      add\n        /* \"#utility.yul\":15811:15837   */\n      mload\n        /* \"#utility.yul\":15869:15917   */\n      tag_313\n        /* \"#utility.yul\":15911:15915   */\n      0x1f\n        /* \"#utility.yul\":15903:15909   */\n      dup10\n        /* \"#utility.yul\":15899:15916   */\n      and\n        /* \"#utility.yul\":15888:15897   */\n      dup3\n        /* \"#utility.yul\":15869:15917   */\n      tag_143\n      jump\t// in\n    tag_313:\n        /* \"#utility.yul\":15861:15867   */\n      dup4\n        /* \"#utility.yul\":15854:15918   */\n      sstore\n        /* \"#utility.yul\":15776:15932   */\n      pop\n        /* \"#utility.yul\":15753:15932   */\n    tag_312:\n        /* \"#utility.yul\":15978:15979   */\n      0x01\n        /* \"#utility.yul\":15974:15975   */\n      0x02\n        /* \"#utility.yul\":15966:15972   */\n      dup9\n        /* \"#utility.yul\":15962:15976   */\n      mul\n        /* \"#utility.yul\":15958:15980   */\n      add\n        /* \"#utility.yul\":15952:15956   */\n      dup9\n        /* \"#utility.yul\":15945:15981   */\n      sstore\n        /* \"#utility.yul\":15380:15991   */\n      pop\n      pop\n      pop\n        /* \"#utility.yul\":15343:16230   */\n    tag_304:\n      pop\n        /* \"#utility.yul\":14933:16236   */\n      pop\n      pop\n      pop\n        /* \"#utility.yul\":14841:16236   */\n      pop\n      pop\n      jump\t// out\n        /* \"#utility.yul\":16242:16665   */\n    tag_34:\n        /* \"#utility.yul\":16383:16387   */\n      0x00\n        /* \"#utility.yul\":16421:16423   */\n      0x40\n        /* \"#utility.yul\":16410:16419   */\n      dup3\n        /* \"#utility.yul\":16406:16424   */\n      add\n        /* \"#utility.yul\":16398:16424   */\n      swap1\n      pop\n        /* \"#utility.yul\":16434:16505   */\n      tag_315\n        /* \"#utility.yul\":16502:16503   */\n      0x00\n        /* \"#utility.yul\":16491:16500   */\n      dup4\n        /* \"#utility.yul\":16487:16504   */\n      add\n        /* \"#utility.yul\":16478:16484   */\n      dup6\n        /* \"#utility.yul\":16434:16505   */\n      tag_128\n      jump\t// in\n    tag_315:\n        /* \"#utility.yul\":16552:16561   */\n      dup2\n        /* \"#utility.yul\":16546:16550   */\n      dup2\n        /* \"#utility.yul\":16542:16562   */\n      sub\n        /* \"#utility.yul\":16537:16539   */\n      0x20\n        /* \"#utility.yul\":16526:16535   */\n      dup4\n        /* \"#utility.yul\":16522:16540   */\n      add\n        /* \"#utility.yul\":16515:16563   */\n      mstore\n        /* \"#utility.yul\":16580:16658   */\n      tag_316\n        /* \"#utility.yul\":16653:16657   */\n      dup2\n        /* \"#utility.yul\":16644:16650   */\n      dup5\n        /* \"#utility.yul\":16580:16658   */\n      tag_127\n      jump\t// in\n    tag_316:\n        /* \"#utility.yul\":16572:16658   */\n      swap1\n      pop\n        /* \"#utility.yul\":16242:16665   */\n      swap4\n      swap3\n      pop\n      pop\n      pop\n      jump\t// out\n        /* \"#utility.yul\":16671:16851   */\n    tag_145:\n        /* \"#utility.yul\":16719:16796   */\n      0x4e487b7100000000000000000000000000000000000000000000000000000000\n        /* \"#utility.yul\":16716:16717   */\n      0x00\n        /* \"#utility.yul\":16709:16797   */\n      mstore\n        /* \"#utility.yul\":16816:16820   */\n      0x11\n        /* \"#utility.yul\":16813:16814   */\n      0x04\n        /* \"#utility.yul\":16806:16821   */\n      mstore\n        /* \"#utility.yul\":16840:16844   */\n      0x24\n        /* \"#utility.yul\":16837:16838   */\n      0x00\n        /* \"#utility.yul\":16830:16845   */\n      revert\n        /* \"#utility.yul\":16857:17090   */\n    tag_36:\n        /* \"#utility.yul\":16896:16899   */\n      0x00\n        /* \"#utility.yul\":16919:16943   */\n      tag_319\n        /* \"#utility.yul\":16937:16942   */\n      dup3\n        /* \"#utility.yul\":16919:16943   */\n      tag_109\n      jump\t// in\n    tag_319:\n        /* \"#utility.yul\":16910:16943   */\n      swap2\n      pop\n        /* \"#utility.yul\":16965:17031   */\n      0xffffffffffffffffffffffffffffffffffffffffffffffffffffffffffffffff\n        /* \"#utility.yul\":16958:16963   */\n      dup3\n        /* \"#utility.yul\":16955:17032   */\n      sub\n        /* \"#utility.yul\":16952:17055   */\n      tag_320\n      jumpi\n        /* \"#utility.yul\":17035:17053   */\n      tag_321\n      tag_145\n      jump\t// in\n    tag_321:\n        /* \"#utility.yul\":16952:17055   */\n    tag_320:\n        /* \"#utility.yul\":17082:17083   */\n      0x01\n        /* \"#utility.yul\":17075:17080   */\n      dup3\n        /* \"#utility.yul\":17071:17084   */\n      add\n        /* \"#utility.yul\":17064:17084   */\n      swap1\n      pop\n        /* \"#utility.yul\":16857:17090   */\n      swap2\n      swap1\n      pop\n      jump\t// out\n        /* \"#utility.yul\":17096:17276   */\n    tag_61:\n        /* \"#utility.yul\":17144:17221   */\n      0x4e487b7100000000000000000000000000000000000000000000000000000000\n        /* \"#utility.yul\":17141:17142   */\n      0x00\n        /* \"#utility.yul\":17134:17222   */\n      mstore\n        /* \"#utility.yul\":17241:17245   */\n      0x32\n        /* \"#utility.yul\":17238:17239   */\n      0x04\n        /* \"#utility.yul\":17231:17246   */\n      mstore\n        /* \"#utility.yul\":17265:17269   */\n      0x24\n        /* \"#utility.yul\":17262:17263   */\n      0x00\n        /* \"#utility.yul\":17255:17270   */\n      revert\n        /* \"#utility.yul\":17282:17448   */\n    tag_146:\n        /* \"#utility.yul\":17422:17440   */\n      0x4576656e746f206e6f2065786973746500000000000000000000000000000000\n        /* \"#utility.yul\":17418:17419   */\n      0x00\n        /* \"#utility.yul\":17410:17416   */\n      dup3\n        /* \"#utility.yul\":17406:17420   */\n      add\n        /* \"#utility.yul\":17399:17441   */\n      mstore\n        /* \"#utility.yul\":17282:17448   */\n      pop\n      jump\t// out\n        /* \"#utility.yul\":17454:17820   */\n    tag_147:\n        /* \"#utility.yul\":17596:17599   */\n      0x00\n        /* \"#utility.yul\":17617:17684   */\n      tag_325\n        /* \"#utility.yul\":17681:17683   */\n      0x10\n        /* \"#utility.yul\":17676:17679   */\n      dup4\n        /* \"#utility.yul\":17617:17684   */\n      tag_126\n      jump\t// in\n    tag_325:\n        /* \"#utility.yul\":17610:17684   */\n      swap2\n      pop\n        /* \"#utility.yul\":17693:17786   */\n      tag_326\n        /* \"#utility.yul\":17782:17785   */\n      dup3\n        /* \"#utility.yul\":17693:17786   */\n      tag_146\n      jump\t// in\n    tag_326:\n        /* \"#utility.yul\":17811:17813   */\n      0x20\n        /* \"#utility.yul\":17806:17809   */\n      dup3\n        /* \"#utility.yul\":17802:17814   */\n      add\n        /* \"#utility.yul\":17795:17814   */\n      swap1\n      pop\n        /* \"#utility.yul\":17454:17820   */\n      swap2\n      swap1\n      pop\n      jump\t// out\n        /* \"#utility.yul\":17826:18245   */\n    tag_65:\n        /* \"#utility.yul\":17992:17996   */\n      0x00\n        /* \"#utility.yul\":18030:18032   */\n      0x20\n        /* \"#utility.yul\":18019:18028   */\n      dup3\n        /* \"#utility.yul\":18015:18033   */\n      add\n        /* \"#utility.yul\":18007:18033   */\n      swap1\n      pop\n        /* \"#utility.yul\":18079:18088   */\n      dup2\n        /* \"#utility.yul\":18073:18077   */\n      dup2\n        /* \"#utility.yul\":18069:18089   */\n      sub\n        /* \"#utility.yul\":18065:18066   */\n      0x00\n        /* \"#utility.yul\":18054:18063   */\n      dup4\n        /* \"#utility.yul\":18050:18067   */\n      add\n        /* \"#utility.yul\":18043:18090   */\n      mstore\n        /* \"#utility.yul\":18107:18238   */\n      tag_328\n        /* \"#utility.yul\":18233:18237   */\n      dup2\n        /* \"#utility.yul\":18107:18238   */\n      tag_147\n      jump\t// in\n    tag_328:\n        /* \"#utility.yul\":18099:18238   */\n      swap1\n      pop\n        /* \"#utility.yul\":17826:18245   */\n      swap2\n      swap1\n      pop\n      jump\t// out\n        /* \"#utility.yul\":18251:18473   */\n    tag_89:\n        /* \"#utility.yul\":18344:18348   */\n      0x00\n        /* \"#utility.yul\":18382:18384   */\n      0x20\n        /* \"#utility.yul\":18371:18380   */\n      dup3\n        /* \"#utility.yul\":18367:18385   */\n      add\n        /* \"#utility.yul\":18359:18385   */\n      swap1\n      pop\n        /* \"#utility.yul\":18395:18466   */\n      tag_330\n        /* \"#utility.yul\":18463:18464   */\n      0x00\n        /* \"#utility.yul\":18452:18461   */\n      dup4\n        /* \"#utility.yul\":18448:18465   */\n      add\n        /* \"#utility.yul\":18439:18445   */\n      dup5\n        /* \"#utility.yul\":18395:18466   */\n      tag_128\n      jump\t// in\n    tag_330:\n        /* \"#utility.yul\":18251:18473   */\n      swap3\n      swap2\n      pop\n      pop\n      jump\t// out\n\n    auxdata: 0xa2646970667358221220ba6afe500f20889122ab84463f2c7acc037f28659ba21ef717f61fa58cdf98a364736f6c634300081e0033\n}\n",
				"bytecode": {
					"linkReferences": {},
					"object": "6080604052348015600e575f5ffd5b5061149c8061001c5f395ff3fe608060405234801561000f575f5ffd5b5060043610610055575f3560e01c80635555fe171461005957806355d27a5c146100755780636d1884e01461009357806397116bca146100c5578063f8749a58146100e1575b5f5ffd5b610073600480360381019061006e9190610c96565b6100fd565b005b61007d6102e3565b60405161008a9190610ec9565b60405180910390f35b6100ad60048036038101906100a89190610ee9565b610557565b6040516100bc93929190610f6b565b60405180910390f35b6100df60048036038101906100da9190610fae565b610771565b005b6100fb60048036038101906100f69190610ee9565b610926565b005b6040518060800160405280848152602001838152602001828152602001600115158152505f5f3373ffffffffffffffffffffffffffffffffffffffff1673ffffffffffffffffffffffffffffffffffffffff1681526020019081526020015f205f60015f3373ffffffffffffffffffffffffffffffffffffffff1673ffffffffffffffffffffffffffffffffffffffff1681526020019081526020015f205481526020019081526020015f205f820151815f0190816101bc9190611247565b5060208201518160010190816101d29190611247565b50604082015181600201556060820151816003015f6101000a81548160ff0219169083151502179055509050503373ffffffffffffffffffffffffffffffffffffffff167f2d6b28a8aa465ea8ef959ffa368300fb581a01072a789f5dafb1a34f97125b0060015f3373ffffffffffffffffffffffffffffffffffffffff1673ffffffffffffffffffffffffffffffffffffffff1681526020019081526020015f205485604051610284929190611316565b60405180910390a260015f3373ffffffffffffffffffffffffffffffffffffffff1673ffffffffffffffffffffffffffffffffffffffff1681526020019081526020015f205f8154809291906102d990611371565b9190505550505050565b60605f60015f3373ffffffffffffffffffffffffffffffffffffffff1673ffffffffffffffffffffffffffffffffffffffff1681526020019081526020015f205490505f8167ffffffffffffffff81111561034157610340610b3f565b5b60405190808252806020026020018201604052801561037a57816020015b610367610a96565b81526020019060019003908161035f5790505b5090505f5f90505b8281101561054e575f5f3373ffffffffffffffffffffffffffffffffffffffff1673ffffffffffffffffffffffffffffffffffffffff1681526020019081526020015f205f8281526020019081526020015f206040518060800160405290815f820180546103ef90611077565b80601f016020809104026020016040519081016040528092919081815260200182805461041b90611077565b80156104665780601f1061043d57610100808354040283529160200191610466565b820191905f5260205f20905b81548152906001019060200180831161044957829003601f168201915b5050505050815260200160018201805461047f90611077565b80601f01602080910402602001604051908101604052809291908181526020018280546104ab90611077565b80156104f65780601f106104cd576101008083540402835291602001916104f6565b820191905f5260205f20905b8154815290600101906020018083116104d957829003601f168201915b5050505050815260200160028201548152602001600382015f9054906101000a900460ff161515151581525050828281518110610536576105356113b8565b5b60200260200101819052508080600101915050610382565b50809250505090565b6060805f5f5f3373ffffffffffffffffffffffffffffffffffffffff1673ffffffffffffffffffffffffffffffffffffffff1681526020019081526020015f205f8581526020019081526020015f206003015f9054906101000a900460ff166105f5576040517f08c379a00000000000000000000000000000000000000000000000000000000081526004016105ec9061142f565b60405180910390fd5b5f5f5f3373ffffffffffffffffffffffffffffffffffffffff1673ffffffffffffffffffffffffffffffffffffffff1681526020019081526020015f205f8681526020019081526020015f209050805f0181600101826002015482805461065b90611077565b80601f016020809104026020016040519081016040528092919081815260200182805461068790611077565b80156106d25780601f106106a9576101008083540402835291602001916106d2565b820191905f5260205f20905b8154815290600101906020018083116106b557829003601f168201915b505050505092508180546106e590611077565b80601f016020809104026020016040519081016040528092919081815260200182805461071190611077565b801561075c5780601f106107335761010080835404028352916020019161075c565b820191905f5260205f20905b81548152906001019060200180831161073f57829003601f168201915b50505050509150935093509350509193909250565b5f5f3373ffffffffffffffffffffffffffffffffffffffff1673ffffffffffffffffffffffffffffffffffffffff1681526020019081526020015f205f8581526020019081526020015f206003015f9054906101000a900460ff1661080b576040517f08c379a00000000000000000000000000000000000000000000000000000000081526004016108029061142f565b60405180910390fd5b6040518060800160405280848152602001838152602001828152602001600115158152505f5f3373ffffffffffffffffffffffffffffffffffffffff1673ffffffffffffffffffffffffffffffffffffffff1681526020019081526020015f205f8681526020019081526020015f205f820151815f01908161088d9190611247565b5060208201518160010190816108a39190611247565b50604082015181600201556060820151816003015f6101000a81548160ff0219169083151502179055509050503373ffffffffffffffffffffffffffffffffffffffff167f580f21ba5ac386015e66e7cafbca44f69f33ac115522371f34ff2cee5a0efd228585604051610918929190611316565b60405180910390a250505050565b5f5f3373ffffffffffffffffffffffffffffffffffffffff1673ffffffffffffffffffffffffffffffffffffffff1681526020019081526020015f205f8281526020019081526020015f206003015f9054906101000a900460ff166109c0576040517f08c379a00000000000000000000000000000000000000000000000000000000081526004016109b79061142f565b60405180910390fd5b5f5f3373ffffffffffffffffffffffffffffffffffffffff1673ffffffffffffffffffffffffffffffffffffffff1681526020019081526020015f205f8281526020019081526020015f205f5f82015f610a1a9190610abe565b600182015f610a299190610abe565b600282015f9055600382015f6101000a81549060ff021916905550503373ffffffffffffffffffffffffffffffffffffffff167f485a32ab922f212c1c1ef5f52f142ca88fdba8cf46d8dfcda744922c234fb44882604051610a8b919061144d565b60405180910390a250565b604051806080016040528060608152602001606081526020015f81526020015f151581525090565b508054610aca90611077565b5f825580601f10610adb5750610af8565b601f0160209004905f5260205f2090810190610af79190610afb565b5b50565b5b80821115610b12575f815f905550600101610afc565b5090565b5f604051905090565b5f5ffd5b5f5ffd5b5f5ffd5b5f5ffd5b5f601f19601f8301169050919050565b7f4e487b71000000000000000000000000000000000000000000000000000000005f52604160045260245ffd5b610b7582610b2f565b810181811067ffffffffffffffff82111715610b9457610b93610b3f565b5b80604052505050565b5f610ba6610b16565b9050610bb28282610b6c565b919050565b5f67ffffffffffffffff821115610bd157610bd0610b3f565b5b610bda82610b2f565b9050602081019050919050565b828183375f83830152505050565b5f610c07610c0284610bb7565b610b9d565b905082815260208101848484011115610c2357610c22610b2b565b5b610c2e848285610be7565b509392505050565b5f82601f830112610c4a57610c49610b27565b5b8135610c5a848260208601610bf5565b91505092915050565b5f819050919050565b610c7581610c63565b8114610c7f575f5ffd5b50565b5f81359050610c9081610c6c565b92915050565b5f5f5f60608486031215610cad57610cac610b1f565b5b5f84013567ffffffffffffffff811115610cca57610cc9610b23565b5b610cd686828701610c36565b935050602084013567ffffffffffffffff811115610cf757610cf6610b23565b5b610d0386828701610c36565b9250506040610d1486828701610c82565b9150509250925092565b5f81519050919050565b5f82825260208201905092915050565b5f819050602082019050919050565b5f81519050919050565b5f82825260208201905092915050565b8281835e5f83830152505050565b5f610d7982610d47565b610d838185610d51565b9350610d93818560208601610d61565b610d9c81610b2f565b840191505092915050565b610db081610c63565b82525050565b5f8115159050919050565b610dca81610db6565b82525050565b5f608083015f8301518482035f860152610dea8282610d6f565b91505060208301518482036020860152610e048282610d6f565b9150506040830151610e196040860182610da7565b506060830151610e2c6060860182610dc1565b508091505092915050565b5f610e428383610dd0565b905092915050565b5f602082019050919050565b5f610e6082610d1e565b610e6a8185610d28565b935083602082028501610e7c85610d38565b805f5b85811015610eb75784840389528151610e988582610e37565b9450610ea383610e4a565b925060208a01995050600181019050610e7f565b50829750879550505050505092915050565b5f6020820190508181035f830152610ee18184610e56565b905092915050565b5f60208284031215610efe57610efd610b1f565b5b5f610f0b84828501610c82565b91505092915050565b5f82825260208201905092915050565b5f610f2e82610d47565b610f388185610f14565b9350610f48818560208601610d61565b610f5181610b2f565b840191505092915050565b610f6581610c63565b82525050565b5f6060820190508181035f830152610f838186610f24565b90508181036020830152610f978185610f24565b9050610fa66040830184610f5c565b949350505050565b5f5f5f5f60808587031215610fc657610fc5610b1f565b5b5f610fd387828801610c82565b945050602085013567ffffffffffffffff811115610ff457610ff3610b23565b5b61100087828801610c36565b935050604085013567ffffffffffffffff81111561102157611020610b23565b5b61102d87828801610c36565b925050606061103e87828801610c82565b91505092959194509250565b7f4e487b71000000000000000000000000000000000000000000000000000000005f52602260045260245ffd5b5f600282049050600182168061108e57607f821691505b6020821081036110a1576110a061104a565b5b50919050565b5f819050815f5260205f209050919050565b5f6020601f8301049050919050565b5f82821b905092915050565b5f600883026111037fffffffffffffffffffffffffffffffffffffffffffffffffffffffffffffffff826110c8565b61110d86836110c8565b95508019841693508086168417925050509392505050565b5f819050919050565b5f61114861114361113e84610c63565b611125565b610c63565b9050919050565b5f819050919050565b6111618361112e565b61117561116d8261114f565b8484546110d4565b825550505050565b5f5f905090565b61118c61117d565b611197818484611158565b505050565b5b818110156111ba576111af5f82611184565b60018101905061119d565b5050565b601f8211156111ff576111d0816110a7565b6111d9846110b9565b810160208510156111e8578190505b6111fc6111f4856110b9565b83018261119c565b50505b505050565b5f82821c905092915050565b5f61121f5f1984600802611204565b1980831691505092915050565b5f6112378383611210565b9150826002028217905092915050565b61125082610d47565b67ffffffffffffffff81111561126957611268610b3f565b5b6112738254611077565b61127e8282856111be565b5f60209050601f8311600181146112af575f841561129d578287015190505b6112a7858261122c565b86555061130e565b601f1984166112bd866110a7565b5f5b828110156112e4578489015182556001820191506020850194506020810190506112bf565b8683101561130157848901516112fd601f891682611210565b8355505b6001600288020188555050505b505050505050565b5f6040820190506113295f830185610f5c565b818103602083015261133b8184610f24565b90509392505050565b7f4e487b71000000000000000000000000000000000000000000000000000000005f52601160045260245ffd5b5f61137b82610c63565b91507fffffffffffffffffffffffffffffffffffffffffffffffffffffffffffffffff82036113ad576113ac611344565b5b600182019050919050565b7f4e487b71000000000000000000000000000000000000000000000000000000005f52603260045260245ffd5b7f4576656e746f206e6f20657869737465000000000000000000000000000000005f82015250565b5f611419601083610f14565b9150611424826113e5565b602082019050919050565b5f6020820190508181035f8301526114468161140d565b9050919050565b5f6020820190506114605f830184610f5c565b9291505056fea2646970667358221220ba6afe500f20889122ab84463f2c7acc037f28659ba21ef717f61fa58cdf98a364736f6c634300081e0033",
					"opcodes": "PUSH1 0x80 PUSH1 0x40 MSTORE CALLVALUE DUP1 ISZERO PUSH1 0xE JUMPI PUSH0 PUSH0 REVERT JUMPDEST POP PUSH2 0x149C DUP1 PUSH2 0x1C PUSH0 CODECOPY PUSH0 RETURN INVALID PUSH1 0x80 PUSH1 0x40 MSTORE CALLVALUE DUP1 ISZERO PUSH2 0xF JUMPI PUSH0 PUSH0 REVERT JUMPDEST POP PUSH1 0x4 CALLDATASIZE LT PUSH2 0x55 JUMPI PUSH0 CALLDATALOAD PUSH1 0xE0 SHR DUP1 PUSH4 0x5555FE17 EQ PUSH2 0x59 JUMPI DUP1 PUSH4 0x55D27A5C EQ PUSH2 0x75 JUMPI DUP1 PUSH4 0x6D1884E0 EQ PUSH2 0x93 JUMPI DUP1 PUSH4 0x97116BCA EQ PUSH2 0xC5 JUMPI DUP1 PUSH4 0xF8749A58 EQ PUSH2 0xE1 JUMPI JUMPDEST PUSH0 PUSH0 REVERT JUMPDEST PUSH2 0x73 PUSH1 0x4 DUP1 CALLDATASIZE SUB DUP2 ADD SWAP1 PUSH2 0x6E SWAP2 SWAP1 PUSH2 0xC96 JUMP JUMPDEST PUSH2 0xFD JUMP JUMPDEST STOP JUMPDEST PUSH2 0x7D PUSH2 0x2E3 JUMP JUMPDEST PUSH1 0x40 MLOAD PUSH2 0x8A SWAP2 SWAP1 PUSH2 0xEC9 JUMP JUMPDEST PUSH1 0x40 MLOAD DUP1 SWAP2 SUB SWAP1 RETURN JUMPDEST PUSH2 0xAD PUSH1 0x4 DUP1 CALLDATASIZE SUB DUP2 ADD SWAP1 PUSH2 0xA8 SWAP2 SWAP1 PUSH2 0xEE9 JUMP JUMPDEST PUSH2 0x557 JUMP JUMPDEST PUSH1 0x40 MLOAD PUSH2 0xBC SWAP4 SWAP3 SWAP2 SWAP1 PUSH2 0xF6B JUMP JUMPDEST PUSH1 0x40 MLOAD DUP1 SWAP2 SUB SWAP1 RETURN JUMPDEST PUSH2 0xDF PUSH1 0x4 DUP1 CALLDATASIZE SUB DUP2 ADD SWAP1 PUSH2 0xDA SWAP2 SWAP1 PUSH2 0xFAE JUMP JUMPDEST PUSH2 0x771 JUMP JUMPDEST STOP JUMPDEST PUSH2 0xFB PUSH1 0x4 DUP1 CALLDATASIZE SUB DUP2 ADD SWAP1 PUSH2 0xF6 SWAP2 SWAP1 PUSH2 0xEE9 JUMP JUMPDEST PUSH2 0x926 JUMP JUMPDEST STOP JUMPDEST PUSH1 0x40 MLOAD DUP1 PUSH1 0x80 ADD PUSH1 0x40 MSTORE DUP1 DUP5 DUP2 MSTORE PUSH1 0x20 ADD DUP4 DUP2 MSTORE PUSH1 0x20 ADD DUP3 DUP2 MSTORE PUSH1 0x20 ADD PUSH1 0x1 ISZERO ISZERO DUP2 MSTORE POP PUSH0 PUSH0 CALLER PUSH20 0xFFFFFFFFFFFFFFFFFFFFFFFFFFFFFFFFFFFFFFFF AND PUSH20 0xFFFFFFFFFFFFFFFFFFFFFFFFFFFFFFFFFFFFFFFF AND DUP2 MSTORE PUSH1 0x20 ADD SWAP1 DUP2 MSTORE PUSH1 0x20 ADD PUSH0 KECCAK256 PUSH0 PUSH1 0x1 PUSH0 CALLER PUSH20 0xFFFFFFFFFFFFFFFFFFFFFFFFFFFFFFFFFFFFFFFF AND PUSH20 0xFFFFFFFFFFFFFFFFFFFFFFFFFFFFFFFFFFFFFFFF AND DUP2 MSTORE PUSH1 0x20 ADD SWAP1 DUP2 MSTORE PUSH1 0x20 ADD PUSH0 KECCAK256 SLOAD DUP2 MSTORE PUSH1 0x20 ADD SWAP1 DUP2 MSTORE PUSH1 0x20 ADD PUSH0 KECCAK256 PUSH0 DUP3 ADD MLOAD DUP2 PUSH0 ADD SWAP1 DUP2 PUSH2 0x1BC SWAP2 SWAP1 PUSH2 0x1247 JUMP JUMPDEST POP PUSH1 0x20 DUP3 ADD MLOAD DUP2 PUSH1 0x1 ADD SWAP1 DUP2 PUSH2 0x1D2 SWAP2 SWAP1 PUSH2 0x1247 JUMP JUMPDEST POP PUSH1 0x40 DUP3 ADD MLOAD DUP2 PUSH1 0x2 ADD SSTORE PUSH1 0x60 DUP3 ADD MLOAD DUP2 PUSH1 0x3 ADD PUSH0 PUSH2 0x100 EXP DUP2 SLOAD DUP2 PUSH1 0xFF MUL NOT AND SWAP1 DUP4 ISZERO ISZERO MUL OR SWAP1 SSTORE POP SWAP1 POP POP CALLER PUSH20 0xFFFFFFFFFFFFFFFFFFFFFFFFFFFFFFFFFFFFFFFF AND PUSH32 0x2D6B28A8AA465EA8EF959FFA368300FB581A01072A789F5DAFB1A34F97125B00 PUSH1 0x1 PUSH0 CALLER PUSH20 0xFFFFFFFFFFFFFFFFFFFFFFFFFFFFFFFFFFFFFFFF AND PUSH20 0xFFFFFFFFFFFFFFFFFFFFFFFFFFFFFFFFFFFFFFFF AND DUP2 MSTORE PUSH1 0x20 ADD SWAP1 DUP2 MSTORE PUSH1 0x20 ADD PUSH0 KECCAK256 SLOAD DUP6 PUSH1 0x40 MLOAD PUSH2 0x284 SWAP3 SWAP2 SWAP1 PUSH2 0x1316 JUMP JUMPDEST PUSH1 0x40 MLOAD DUP1 SWAP2 SUB SWAP1 LOG2 PUSH1 0x1 PUSH0 CALLER PUSH20 0xFFFFFFFFFFFFFFFFFFFFFFFFFFFFFFFFFFFFFFFF AND PUSH20 0xFFFFFFFFFFFFFFFFFFFFFFFFFFFFFFFFFFFFFFFF AND DUP2 MSTORE PUSH1 0x20 ADD SWAP1 DUP2 MSTORE PUSH1 0x20 ADD PUSH0 KECCAK256 PUSH0 DUP2 SLOAD DUP1 SWAP3 SWAP2 SWAP1 PUSH2 0x2D9 SWAP1 PUSH2 0x1371 JUMP JUMPDEST SWAP2 SWAP1 POP SSTORE POP POP POP POP JUMP JUMPDEST PUSH1 0x60 PUSH0 PUSH1 0x1 PUSH0 CALLER PUSH20 0xFFFFFFFFFFFFFFFFFFFFFFFFFFFFFFFFFFFFFFFF AND PUSH20 0xFFFFFFFFFFFFFFFFFFFFFFFFFFFFFFFFFFFFFFFF AND DUP2 MSTORE PUSH1 0x20 ADD SWAP1 DUP2 MSTORE PUSH1 0x20 ADD PUSH0 KECCAK256 SLOAD SWAP1 POP PUSH0 DUP2 PUSH8 0xFFFFFFFFFFFFFFFF DUP2 GT ISZERO PUSH2 0x341 JUMPI PUSH2 0x340 PUSH2 0xB3F JUMP JUMPDEST JUMPDEST PUSH1 0x40 MLOAD SWAP1 DUP1 DUP3 MSTORE DUP1 PUSH1 0x20 MUL PUSH1 0x20 ADD DUP3 ADD PUSH1 0x40 MSTORE DUP1 ISZERO PUSH2 0x37A JUMPI DUP2 PUSH1 0x20 ADD JUMPDEST PUSH2 0x367 PUSH2 0xA96 JUMP JUMPDEST DUP2 MSTORE PUSH1 0x20 ADD SWAP1 PUSH1 0x1 SWAP1 SUB SWAP1 DUP2 PUSH2 0x35F JUMPI SWAP1 POP JUMPDEST POP SWAP1 POP PUSH0 PUSH0 SWAP1 POP JUMPDEST DUP3 DUP2 LT ISZERO PUSH2 0x54E JUMPI PUSH0 PUSH0 CALLER PUSH20 0xFFFFFFFFFFFFFFFFFFFFFFFFFFFFFFFFFFFFFFFF AND PUSH20 0xFFFFFFFFFFFFFFFFFFFFFFFFFFFFFFFFFFFFFFFF AND DUP2 MSTORE PUSH1 0x20 ADD SWAP1 DUP2 MSTORE PUSH1 0x20 ADD PUSH0 KECCAK256 PUSH0 DUP3 DUP2 MSTORE PUSH1 0x20 ADD SWAP1 DUP2 MSTORE PUSH1 0x20 ADD PUSH0 KECCAK256 PUSH1 0x40 MLOAD DUP1 PUSH1 0x80 ADD PUSH1 0x40 MSTORE SWAP1 DUP2 PUSH0 DUP3 ADD DUP1 SLOAD PUSH2 0x3EF SWAP1 PUSH2 0x1077 JUMP JUMPDEST DUP1 PUSH1 0x1F ADD PUSH1 0x20 DUP1 SWAP2 DIV MUL PUSH1 0x20 ADD PUSH1 0x40 MLOAD SWAP1 DUP2 ADD PUSH1 0x40 MSTORE DUP1 SWAP3 SWAP2 SWAP1 DUP2 DUP2 MSTORE PUSH1 0x20 ADD DUP3 DUP1 SLOAD PUSH2 0x41B SWAP1 PUSH2 0x1077 JUMP JUMPDEST DUP1 ISZERO PUSH2 0x466 JUMPI DUP1 PUSH1 0x1F LT PUSH2 0x43D JUMPI PUSH2 0x100 DUP1 DUP4 SLOAD DIV MUL DUP4 MSTORE SWAP2 PUSH1 0x20 ADD SWAP2 PUSH2 0x466 JUMP JUMPDEST DUP3 ADD SWAP2 SWAP1 PUSH0 MSTORE PUSH1 0x20 PUSH0 KECCAK256 SWAP1 JUMPDEST DUP2 SLOAD DUP2 MSTORE SWAP1 PUSH1 0x1 ADD SWAP1 PUSH1 0x20 ADD DUP1 DUP4 GT PUSH2 0x449 JUMPI DUP3 SWAP1 SUB PUSH1 0x1F AND DUP3 ADD SWAP2 JUMPDEST POP POP POP POP POP DUP2 MSTORE PUSH1 0x20 ADD PUSH1 0x1 DUP3 ADD DUP1 SLOAD PUSH2 0x47F SWAP1 PUSH2 0x1077 JUMP JUMPDEST DUP1 PUSH1 0x1F ADD PUSH1 0x20 DUP1 SWAP2 DIV MUL PUSH1 0x20 ADD PUSH1 0x40 MLOAD SWAP1 DUP2 ADD PUSH1 0x40 MSTORE DUP1 SWAP3 SWAP2 SWAP1 DUP2 DUP2 MSTORE PUSH1 0x20 ADD DUP3 DUP1 SLOAD PUSH2 0x4AB SWAP1 PUSH2 0x1077 JUMP JUMPDEST DUP1 ISZERO PUSH2 0x4F6 JUMPI DUP1 PUSH1 0x1F LT PUSH2 0x4CD JUMPI PUSH2 0x100 DUP1 DUP4 SLOAD DIV MUL DUP4 MSTORE SWAP2 PUSH1 0x20 ADD SWAP2 PUSH2 0x4F6 JUMP JUMPDEST DUP3 ADD SWAP2 SWAP1 PUSH0 MSTORE PUSH1 0x20 PUSH0 KECCAK256 SWAP1 JUMPDEST DUP2 SLOAD DUP2 MSTORE SWAP1 PUSH1 0x1 ADD SWAP1 PUSH1 0x20 ADD DUP1 DUP4 GT PUSH2 0x4D9 JUMPI DUP3 SWAP1 SUB PUSH1 0x1F AND DUP3 ADD SWAP2 JUMPDEST POP POP POP POP POP DUP2 MSTORE PUSH1 0x20 ADD PUSH1 0x2 DUP3 ADD SLOAD DUP2 MSTORE PUSH1 0x20 ADD PUSH1 0x3 DUP3 ADD PUSH0 SWAP1 SLOAD SWAP1 PUSH2 0x100 EXP SWAP1 DIV PUSH1 0xFF AND ISZERO ISZERO ISZERO ISZERO DUP2 MSTORE POP POP DUP3 DUP3 DUP2 MLOAD DUP2 LT PUSH2 0x536 JUMPI PUSH2 0x535 PUSH2 0x13B8 JUMP JUMPDEST JUMPDEST PUSH1 0x20 MUL PUSH1 0x20 ADD ADD DUP2 SWAP1 MSTORE POP DUP1 DUP1 PUSH1 0x1 ADD SWAP2 POP POP PUSH2 0x382 JUMP JUMPDEST POP DUP1 SWAP3 POP POP POP SWAP1 JUMP JUMPDEST PUSH1 0x60 DUP1 PUSH0 PUSH0 PUSH0 CALLER PUSH20 0xFFFFFFFFFFFFFFFFFFFFFFFFFFFFFFFFFFFFFFFF AND PUSH20 0xFFFFFFFFFFFFFFFFFFFFFFFFFFFFFFFFFFFFFFFF AND DUP2 MSTORE PUSH1 0x20 ADD SWAP1 DUP2 MSTORE PUSH1 0x20 ADD PUSH0 KECCAK256 PUSH0 DUP6 DUP2 MSTORE PUSH1 0x20 ADD SWAP1 DUP2 MSTORE PUSH1 0x20 ADD PUSH0 KECCAK256 PUSH1 0x3 ADD PUSH0 SWAP1 SLOAD SWAP1 PUSH2 0x100 EXP SWAP1 DIV PUSH1 0xFF AND PUSH2 0x5F5 JUMPI PUSH1 0x40 MLOAD PUSH32 0x8C379A000000000000000000000000000000000000000000000000000000000 DUP2 MSTORE PUSH1 0x4 ADD PUSH2 0x5EC SWAP1 PUSH2 0x142F JUMP JUMPDEST PUSH1 0x40 MLOAD DUP1 SWAP2 SUB SWAP1 REVERT JUMPDEST PUSH0 PUSH0 PUSH0 CALLER PUSH20 0xFFFFFFFFFFFFFFFFFFFFFFFFFFFFFFFFFFFFFFFF AND PUSH20 0xFFFFFFFFFFFFFFFFFFFFFFFFFFFFFFFFFFFFFFFF AND DUP2 MSTORE PUSH1 0x20 ADD SWAP1 DUP2 MSTORE PUSH1 0x20 ADD PUSH0 KECCAK256 PUSH0 DUP7 DUP2 MSTORE PUSH1 0x20 ADD SWAP1 DUP2 MSTORE PUSH1 0x20 ADD PUSH0 KECCAK256 SWAP1 POP DUP1 PUSH0 ADD DUP2 PUSH1 0x1 ADD DUP3 PUSH1 0x2 ADD SLOAD DUP3 DUP1 SLOAD PUSH2 0x65B SWAP1 PUSH2 0x1077 JUMP JUMPDEST DUP1 PUSH1 0x1F ADD PUSH1 0x20 DUP1 SWAP2 DIV MUL PUSH1 0x20 ADD PUSH1 0x40 MLOAD SWAP1 DUP2 ADD PUSH1 0x40 MSTORE DUP1 SWAP3 SWAP2 SWAP1 DUP2 DUP2 MSTORE PUSH1 0x20 ADD DUP3 DUP1 SLOAD PUSH2 0x687 SWAP1 PUSH2 0x1077 JUMP JUMPDEST DUP1 ISZERO PUSH2 0x6D2 JUMPI DUP1 PUSH1 0x1F LT PUSH2 0x6A9 JUMPI PUSH2 0x100 DUP1 DUP4 SLOAD DIV MUL DUP4 MSTORE SWAP2 PUSH1 0x20 ADD SWAP2 PUSH2 0x6D2 JUMP JUMPDEST DUP3 ADD SWAP2 SWAP1 PUSH0 MSTORE PUSH1 0x20 PUSH0 KECCAK256 SWAP1 JUMPDEST DUP2 SLOAD DUP2 MSTORE SWAP1 PUSH1 0x1 ADD SWAP1 PUSH1 0x20 ADD DUP1 DUP4 GT PUSH2 0x6B5 JUMPI DUP3 SWAP1 SUB PUSH1 0x1F AND DUP3 ADD SWAP2 JUMPDEST POP POP POP POP POP SWAP3 POP DUP2 DUP1 SLOAD PUSH2 0x6E5 SWAP1 PUSH2 0x1077 JUMP JUMPDEST DUP1 PUSH1 0x1F ADD PUSH1 0x20 DUP1 SWAP2 DIV MUL PUSH1 0x20 ADD PUSH1 0x40 MLOAD SWAP1 DUP2 ADD PUSH1 0x40 MSTORE DUP1 SWAP3 SWAP2 SWAP1 DUP2 DUP2 MSTORE PUSH1 0x20 ADD DUP3 DUP1 SLOAD PUSH2 0x711 SWAP1 PUSH2 0x1077 JUMP JUMPDEST DUP1 ISZERO PUSH2 0x75C JUMPI DUP1 PUSH1 0x1F LT PUSH2 0x733 JUMPI PUSH2 0x100 DUP1 DUP4 SLOAD DIV MUL DUP4 MSTORE SWAP2 PUSH1 0x20 ADD SWAP2 PUSH2 0x75C JUMP JUMPDEST DUP3 ADD SWAP2 SWAP1 PUSH0 MSTORE PUSH1 0x20 PUSH0 KECCAK256 SWAP1 JUMPDEST DUP2 SLOAD DUP2 MSTORE SWAP1 PUSH1 0x1 ADD SWAP1 PUSH1 0x20 ADD DUP1 DUP4 GT PUSH2 0x73F JUMPI DUP3 SWAP1 SUB PUSH1 0x1F AND DUP3 ADD SWAP2 JUMPDEST POP POP POP POP POP SWAP2 POP SWAP4 POP SWAP4 POP SWAP4 POP POP SWAP2 SWAP4 SWAP1 SWAP3 POP JUMP JUMPDEST PUSH0 PUSH0 CALLER PUSH20 0xFFFFFFFFFFFFFFFFFFFFFFFFFFFFFFFFFFFFFFFF AND PUSH20 0xFFFFFFFFFFFFFFFFFFFFFFFFFFFFFFFFFFFFFFFF AND DUP2 MSTORE PUSH1 0x20 ADD SWAP1 DUP2 MSTORE PUSH1 0x20 ADD PUSH0 KECCAK256 PUSH0 DUP6 DUP2 MSTORE PUSH1 0x20 ADD SWAP1 DUP2 MSTORE PUSH1 0x20 ADD PUSH0 KECCAK256 PUSH1 0x3 ADD PUSH0 SWAP1 SLOAD SWAP1 PUSH2 0x100 EXP SWAP1 DIV PUSH1 0xFF AND PUSH2 0x80B JUMPI PUSH1 0x40 MLOAD PUSH32 0x8C379A000000000000000000000000000000000000000000000000000000000 DUP2 MSTORE PUSH1 0x4 ADD PUSH2 0x802 SWAP1 PUSH2 0x142F JUMP JUMPDEST PUSH1 0x40 MLOAD DUP1 SWAP2 SUB SWAP1 REVERT JUMPDEST PUSH1 0x40 MLOAD DUP1 PUSH1 0x80 ADD PUSH1 0x40 MSTORE DUP1 DUP5 DUP2 MSTORE PUSH1 0x20 ADD DUP4 DUP2 MSTORE PUSH1 0x20 ADD DUP3 DUP2 MSTORE PUSH1 0x20 ADD PUSH1 0x1 ISZERO ISZERO DUP2 MSTORE POP PUSH0 PUSH0 CALLER PUSH20 0xFFFFFFFFFFFFFFFFFFFFFFFFFFFFFFFFFFFFFFFF AND PUSH20 0xFFFFFFFFFFFFFFFFFFFFFFFFFFFFFFFFFFFFFFFF AND DUP2 MSTORE PUSH1 0x20 ADD SWAP1 DUP2 MSTORE PUSH1 0x20 ADD PUSH0 KECCAK256 PUSH0 DUP7 DUP2 MSTORE PUSH1 0x20 ADD SWAP1 DUP2 MSTORE PUSH1 0x20 ADD PUSH0 KECCAK256 PUSH0 DUP3 ADD MLOAD DUP2 PUSH0 ADD SWAP1 DUP2 PUSH2 0x88D SWAP2 SWAP1 PUSH2 0x1247 JUMP JUMPDEST POP PUSH1 0x20 DUP3 ADD MLOAD DUP2 PUSH1 0x1 ADD SWAP1 DUP2 PUSH2 0x8A3 SWAP2 SWAP1 PUSH2 0x1247 JUMP JUMPDEST POP PUSH1 0x40 DUP3 ADD MLOAD DUP2 PUSH1 0x2 ADD SSTORE PUSH1 0x60 DUP3 ADD MLOAD DUP2 PUSH1 0x3 ADD PUSH0 PUSH2 0x100 EXP DUP2 SLOAD DUP2 PUSH1 0xFF MUL NOT AND SWAP1 DUP4 ISZERO ISZERO MUL OR SWAP1 SSTORE POP SWAP1 POP POP CALLER PUSH20 0xFFFFFFFFFFFFFFFFFFFFFFFFFFFFFFFFFFFFFFFF AND PUSH32 0x580F21BA5AC386015E66E7CAFBCA44F69F33AC115522371F34FF2CEE5A0EFD22 DUP6 DUP6 PUSH1 0x40 MLOAD PUSH2 0x918 SWAP3 SWAP2 SWAP1 PUSH2 0x1316 JUMP JUMPDEST PUSH1 0x40 MLOAD DUP1 SWAP2 SUB SWAP1 LOG2 POP POP POP POP JUMP JUMPDEST PUSH0 PUSH0 CALLER PUSH20 0xFFFFFFFFFFFFFFFFFFFFFFFFFFFFFFFFFFFFFFFF AND PUSH20 0xFFFFFFFFFFFFFFFFFFFFFFFFFFFFFFFFFFFFFFFF AND DUP2 MSTORE PUSH1 0x20 ADD SWAP1 DUP2 MSTORE PUSH1 0x20 ADD PUSH0 KECCAK256 PUSH0 DUP3 DUP2 MSTORE PUSH1 0x20 ADD SWAP1 DUP2 MSTORE PUSH1 0x20 ADD PUSH0 KECCAK256 PUSH1 0x3 ADD PUSH0 SWAP1 SLOAD SWAP1 PUSH2 0x100 EXP SWAP1 DIV PUSH1 0xFF AND PUSH2 0x9C0 JUMPI PUSH1 0x40 MLOAD PUSH32 0x8C379A000000000000000000000000000000000000000000000000000000000 DUP2 MSTORE PUSH1 0x4 ADD PUSH2 0x9B7 SWAP1 PUSH2 0x142F JUMP JUMPDEST PUSH1 0x40 MLOAD DUP1 SWAP2 SUB SWAP1 REVERT JUMPDEST PUSH0 PUSH0 CALLER PUSH20 0xFFFFFFFFFFFFFFFFFFFFFFFFFFFFFFFFFFFFFFFF AND PUSH20 0xFFFFFFFFFFFFFFFFFFFFFFFFFFFFFFFFFFFFFFFF AND DUP2 MSTORE PUSH1 0x20 ADD SWAP1 DUP2 MSTORE PUSH1 0x20 ADD PUSH0 KECCAK256 PUSH0 DUP3 DUP2 MSTORE PUSH1 0x20 ADD SWAP1 DUP2 MSTORE PUSH1 0x20 ADD PUSH0 KECCAK256 PUSH0 PUSH0 DUP3 ADD PUSH0 PUSH2 0xA1A SWAP2 SWAP1 PUSH2 0xABE JUMP JUMPDEST PUSH1 0x1 DUP3 ADD PUSH0 PUSH2 0xA29 SWAP2 SWAP1 PUSH2 0xABE JUMP JUMPDEST PUSH1 0x2 DUP3 ADD PUSH0 SWAP1 SSTORE PUSH1 0x3 DUP3 ADD PUSH0 PUSH2 0x100 EXP DUP2 SLOAD SWAP1 PUSH1 0xFF MUL NOT AND SWAP1 SSTORE POP POP CALLER PUSH20 0xFFFFFFFFFFFFFFFFFFFFFFFFFFFFFFFFFFFFFFFF AND PUSH32 0x485A32AB922F212C1C1EF5F52F142CA88FDBA8CF46D8DFCDA744922C234FB448 DUP3 PUSH1 0x40 MLOAD PUSH2 0xA8B SWAP2 SWAP1 PUSH2 0x144D JUMP JUMPDEST PUSH1 0x40 MLOAD DUP1 SWAP2 SUB SWAP1 LOG2 POP JUMP JUMPDEST PUSH1 0x40 MLOAD DUP1 PUSH1 0x80 ADD PUSH1 0x40 MSTORE DUP1 PUSH1 0x60 DUP2 MSTORE PUSH1 0x20 ADD PUSH1 0x60 DUP2 MSTORE PUSH1 0x20 ADD PUSH0 DUP2 MSTORE PUSH1 0x20 ADD PUSH0 ISZERO ISZERO DUP2 MSTORE POP SWAP1 JUMP JUMPDEST POP DUP1 SLOAD PUSH2 0xACA SWAP1 PUSH2 0x1077 JUMP JUMPDEST PUSH0 DUP3 SSTORE DUP1 PUSH1 0x1F LT PUSH2 0xADB JUMPI POP PUSH2 0xAF8 JUMP JUMPDEST PUSH1 0x1F ADD PUSH1 0x20 SWAP1 DIV SWAP1 PUSH0 MSTORE PUSH1 0x20 PUSH0 KECCAK256 SWAP1 DUP2 ADD SWAP1 PUSH2 0xAF7 SWAP2 SWAP1 PUSH2 0xAFB JUMP JUMPDEST JUMPDEST POP JUMP JUMPDEST JUMPDEST DUP1 DUP3 GT ISZERO PUSH2 0xB12 JUMPI PUSH0 DUP2 PUSH0 SWAP1 SSTORE POP PUSH1 0x1 ADD PUSH2 0xAFC JUMP JUMPDEST POP SWAP1 JUMP JUMPDEST PUSH0 PUSH1 0x40 MLOAD SWAP1 POP SWAP1 JUMP JUMPDEST PUSH0 PUSH0 REVERT JUMPDEST PUSH0 PUSH0 REVERT JUMPDEST PUSH0 PUSH0 REVERT JUMPDEST PUSH0 PUSH0 REVERT JUMPDEST PUSH0 PUSH1 0x1F NOT PUSH1 0x1F DUP4 ADD AND SWAP1 POP SWAP2 SWAP1 POP JUMP JUMPDEST PUSH32 0x4E487B7100000000000000000000000000000000000000000000000000000000 PUSH0 MSTORE PUSH1 0x41 PUSH1 0x4 MSTORE PUSH1 0x24 PUSH0 REVERT JUMPDEST PUSH2 0xB75 DUP3 PUSH2 0xB2F JUMP JUMPDEST DUP2 ADD DUP2 DUP2 LT PUSH8 0xFFFFFFFFFFFFFFFF DUP3 GT OR ISZERO PUSH2 0xB94 JUMPI PUSH2 0xB93 PUSH2 0xB3F JUMP JUMPDEST JUMPDEST DUP1 PUSH1 0x40 MSTORE POP POP POP JUMP JUMPDEST PUSH0 PUSH2 0xBA6 PUSH2 0xB16 JUMP JUMPDEST SWAP1 POP PUSH2 0xBB2 DUP3 DUP3 PUSH2 0xB6C JUMP JUMPDEST SWAP2 SWAP1 POP JUMP JUMPDEST PUSH0 PUSH8 0xFFFFFFFFFFFFFFFF DUP3 GT ISZERO PUSH2 0xBD1 JUMPI PUSH2 0xBD0 PUSH2 0xB3F JUMP JUMPDEST JUMPDEST PUSH2 0xBDA DUP3 PUSH2 0xB2F JUMP JUMPDEST SWAP1 POP PUSH1 0x20 DUP2 ADD SWAP1 POP SWAP2 SWAP1 POP JUMP JUMPDEST DUP3 DUP2 DUP4 CALLDATACOPY PUSH0 DUP4 DUP4 ADD MSTORE POP POP POP JUMP JUMPDEST PUSH0 PUSH2 0xC07 PUSH2 0xC02 DUP5 PUSH2 0xBB7 JUMP JUMPDEST PUSH2 0xB9D JUMP JUMPDEST SWAP1 POP DUP3 DUP2 MSTORE PUSH1 0x20 DUP2 ADD DUP5 DUP5 DUP5 ADD GT ISZERO PUSH2 0xC23 JUMPI PUSH2 0xC22 PUSH2 0xB2B JUMP JUMPDEST JUMPDEST PUSH2 0xC2E DUP5 DUP3 DUP6 PUSH2 0xBE7 JUMP JUMPDEST POP SWAP4 SWAP3 POP POP POP JUMP JUMPDEST PUSH0 DUP3 PUSH1 0x1F DUP4 ADD SLT PUSH2 0xC4A JUMPI PUSH2 0xC49 PUSH2 0xB27 JUMP JUMPDEST JUMPDEST DUP2 CALLDATALOAD PUSH2 0xC5A DUP5 DUP3 PUSH1 0x20 DUP7 ADD PUSH2 0xBF5 JUMP JUMPDEST SWAP2 POP POP SWAP3 SWAP2 POP POP JUMP JUMPDEST PUSH0 DUP2 SWAP1 POP SWAP2 SWAP1 POP JUMP JUMPDEST PUSH2 0xC75 DUP2 PUSH2 0xC63 JUMP JUMPDEST DUP2 EQ PUSH2 0xC7F JUMPI PUSH0 PUSH0 REVERT JUMPDEST POP JUMP JUMPDEST PUSH0 DUP2 CALLDATALOAD SWAP1 POP PUSH2 0xC90 DUP2 PUSH2 0xC6C JUMP JUMPDEST SWAP3 SWAP2 POP POP JUMP JUMPDEST PUSH0 PUSH0 PUSH0 PUSH1 0x60 DUP5 DUP7 SUB SLT ISZERO PUSH2 0xCAD JUMPI PUSH2 0xCAC PUSH2 0xB1F JUMP JUMPDEST JUMPDEST PUSH0 DUP5 ADD CALLDATALOAD PUSH8 0xFFFFFFFFFFFFFFFF DUP2 GT ISZERO PUSH2 0xCCA JUMPI PUSH2 0xCC9 PUSH2 0xB23 JUMP JUMPDEST JUMPDEST PUSH2 0xCD6 DUP7 DUP3 DUP8 ADD PUSH2 0xC36 JUMP JUMPDEST SWAP4 POP POP PUSH1 0x20 DUP5 ADD CALLDATALOAD PUSH8 0xFFFFFFFFFFFFFFFF DUP2 GT ISZERO PUSH2 0xCF7 JUMPI PUSH2 0xCF6 PUSH2 0xB23 JUMP JUMPDEST JUMPDEST PUSH2 0xD03 DUP7 DUP3 DUP8 ADD PUSH2 0xC36 JUMP JUMPDEST SWAP3 POP POP PUSH1 0x40 PUSH2 0xD14 DUP7 DUP3 DUP8 ADD PUSH2 0xC82 JUMP JUMPDEST SWAP2 POP POP SWAP3 POP SWAP3 POP SWAP3 JUMP JUMPDEST PUSH0 DUP2 MLOAD SWAP1 POP SWAP2 SWAP1 POP JUMP JUMPDEST PUSH0 DUP3 DUP3 MSTORE PUSH1 0x20 DUP3 ADD SWAP1 POP SWAP3 SWAP2 POP POP JUMP JUMPDEST PUSH0 DUP2 SWAP1 POP PUSH1 0x20 DUP3 ADD SWAP1 POP SWAP2 SWAP1 POP JUMP JUMPDEST PUSH0 DUP2 MLOAD SWAP1 POP SWAP2 SWAP1 POP JUMP JUMPDEST PUSH0 DUP3 DUP3 MSTORE PUSH1 0x20 DUP3 ADD SWAP1 POP SWAP3 SWAP2 POP POP JUMP JUMPDEST DUP3 DUP2 DUP4 MCOPY PUSH0 DUP4 DUP4 ADD MSTORE POP POP POP JUMP JUMPDEST PUSH0 PUSH2 0xD79 DUP3 PUSH2 0xD47 JUMP JUMPDEST PUSH2 0xD83 DUP2 DUP6 PUSH2 0xD51 JUMP JUMPDEST SWAP4 POP PUSH2 0xD93 DUP2 DUP6 PUSH1 0x20 DUP7 ADD PUSH2 0xD61 JUMP JUMPDEST PUSH2 0xD9C DUP2 PUSH2 0xB2F JUMP JUMPDEST DUP5 ADD SWAP2 POP POP SWAP3 SWAP2 POP POP JUMP JUMPDEST PUSH2 0xDB0 DUP2 PUSH2 0xC63 JUMP JUMPDEST DUP3 MSTORE POP POP JUMP JUMPDEST PUSH0 DUP2 ISZERO ISZERO SWAP1 POP SWAP2 SWAP1 POP JUMP JUMPDEST PUSH2 0xDCA DUP2 PUSH2 0xDB6 JUMP JUMPDEST DUP3 MSTORE POP POP JUMP JUMPDEST PUSH0 PUSH1 0x80 DUP4 ADD PUSH0 DUP4 ADD MLOAD DUP5 DUP3 SUB PUSH0 DUP7 ADD MSTORE PUSH2 0xDEA DUP3 DUP3 PUSH2 0xD6F JUMP JUMPDEST SWAP2 POP POP PUSH1 0x20 DUP4 ADD MLOAD DUP5 DUP3 SUB PUSH1 0x20 DUP7 ADD MSTORE PUSH2 0xE04 DUP3 DUP3 PUSH2 0xD6F JUMP JUMPDEST SWAP2 POP POP PUSH1 0x40 DUP4 ADD MLOAD PUSH2 0xE19 PUSH1 0x40 DUP7 ADD DUP3 PUSH2 0xDA7 JUMP JUMPDEST POP PUSH1 0x60 DUP4 ADD MLOAD PUSH2 0xE2C PUSH1 0x60 DUP7 ADD DUP3 PUSH2 0xDC1 JUMP JUMPDEST POP DUP1 SWAP2 POP POP SWAP3 SWAP2 POP POP JUMP JUMPDEST PUSH0 PUSH2 0xE42 DUP4 DUP4 PUSH2 0xDD0 JUMP JUMPDEST SWAP1 POP SWAP3 SWAP2 POP POP JUMP JUMPDEST PUSH0 PUSH1 0x20 DUP3 ADD SWAP1 POP SWAP2 SWAP1 POP JUMP JUMPDEST PUSH0 PUSH2 0xE60 DUP3 PUSH2 0xD1E JUMP JUMPDEST PUSH2 0xE6A DUP2 DUP6 PUSH2 0xD28 JUMP JUMPDEST SWAP4 POP DUP4 PUSH1 0x20 DUP3 MUL DUP6 ADD PUSH2 0xE7C DUP6 PUSH2 0xD38 JUMP JUMPDEST DUP1 PUSH0 JUMPDEST DUP6 DUP2 LT ISZERO PUSH2 0xEB7 JUMPI DUP5 DUP5 SUB DUP10 MSTORE DUP2 MLOAD PUSH2 0xE98 DUP6 DUP3 PUSH2 0xE37 JUMP JUMPDEST SWAP5 POP PUSH2 0xEA3 DUP4 PUSH2 0xE4A JUMP JUMPDEST SWAP3 POP PUSH1 0x20 DUP11 ADD SWAP10 POP POP PUSH1 0x1 DUP2 ADD SWAP1 POP PUSH2 0xE7F JUMP JUMPDEST POP DUP3 SWAP8 POP DUP8 SWAP6 POP POP POP POP POP POP SWAP3 SWAP2 POP POP JUMP JUMPDEST PUSH0 PUSH1 0x20 DUP3 ADD SWAP1 POP DUP2 DUP2 SUB PUSH0 DUP4 ADD MSTORE PUSH2 0xEE1 DUP2 DUP5 PUSH2 0xE56 JUMP JUMPDEST SWAP1 POP SWAP3 SWAP2 POP POP JUMP JUMPDEST PUSH0 PUSH1 0x20 DUP3 DUP5 SUB SLT ISZERO PUSH2 0xEFE JUMPI PUSH2 0xEFD PUSH2 0xB1F JUMP JUMPDEST JUMPDEST PUSH0 PUSH2 0xF0B DUP5 DUP3 DUP6 ADD PUSH2 0xC82 JUMP JUMPDEST SWAP2 POP POP SWAP3 SWAP2 POP POP JUMP JUMPDEST PUSH0 DUP3 DUP3 MSTORE PUSH1 0x20 DUP3 ADD SWAP1 POP SWAP3 SWAP2 POP POP JUMP JUMPDEST PUSH0 PUSH2 0xF2E DUP3 PUSH2 0xD47 JUMP JUMPDEST PUSH2 0xF38 DUP2 DUP6 PUSH2 0xF14 JUMP JUMPDEST SWAP4 POP PUSH2 0xF48 DUP2 DUP6 PUSH1 0x20 DUP7 ADD PUSH2 0xD61 JUMP JUMPDEST PUSH2 0xF51 DUP2 PUSH2 0xB2F JUMP JUMPDEST DUP5 ADD SWAP2 POP POP SWAP3 SWAP2 POP POP JUMP JUMPDEST PUSH2 0xF65 DUP2 PUSH2 0xC63 JUMP JUMPDEST DUP3 MSTORE POP POP JUMP JUMPDEST PUSH0 PUSH1 0x60 DUP3 ADD SWAP1 POP DUP2 DUP2 SUB PUSH0 DUP4 ADD MSTORE PUSH2 0xF83 DUP2 DUP7 PUSH2 0xF24 JUMP JUMPDEST SWAP1 POP DUP2 DUP2 SUB PUSH1 0x20 DUP4 ADD MSTORE PUSH2 0xF97 DUP2 DUP6 PUSH2 0xF24 JUMP JUMPDEST SWAP1 POP PUSH2 0xFA6 PUSH1 0x40 DUP4 ADD DUP5 PUSH2 0xF5C JUMP JUMPDEST SWAP5 SWAP4 POP POP POP POP JUMP JUMPDEST PUSH0 PUSH0 PUSH0 PUSH0 PUSH1 0x80 DUP6 DUP8 SUB SLT ISZERO PUSH2 0xFC6 JUMPI PUSH2 0xFC5 PUSH2 0xB1F JUMP JUMPDEST JUMPDEST PUSH0 PUSH2 0xFD3 DUP8 DUP3 DUP9 ADD PUSH2 0xC82 JUMP JUMPDEST SWAP5 POP POP PUSH1 0x20 DUP6 ADD CALLDATALOAD PUSH8 0xFFFFFFFFFFFFFFFF DUP2 GT ISZERO PUSH2 0xFF4 JUMPI PUSH2 0xFF3 PUSH2 0xB23 JUMP JUMPDEST JUMPDEST PUSH2 0x1000 DUP8 DUP3 DUP9 ADD PUSH2 0xC36 JUMP JUMPDEST SWAP4 POP POP PUSH1 0x40 DUP6 ADD CALLDATALOAD PUSH8 0xFFFFFFFFFFFFFFFF DUP2 GT ISZERO PUSH2 0x1021 JUMPI PUSH2 0x1020 PUSH2 0xB23 JUMP JUMPDEST JUMPDEST PUSH2 0x102D DUP8 DUP3 DUP9 ADD PUSH2 0xC36 JUMP JUMPDEST SWAP3 POP POP PUSH1 0x60 PUSH2 0x103E DUP8 DUP3 DUP9 ADD PUSH2 0xC82 JUMP JUMPDEST SWAP2 POP POP SWAP3 SWAP6 SWAP2 SWAP5 POP SWAP3 POP JUMP JUMPDEST PUSH32 0x4E487B7100000000000000000000000000000000000000000000000000000000 PUSH0 MSTORE PUSH1 0x22 PUSH1 0x4 MSTORE PUSH1 0x24 PUSH0 REVERT JUMPDEST PUSH0 PUSH1 0x2 DUP3 DIV SWAP1 POP PUSH1 0x1 DUP3 AND DUP1 PUSH2 0x108E JUMPI PUSH1 0x7F DUP3 AND SWAP2 POP JUMPDEST PUSH1 0x20 DUP3 LT DUP2 SUB PUSH2 0x10A1 JUMPI PUSH2 0x10A0 PUSH2 0x104A JUMP JUMPDEST JUMPDEST POP SWAP2 SWAP1 POP JUMP JUMPDEST PUSH0 DUP2 SWAP1 POP DUP2 PUSH0 MSTORE PUSH1 0x20 PUSH0 KECCAK256 SWAP1 POP SWAP2 SWAP1 POP JUMP JUMPDEST PUSH0 PUSH1 0x20 PUSH1 0x1F DUP4 ADD DIV SWAP1 POP SWAP2 SWAP1 POP JUMP JUMPDEST PUSH0 DUP3 DUP3 SHL SWAP1 POP SWAP3 SWAP2 POP POP JUMP JUMPDEST PUSH0 PUSH1 0x8 DUP4 MUL PUSH2 0x1103 PUSH32 0xFFFFFFFFFFFFFFFFFFFFFFFFFFFFFFFFFFFFFFFFFFFFFFFFFFFFFFFFFFFFFFFF DUP3 PUSH2 0x10C8 JUMP JUMPDEST PUSH2 0x110D DUP7 DUP4 PUSH2 0x10C8 JUMP JUMPDEST SWAP6 POP DUP1 NOT DUP5 AND SWAP4 POP DUP1 DUP7 AND DUP5 OR SWAP3 POP POP POP SWAP4 SWAP3 POP POP POP JUMP JUMPDEST PUSH0 DUP2 SWAP1 POP SWAP2 SWAP1 POP JUMP JUMPDEST PUSH0 PUSH2 0x1148 PUSH2 0x1143 PUSH2 0x113E DUP5 PUSH2 0xC63 JUMP JUMPDEST PUSH2 0x1125 JUMP JUMPDEST PUSH2 0xC63 JUMP JUMPDEST SWAP1 POP SWAP2 SWAP1 POP JUMP JUMPDEST PUSH0 DUP2 SWAP1 POP SWAP2 SWAP1 POP JUMP JUMPDEST PUSH2 0x1161 DUP4 PUSH2 0x112E JUMP JUMPDEST PUSH2 0x1175 PUSH2 0x116D DUP3 PUSH2 0x114F JUMP JUMPDEST DUP5 DUP5 SLOAD PUSH2 0x10D4 JUMP JUMPDEST DUP3 SSTORE POP POP POP POP JUMP JUMPDEST PUSH0 PUSH0 SWAP1 POP SWAP1 JUMP JUMPDEST PUSH2 0x118C PUSH2 0x117D JUMP JUMPDEST PUSH2 0x1197 DUP2 DUP5 DUP5 PUSH2 0x1158 JUMP JUMPDEST POP POP POP JUMP JUMPDEST JUMPDEST DUP2 DUP2 LT ISZERO PUSH2 0x11BA JUMPI PUSH2 0x11AF PUSH0 DUP3 PUSH2 0x1184 JUMP JUMPDEST PUSH1 0x1 DUP2 ADD SWAP1 POP PUSH2 0x119D JUMP JUMPDEST POP POP JUMP JUMPDEST PUSH1 0x1F DUP3 GT ISZERO PUSH2 0x11FF JUMPI PUSH2 0x11D0 DUP2 PUSH2 0x10A7 JUMP JUMPDEST PUSH2 0x11D9 DUP5 PUSH2 0x10B9 JUMP JUMPDEST DUP2 ADD PUSH1 0x20 DUP6 LT ISZERO PUSH2 0x11E8 JUMPI DUP2 SWAP1 POP JUMPDEST PUSH2 0x11FC PUSH2 0x11F4 DUP6 PUSH2 0x10B9 JUMP JUMPDEST DUP4 ADD DUP3 PUSH2 0x119C JUMP JUMPDEST POP POP JUMPDEST POP POP POP JUMP JUMPDEST PUSH0 DUP3 DUP3 SHR SWAP1 POP SWAP3 SWAP2 POP POP JUMP JUMPDEST PUSH0 PUSH2 0x121F PUSH0 NOT DUP5 PUSH1 0x8 MUL PUSH2 0x1204 JUMP JUMPDEST NOT DUP1 DUP4 AND SWAP2 POP POP SWAP3 SWAP2 POP POP JUMP JUMPDEST PUSH0 PUSH2 0x1237 DUP4 DUP4 PUSH2 0x1210 JUMP JUMPDEST SWAP2 POP DUP3 PUSH1 0x2 MUL DUP3 OR SWAP1 POP SWAP3 SWAP2 POP POP JUMP JUMPDEST PUSH2 0x1250 DUP3 PUSH2 0xD47 JUMP JUMPDEST PUSH8 0xFFFFFFFFFFFFFFFF DUP2 GT ISZERO PUSH2 0x1269 JUMPI PUSH2 0x1268 PUSH2 0xB3F JUMP JUMPDEST JUMPDEST PUSH2 0x1273 DUP3 SLOAD PUSH2 0x1077 JUMP JUMPDEST PUSH2 0x127E DUP3 DUP3 DUP6 PUSH2 0x11BE JUMP JUMPDEST PUSH0 PUSH1 0x20 SWAP1 POP PUSH1 0x1F DUP4 GT PUSH1 0x1 DUP2 EQ PUSH2 0x12AF JUMPI PUSH0 DUP5 ISZERO PUSH2 0x129D JUMPI DUP3 DUP8 ADD MLOAD SWAP1 POP JUMPDEST PUSH2 0x12A7 DUP6 DUP3 PUSH2 0x122C JUMP JUMPDEST DUP7 SSTORE POP PUSH2 0x130E JUMP JUMPDEST PUSH1 0x1F NOT DUP5 AND PUSH2 0x12BD DUP7 PUSH2 0x10A7 JUMP JUMPDEST PUSH0 JUMPDEST DUP3 DUP2 LT ISZERO PUSH2 0x12E4 JUMPI DUP5 DUP10 ADD MLOAD DUP3 SSTORE PUSH1 0x1 DUP3 ADD SWAP2 POP PUSH1 0x20 DUP6 ADD SWAP5 POP PUSH1 0x20 DUP2 ADD SWAP1 POP PUSH2 0x12BF JUMP JUMPDEST DUP7 DUP4 LT ISZERO PUSH2 0x1301 JUMPI DUP5 DUP10 ADD MLOAD PUSH2 0x12FD PUSH1 0x1F DUP10 AND DUP3 PUSH2 0x1210 JUMP JUMPDEST DUP4 SSTORE POP JUMPDEST PUSH1 0x1 PUSH1 0x2 DUP9 MUL ADD DUP9 SSTORE POP POP POP JUMPDEST POP POP POP POP POP POP JUMP JUMPDEST PUSH0 PUSH1 0x40 DUP3 ADD SWAP1 POP PUSH2 0x1329 PUSH0 DUP4 ADD DUP6 PUSH2 0xF5C JUMP JUMPDEST DUP2 DUP2 SUB PUSH1 0x20 DUP4 ADD MSTORE PUSH2 0x133B DUP2 DUP5 PUSH2 0xF24 JUMP JUMPDEST SWAP1 POP SWAP4 SWAP3 POP POP POP JUMP JUMPDEST PUSH32 0x4E487B7100000000000000000000000000000000000000000000000000000000 PUSH0 MSTORE PUSH1 0x11 PUSH1 0x4 MSTORE PUSH1 0x24 PUSH0 REVERT JUMPDEST PUSH0 PUSH2 0x137B DUP3 PUSH2 0xC63 JUMP JUMPDEST SWAP2 POP PUSH32 0xFFFFFFFFFFFFFFFFFFFFFFFFFFFFFFFFFFFFFFFFFFFFFFFFFFFFFFFFFFFFFFFF DUP3 SUB PUSH2 0x13AD JUMPI PUSH2 0x13AC PUSH2 0x1344 JUMP JUMPDEST JUMPDEST PUSH1 0x1 DUP3 ADD SWAP1 POP SWAP2 SWAP1 POP JUMP JUMPDEST PUSH32 0x4E487B7100000000000000000000000000000000000000000000000000000000 PUSH0 MSTORE PUSH1 0x32 PUSH1 0x4 MSTORE PUSH1 0x24 PUSH0 REVERT JUMPDEST PUSH32 0x4576656E746F206E6F2065786973746500000000000000000000000000000000 PUSH0 DUP3 ADD MSTORE POP JUMP JUMPDEST PUSH0 PUSH2 0x1419 PUSH1 0x10 DUP4 PUSH2 0xF14 JUMP JUMPDEST SWAP2 POP PUSH2 0x1424 DUP3 PUSH2 0x13E5 JUMP JUMPDEST PUSH1 0x20 DUP3 ADD SWAP1 POP SWAP2 SWAP1 POP JUMP JUMPDEST PUSH0 PUSH1 0x20 DUP3 ADD SWAP1 POP DUP2 DUP2 SUB PUSH0 DUP4 ADD MSTORE PUSH2 0x1446 DUP2 PUSH2 0x140D JUMP JUMPDEST SWAP1 POP SWAP2 SWAP1 POP JUMP JUMPDEST PUSH0 PUSH1 0x20 DUP3 ADD SWAP1 POP PUSH2 0x1460 PUSH0 DUP4 ADD DUP5 PUSH2 0xF5C JUMP JUMPDEST SWAP3 SWAP2 POP POP JUMP INVALID LOG2 PUSH5 0x6970667358 0x22 SLT KECCAK256 0xBA PUSH11 0xFE500F20889122AB84463F 0x2C PUSH27 0xCC037F28659BA21EF717F61FA58CDF98A364736F6C634300081E00 CALLER "
				},
				"gasEstimates": {
					"creation": {
						"codeDepositCost": "1055200",
						"executionCost": "1092",
						"totalCost": "1056292"
					},
					"external": {
						"createEvent(string,string,uint256)": "infinite",
						"deleteEvent(uint256)": "infinite",
						"getEvent(uint256)": "infinite",
						"listEvents()": "infinite",
						"updateEvent(uint256,string,string,uint256)": "infinite"
					}
				},
				"methodIdentifiers": {
					"createEvent(string,string,uint256)": "5555fe17",
					"deleteEvent(uint256)": "f8749a58",
					"getEvent(uint256)": "6d1884e0",
					"listEvents()": "55d27a5c",
					"updateEvent(uint256,string,string,uint256)": "97116bca"
				}
			},
			"storageLayout": {
				"storage": [
					{
						"astId": 17,
						"contract": "AgendaEventos.sol:AgendaEventos",
						"label": "eventos",
						"offset": 0,
						"slot": "0",
						"type": "t_mapping(t_address,t_mapping(t_uint256,t_struct(Evento)10_storage))"
					},
					{
						"astId": 21,
						"contract": "AgendaEventos.sol:AgendaEventos",
						"label": "contadorEventos",
						"offset": 0,
						"slot": "1",
						"type": "t_mapping(t_address,t_uint256)"
					}
				],
				"types": {
					"t_address": {
						"encoding": "inplace",
						"label": "address",
						"numberOfBytes": "20"
					},
					"t_bool": {
						"encoding": "inplace",
						"label": "bool",
						"numberOfBytes": "1"
					},
					"t_mapping(t_address,t_mapping(t_uint256,t_struct(Evento)10_storage))": {
						"encoding": "mapping",
						"key": "t_address",
						"label": "mapping(address => mapping(uint256 => struct AgendaEventos.Evento))",
						"numberOfBytes": "32",
						"value": "t_mapping(t_uint256,t_struct(Evento)10_storage)"
					},
					"t_mapping(t_address,t_uint256)": {
						"encoding": "mapping",
						"key": "t_address",
						"label": "mapping(address => uint256)",
						"numberOfBytes": "32",
						"value": "t_uint256"
					},
					"t_mapping(t_uint256,t_struct(Evento)10_storage)": {
						"encoding": "mapping",
						"key": "t_uint256",
						"label": "mapping(uint256 => struct AgendaEventos.Evento)",
						"numberOfBytes": "32",
						"value": "t_struct(Evento)10_storage"
					},
					"t_string_storage": {
						"encoding": "bytes",
						"label": "string",
						"numberOfBytes": "32"
					},
					"t_struct(Evento)10_storage": {
						"encoding": "inplace",
						"label": "struct AgendaEventos.Evento",
						"members": [
							{
								"astId": 3,
								"contract": "AgendaEventos.sol:AgendaEventos",
								"label": "nombre",
								"offset": 0,
								"slot": "0",
								"type": "t_string_storage"
							},
							{
								"astId": 5,
								"contract": "AgendaEventos.sol:AgendaEventos",
								"label": "descripcion",
								"offset": 0,
								"slot": "1",
								"type": "t_string_storage"
							},
							{
								"astId": 7,
								"contract": "AgendaEventos.sol:AgendaEventos",
								"label": "fecha",
								"offset": 0,
								"slot": "2",
								"type": "t_uint256"
							},
							{
								"astId": 9,
								"contract": "AgendaEventos.sol:AgendaEventos",
								"label": "existe",
								"offset": 0,
								"slot": "3",
								"type": "t_bool"
							}
						],
						"numberOfBytes": "128"
					},
					"t_uint256": {
						"encoding": "inplace",
						"label": "uint256",
						"numberOfBytes": "32"
					}
				}
			},
			"userdoc": {
				"kind": "user",
				"methods": {},
				"version": 1
			}
		}
	}
}